{
    "contractName": "Pausable",
    "abi": [
        {
            "constant": false,
            "inputs": [
                {
                    "name": "paused",
                    "type": "bool"
                }
            ],
            "name": "setPaused",
            "outputs": [],
            "payable": false,
            "stateMutability": "nonpayable",
            "type": "function"
        },
        {
            "constant": true,
            "inputs": [
                {
                    "name": "_caller",
                    "type": "address"
                }
            ],
            "name": "isOwner",
            "outputs": [
                {
                    "name": "",
                    "type": "bool"
                }
            ],
            "payable": false,
            "stateMutability": "view",
            "type": "function"
        },
        {
            "constant": false,
            "inputs": [
                {
                    "name": "newOwner",
                    "type": "address"
                }
            ],
            "name": "transferOwnership",
            "outputs": [],
            "payable": false,
            "stateMutability": "nonpayable",
            "type": "function"
        },
        {
            "inputs": [],
            "payable": false,
            "stateMutability": "nonpayable",
            "type": "constructor"
        },
        {
            "anonymous": false,
            "inputs": [
                {
                    "indexed": true,
                    "name": "caller",
                    "type": "address"
                }
            ],
            "name": "Paused",
            "type": "event"
        },
        {
            "anonymous": false,
            "inputs": [
                {
                    "indexed": true,
                    "name": "caller",
                    "type": "address"
                }
            ],
            "name": "Unpaused",
            "type": "event"
        },
        {
            "anonymous": false,
            "inputs": [
                {
                    "indexed": true,
                    "name": "_oldOwner",
                    "type": "address"
                },
                {
                    "indexed": true,
                    "name": "_newOwner",
                    "type": "address"
                }
            ],
            "name": "OwnershipTransferred",
            "type": "event"
        }
    ],
    "bytecode": "608060405234801561001057600080fd5b5060008054600160a01b60ff02196001600160a01b031990911633171690556102dd8061003e6000396000f3fe608060405234801561001057600080fd5b50600436106100415760003560e01c806316c38b3c146100465780632f54bf6e14610067578063f2fde38b146100a1575b600080fd5b6100656004803603602081101561005c57600080fd5b503515156100c7565b005b61008d6004803603602081101561007d57600080fd5b50356001600160a01b03166101bb565b604080519115158252519081900360200190f35b610065600480360360208110156100b757600080fd5b50356001600160a01b03166101cf565b6000546001600160a01b031633146101295760408051600160e51b62461bcd02815260206004820152601460248201527f63616c6c6572206d757374206265206f776e6572000000000000000000000000604482015290519081900360640190fd5b6000805482158015600160a01b0274ff0000000000000000000000000000000000000000199092169190911790915561018c5760405133907f62e78cea01bee320cd4e420270b5ea74000d11b0c9f74754ebdbfc544b05a25890600090a26101b8565b60405133907f5db9ee0a495bf2e6ff9c91a7834c1ba4fdd244a5e8aa4e537bd38aeae4b073aa90600090a25b50565b6000546001600160a01b0391821691161490565b6000546001600160a01b031633146102315760408051600160e51b62461bcd02815260206004820152601460248201527f63616c6c6572206d757374206265206f776e6572000000000000000000000000604482015290519081900360640190fd5b6001600160a01b03811661028f5760408051600160e51b62461bcd02815260206004820152601860248201527f696e636f7272656374206164647265737320666f726d61740000000000000000604482015290519081900360640190fd5b600080546001600160a01b0319166001600160a01b039290921691909117905556fea165627a7a723058206c2b0126134b5641df845e2f8900e379d76029aa1ef9dc87db73eb519c6a0cd40029",
    "sourcePath": "/home/bzzzpy/Documents/Blockchain-Capstone/eth-contracts/contracts/ERC721Mintable.sol",
    "compiler": {
        "name": "solc",
        "version": "0.5.6+commit.b259423e"
    },
    "functionHashes": {
        "isOwner(address)": "2f54bf6e",
        "setPaused(bool)": "16c38b3c",
        "transferOwnership(address)": "f2fde38b"
    },
    "gasEstimates": {
        "creation": {
            "codeDepositCost": "146600",
            "executionCost": "20454",
            "totalCost": "167054"
        },
        "external": {
            "isOwner(address)": "497",
            "setPaused(bool)": "21850",
            "transferOwnership(address)": "20770"
        }
    }
}