{
    "contractName": "SolnSquareVerifier",
    "abi": [
        {
            "constant": true,
            "inputs": [
                {
                    "name": "interfaceId",
                    "type": "bytes4"
                }
            ],
            "name": "supportsInterface",
            "outputs": [
                {
                    "name": "",
                    "type": "bool"
                }
            ],
            "payable": false,
            "stateMutability": "view",
            "type": "function"
        },
        {
            "constant": true,
            "inputs": [
                {
                    "name": "tokenId",
                    "type": "uint256"
                }
            ],
            "name": "getApproved",
            "outputs": [
                {
                    "name": "",
                    "type": "address"
                }
            ],
            "payable": false,
            "stateMutability": "view",
            "type": "function"
        },
        {
            "constant": false,
            "inputs": [
                {
                    "name": "to",
                    "type": "address"
                },
                {
                    "name": "tokenId",
                    "type": "uint256"
                }
            ],
            "name": "approve",
            "outputs": [],
            "payable": false,
            "stateMutability": "nonpayable",
            "type": "function"
        },
        {
            "constant": false,
            "inputs": [
                {
                    "name": "paused",
                    "type": "bool"
                }
            ],
            "name": "setPaused",
            "outputs": [],
            "payable": false,
            "stateMutability": "nonpayable",
            "type": "function"
        },
        {
            "constant": true,
            "inputs": [],
            "name": "totalSupply",
            "outputs": [
                {
                    "name": "",
                    "type": "uint256"
                }
            ],
            "payable": false,
            "stateMutability": "view",
            "type": "function"
        },
        {
            "constant": false,
            "inputs": [
                {
                    "name": "from",
                    "type": "address"
                },
                {
                    "name": "to",
                    "type": "address"
                },
                {
                    "name": "tokenId",
                    "type": "uint256"
                }
            ],
            "name": "transferFrom",
            "outputs": [],
            "payable": false,
            "stateMutability": "nonpayable",
            "type": "function"
        },
        {
            "constant": false,
            "inputs": [
                {
                    "name": "_myid",
                    "type": "bytes32"
                },
                {
                    "name": "_result",
                    "type": "string"
                }
            ],
            "name": "__callback",
            "outputs": [],
            "payable": false,
            "stateMutability": "nonpayable",
            "type": "function"
        },
        {
            "constant": false,
            "inputs": [
                {
                    "name": "_index",
                    "type": "uint256"
                },
                {
                    "name": "_caller",
                    "type": "address"
                }
            ],
            "name": "add",
            "outputs": [],
            "payable": false,
            "stateMutability": "nonpayable",
            "type": "function"
        },
        {
            "constant": true,
            "inputs": [
                {
                    "name": "_caller",
                    "type": "address"
                }
            ],
            "name": "isOwner",
            "outputs": [
                {
                    "name": "",
                    "type": "bool"
                }
            ],
            "payable": false,
            "stateMutability": "view",
            "type": "function"
        },
        {
            "constant": true,
            "inputs": [
                {
                    "name": "owner",
                    "type": "address"
                },
                {
                    "name": "index",
                    "type": "uint256"
                }
            ],
            "name": "tokenOfOwnerByIndex",
            "outputs": [
                {
                    "name": "",
                    "type": "uint256"
                }
            ],
            "payable": false,
            "stateMutability": "view",
            "type": "function"
        },
        {
            "constant": false,
            "inputs": [
                {
                    "name": "_myid",
                    "type": "bytes32"
                },
                {
                    "name": "_result",
                    "type": "string"
                },
                {
                    "name": "_proof",
                    "type": "bytes"
                }
            ],
            "name": "__callback",
            "outputs": [],
            "payable": false,
            "stateMutability": "nonpayable",
            "type": "function"
        },
        {
            "constant": false,
            "inputs": [
                {
                    "name": "to",
                    "type": "address"
                },
                {
                    "name": "tokenId",
                    "type": "uint256"
                }
            ],
            "name": "mint",
            "outputs": [
                {
                    "name": "",
                    "type": "bool"
                }
            ],
            "payable": false,
            "stateMutability": "nonpayable",
            "type": "function"
        },
        {
            "constant": false,
            "inputs": [
                {
                    "name": "from",
                    "type": "address"
                },
                {
                    "name": "to",
                    "type": "address"
                },
                {
                    "name": "tokenId",
                    "type": "uint256"
                }
            ],
            "name": "safeTransferFrom",
            "outputs": [],
            "payable": false,
            "stateMutability": "nonpayable",
            "type": "function"
        },
        {
            "constant": true,
            "inputs": [
                {
                    "components": [
                        {
                            "components": [
                                {
                                    "name": "X",
                                    "type": "uint256"
                                },
                                {
                                    "name": "Y",
                                    "type": "uint256"
                                }
                            ],
                            "name": "a",
                            "type": "tuple"
                        },
                        {
                            "components": [
                                {
                                    "name": "X",
                                    "type": "uint256[2]"
                                },
                                {
                                    "name": "Y",
                                    "type": "uint256[2]"
                                }
                            ],
                            "name": "b",
                            "type": "tuple"
                        },
                        {
                            "components": [
                                {
                                    "name": "X",
                                    "type": "uint256"
                                },
                                {
                                    "name": "Y",
                                    "type": "uint256"
                                }
                            ],
                            "name": "c",
                            "type": "tuple"
                        }
                    ],
                    "name": "proof",
                    "type": "tuple"
                },
                {
                    "name": "input",
                    "type": "uint256[2]"
                }
            ],
            "name": "verifyTx",
            "outputs": [
                {
                    "name": "r",
                    "type": "bool"
                }
            ],
            "payable": false,
            "stateMutability": "view",
            "type": "function"
        },
        {
            "constant": true,
            "inputs": [
                {
                    "name": "index",
                    "type": "uint256"
                }
            ],
            "name": "tokenByIndex",
            "outputs": [
                {
                    "name": "",
                    "type": "uint256"
                }
            ],
            "payable": false,
            "stateMutability": "view",
            "type": "function"
        },
        {
            "constant": false,
            "inputs": [
                {
                    "components": [
                        {
                            "components": [
                                {
                                    "name": "X",
                                    "type": "uint256"
                                },
                                {
                                    "name": "Y",
                                    "type": "uint256"
                                }
                            ],
                            "name": "a",
                            "type": "tuple"
                        },
                        {
                            "components": [
                                {
                                    "name": "X",
                                    "type": "uint256[2]"
                                },
                                {
                                    "name": "Y",
                                    "type": "uint256[2]"
                                }
                            ],
                            "name": "b",
                            "type": "tuple"
                        },
                        {
                            "components": [
                                {
                                    "name": "X",
                                    "type": "uint256"
                                },
                                {
                                    "name": "Y",
                                    "type": "uint256"
                                }
                            ],
                            "name": "c",
                            "type": "tuple"
                        }
                    ],
                    "name": "proof",
                    "type": "tuple"
                },
                {
                    "name": "input",
                    "type": "uint256[2]"
                }
            ],
            "name": "mintToken",
            "outputs": [],
            "payable": false,
            "stateMutability": "nonpayable",
            "type": "function"
        },
        {
            "constant": true,
            "inputs": [
                {
                    "name": "tokenId",
                    "type": "uint256"
                }
            ],
            "name": "ownerOf",
            "outputs": [
                {
                    "name": "",
                    "type": "address"
                }
            ],
            "payable": false,
            "stateMutability": "view",
            "type": "function"
        },
        {
            "constant": true,
            "inputs": [
                {
                    "name": "owner",
                    "type": "address"
                }
            ],
            "name": "balanceOf",
            "outputs": [
                {
                    "name": "",
                    "type": "uint256"
                }
            ],
            "payable": false,
            "stateMutability": "view",
            "type": "function"
        },
        {
            "constant": true,
            "inputs": [],
            "name": "getOwner",
            "outputs": [
                {
                    "name": "",
                    "type": "address"
                }
            ],
            "payable": false,
            "stateMutability": "view",
            "type": "function"
        },
        {
            "constant": false,
            "inputs": [
                {
                    "name": "to",
                    "type": "address"
                },
                {
                    "name": "approved",
                    "type": "bool"
                }
            ],
            "name": "setApprovalForAll",
            "outputs": [],
            "payable": false,
            "stateMutability": "nonpayable",
            "type": "function"
        },
        {
            "constant": false,
            "inputs": [
                {
                    "name": "from",
                    "type": "address"
                },
                {
                    "name": "to",
                    "type": "address"
                },
                {
                    "name": "tokenId",
                    "type": "uint256"
                },
                {
                    "name": "_data",
                    "type": "bytes"
                }
            ],
            "name": "safeTransferFrom",
            "outputs": [],
            "payable": false,
            "stateMutability": "nonpayable",
            "type": "function"
        },
        {
            "constant": false,
            "inputs": [
                {
                    "name": "tokenId",
                    "type": "uint256"
                }
            ],
            "name": "setTokenURI",
            "outputs": [],
            "payable": false,
            "stateMutability": "nonpayable",
            "type": "function"
        },
        {
            "constant": true,
            "inputs": [
                {
                    "name": "tokenId",
                    "type": "uint256"
                }
            ],
            "name": "tokenURI",
            "outputs": [
                {
                    "name": "",
                    "type": "string"
                }
            ],
            "payable": false,
            "stateMutability": "view",
            "type": "function"
        },
        {
            "constant": true,
            "inputs": [
                {
                    "name": "owner",
                    "type": "address"
                },
                {
                    "name": "operator",
                    "type": "address"
                }
            ],
            "name": "isApprovedForAll",
            "outputs": [
                {
                    "name": "",
                    "type": "bool"
                }
            ],
            "payable": false,
            "stateMutability": "view",
            "type": "function"
        },
        {
            "constant": false,
            "inputs": [
                {
                    "name": "newOwner",
                    "type": "address"
                }
            ],
            "name": "transferOwnership",
            "outputs": [],
            "payable": false,
            "stateMutability": "nonpayable",
            "type": "function"
        },
        {
            "anonymous": false,
            "inputs": [
                {
                    "indexed": true,
                    "name": "index",
                    "type": "uint256"
                },
                {
                    "indexed": true,
                    "name": "caller",
                    "type": "address"
                }
            ],
            "name": "SolutionAdded",
            "type": "event"
        },
        {
            "anonymous": false,
            "inputs": [
                {
                    "indexed": true,
                    "name": "from",
                    "type": "address"
                },
                {
                    "indexed": true,
                    "name": "to",
                    "type": "address"
                },
                {
                    "indexed": true,
                    "name": "tokenId",
                    "type": "uint256"
                }
            ],
            "name": "Transfer",
            "type": "event"
        },
        {
            "anonymous": false,
            "inputs": [
                {
                    "indexed": true,
                    "name": "owner",
                    "type": "address"
                },
                {
                    "indexed": true,
                    "name": "approved",
                    "type": "address"
                },
                {
                    "indexed": true,
                    "name": "tokenId",
                    "type": "uint256"
                }
            ],
            "name": "Approval",
            "type": "event"
        },
        {
            "anonymous": false,
            "inputs": [
                {
                    "indexed": true,
                    "name": "owner",
                    "type": "address"
                },
                {
                    "indexed": true,
                    "name": "operator",
                    "type": "address"
                },
                {
                    "indexed": false,
                    "name": "approved",
                    "type": "bool"
                }
            ],
            "name": "ApprovalForAll",
            "type": "event"
        },
        {
            "anonymous": false,
            "inputs": [
                {
                    "indexed": true,
                    "name": "caller",
                    "type": "address"
                }
            ],
            "name": "Paused",
            "type": "event"
        },
        {
            "anonymous": false,
            "inputs": [
                {
                    "indexed": true,
                    "name": "caller",
                    "type": "address"
                }
            ],
            "name": "Unpaused",
            "type": "event"
        },
        {
            "anonymous": false,
            "inputs": [
                {
                    "indexed": true,
                    "name": "_oldOwner",
                    "type": "address"
                },
                {
                    "indexed": true,
                    "name": "_newOwner",
                    "type": "address"
                }
            ],
            "name": "OwnershipTransferred",
            "type": "event"
        }
    ],
    "bytecode": "600a60809081527f5265616c20546f6b656e0000000000000000000000000000000000000000000060a052600460c09081527f5245414c0000000000000000000000000000000000000000000000000000000060e052610160604052603f6101008181529062002cc56101203960008054600160a01b60ff02196001600160a01b03199091163317169055620000bc7f01ffc9a7000000000000000000000000000000000000000000000000000000006200014f602090811b901c565b620000d46380ac58cd60e01b6200014f60201b60201c565b620000ec63780e9d6360e01b6200014f60201b60201c565b82516200010190600f906020860190620001bf565b50815162000117906010906020850190620001bf565b5080516200012d906011906020840190620001bf565b5062000146635b5e139f60e01b6200014f60201b60201c565b50505062000264565b7fffffffff0000000000000000000000000000000000000000000000000000000080821614156200017f57600080fd5b7fffffffff00000000000000000000000000000000000000000000000000000000166000908152600160208190526040909120805460ff19169091179055565b828054600181600116156101000203166002900490600052602060002090601f016020900481019282601f106200020257805160ff191683800117855562000232565b8280016001018555821562000232579182015b828111156200023257825182559160200191906001019062000215565b506200024092915062000244565b5090565b6200026191905b808211156200024057600081556001016200024b565b90565b612a5180620002746000396000f3fe608060405234801561001057600080fd5b50600436106101735760003560e01c806342842e0e116100de578063893d20e811610097578063bff2612611610071578063bff2612614610323578063c87b56dd14610336578063e985e9c514610356578063f2fde38b1461036957610173565b8063893d20e8146102f5578063a22cb465146102fd578063b88d4fde1461031057610173565b806342842e0e1461028357806343cd76fc146102965780634f6ccce7146102a9578063534f7527146102bc5780636352211e146102cf57806370a08231146102e257610173565b806327dc297e1161013057806327dc297e146102115780632b8bbbe8146102245780632f54bf6e146102375780632f745c591461024a57806338bbfa501461025d57806340c10f191461027057610173565b806301ffc9a714610178578063081812fc146101a1578063095ea7b3146101c157806316c38b3c146101d657806318160ddd146101e957806323b872dd146101fe575b600080fd5b61018b610186366004612525565b61037c565b6040516101989190612859565b60405180910390f35b6101b46101af366004612593565b61039f565b6040516101989190612807565b6101d46101cf36600461241c565b6103ba565b005b6101d46101e436600461244c565b610481565b6101f1610540565b60405161019891906128f8565b6101d461020c366004612326565b610547565b6101d461021f36600461246a565b61056a565b6101d46102323660046125b1565b61058a565b61018b6102453660046122ce565b61067b565b6101f161025836600461241c565b61068f565b6101d461026b3660046124b2565b610565565b61018b61027e36600461241c565b6106dd565b6101d4610291366004612326565b610776565b61018b6102a4366004612561565b610791565b6101f16102b7366004612593565b610816565b6101d46102ca366004612561565b61084a565b6101b46102dd366004612593565b610927565b6101f16102f03660046122ce565b610942565b6101b4610963565b6101d461030b3660046123ec565b610972565b6101d461031e366004612373565b6109f7565b6101d4610331366004612593565b610a1d565b610349610344366004612593565b610af2565b6040516101989190612867565b61018b6103643660046122ec565b610ba5565b6101d46103773660046122ce565b610bd3565b6001600160e01b0319811660009081526001602052604090205460ff165b919050565b6000908152600360205260409020546001600160a01b031690565b60006103c582610927565b9050806001600160a01b0316836001600160a01b0316141561040557604051600160e51b62461bcd0281526004016103fc906128d8565b60405180910390fd5b61040e3361067b565b8061041e575061041e8133610ba5565b61042757600080fd5b60008281526003602052604080822080546001600160a01b031916331790555183916001600160a01b0386811692908516917f8c5be1e5ebec7d5bd14f71427d1e84f3dd0314c0f7b2291e5b200ac8c7c3b92591a4505050565b6000546001600160a01b031633146104ae57604051600160e51b62461bcd0281526004016103fc906128e8565b6000805482158015600160a01b0274ff000000000000000000000000000000000000000019909216919091179091556105115760405133907f62e78cea01bee320cd4e420270b5ea74000d11b0c9f74754ebdbfc544b05a25890600090a261053d565b60405133907f5db9ee0a495bf2e6ff9c91a7834c1ba4fdd244a5e8aa4e537bd38aeae4b073aa90600090a25b50565b6008545b90565b6105513382610c4b565b61055a57600080fd5b610565838383610caa565b505050565b6040805160008152602081019091526105869083908390610565565b5050565b610592611ec2565b506040805180820182528381526001600160a01b0383811660208084018281526014805460018082018355600092835287517fce6d7b5282bd9a3661ae061feed1dbda4e52ab073b1f9285be6e155d9c38d4ec60029093029283015583517fce6d7b5282bd9a3661ae061feed1dbda4e52ab073b1f9285be6e155d9c38d4ed90920180546001600160a01b0319908116938916939093179055858352601590945287822087518155925192909301805490931691909416179055925191929185917f078793128cefb19aac38a33f9e5df39f67716907f6d747e8065545699e0b2b8d91a3505050565b6000546001600160a01b0391821691161490565b600061069a83610942565b82106106a557600080fd5b6001600160a01b03831660009081526006602052604090208054839081106106c957fe5b906000526020600020015490505b92915050565b600080546001600160a01b0316331461070b57604051600160e51b62461bcd0281526004016103fc906128e8565b6107158383610cc9565b604051600160e11b635ff93093028152309063bff261269061073b9085906004016128f8565b600060405180830381600087803b15801561075557600080fd5b505af1158015610769573d6000803e3d6000fd5b5060019695505050505050565b610565838383604051806020016040528060008152506109f7565b604080516002808252606080830184526000939092919060208301908038833901905050905060005b60028110156107f3578381600281106107cf57fe5b60200201518282815181106107e057fe5b60209081029190910101526001016107ba565b506107fe8185610ce6565b61080c5760019150506106d7565b60009150506106d7565b6000610820610540565b821061082b57600080fd5b6008828154811061083857fe5b90600052602060002001549050919050565b80513360008181526015602052604090205482141561087e57604051600160e51b62461bcd0281526004016103fc90612878565b600061088a8585610791565b9050806108ac57604051600160e51b62461bcd0281526004016103fc906128b8565b8351604051600160e31b630571777d0281523091632b8bbbe8916108d591903390600401612906565b600060405180830381600087803b1580156108ef57600080fd5b505af1158015610903573d6000803e3d6000fd5b505050506109153361027e6013610e45565b506109206013610e49565b5050505050565b6000908152600260205260409020546001600160a01b031690565b6001600160a01b03811660009081526004602052604081206106d790610e45565b6000546001600160a01b031690565b6001600160a01b03821633141561098857600080fd5b3360008181526005602090815260408083206001600160a01b038716808552925291829020805460ff191685151517905590519091907f17307eab39ab6107e8899845ad3d59bd9653f200f220920489ca2b5937696c31906109eb908590612859565b60405180910390a35050565b610a02848484610547565b610a0e84848484610e52565b610a1757600080fd5b50505050565b610a2681610f1d565b610a2f57600080fd5b60118054604080516020601f60026000196101006001881615020190951694909404938401819004810282018101909252828152610acf9390929091830182828015610abc5780601f10610a9157610100808354040283529160200191610abc565b820191906000526020600020905b815481529060010190602001808311610a9f57829003601f168201915b5050505050610aca83610f3a565b610ffe565b600082815260126020908152604090912082516105869391929190910190611ed9565b6060610afd82610f1d565b610b0657600080fd5b60008281526012602090815260409182902080548351601f600260001961010060018616150201909316929092049182018490048402810184019094528084529091830182828015610b995780601f10610b6e57610100808354040283529160200191610b99565b820191906000526020600020905b815481529060010190602001808311610b7c57829003601f168201915b50505050509050919050565b6001600160a01b03918216600090815260056020908152604080832093909416825291909152205460ff1690565b6000546001600160a01b03163314610c0057604051600160e51b62461bcd0281526004016103fc906128e8565b6001600160a01b038116610c2957604051600160e51b62461bcd0281526004016103fc906128c8565b600080546001600160a01b0319166001600160a01b0392909216919091179055565b600080610c5783610927565b9050806001600160a01b0316846001600160a01b03161480610c925750836001600160a01b0316610c878461039f565b6001600160a01b0316145b80610ca25750610ca28185610ba5565b949350505050565b610cb5838383611041565b610cbf8382611148565b6105658282611236565b610cd38282611274565b610cdd8282611236565b6105868161132c565b60007f30644e72e131a029b85045b68181585d2833e84879b9709143e1f593f0000001610d11611f57565b610d19611370565b9050806080015151855160010114610d3057600080fd5b610d38611f9f565b50604080518082019091526000808252602082018190525b8651811015610dc25783878281518110610d6657fe5b602002602001015110610d7857600080fd5b610db882610db385608001518460010181518110610d9257fe5b60200260200101518a8581518110610da657fe5b6020026020010151611765565b6117bd565b9150600101610d50565b50610de5818360800151600081518110610dd857fe5b60200260200101516117bd565b9050610e2985600001518660200151610dfd8461180b565b8560400151610e0f8a6040015161180b565b60608801518851610e1f9061180b565b8960200151611895565b610e3957600193505050506106d7565b50600095945050505050565b5490565b80546001019055565b6000610e66846001600160a01b03166119e5565b610e7257506001610ca2565b604051600160e11b630a85bd010281526000906001600160a01b0386169063150b7a0290610eaa9088908a9089908990600401612815565b602060405180830381600087803b158015610ec457600080fd5b505af1158015610ed8573d6000803e3d6000fd5b505050506040513d601f19601f82011682018060405250610efc9190810190612543565b6001600160e01b031916600160e11b630a85bd010214915050949350505050565b6000908152600260205260409020546001600160a01b0316151590565b606081610f6257506040805180820190915260018152600160fc1b600302602082015261039a565b8160005b8115610f7a57600101600a82049150610f66565b6060816040519080825280601f01601f191660200182016040528015610fa7576020820181803883390190505b50905060001982015b8515610ff557600a860660300160f81b82828060019003935081518110610fd357fe5b60200101906001600160f81b031916908160001a905350600a86049550610fb0565b50949350505050565b606061103a8383604051806020016040528060008152506040518060200160405280600081525060405180602001604052806000815250611a1e565b9392505050565b61104a81610927565b6001600160a01b0316836001600160a01b03161461107d57604051600160e51b62461bcd0281526004016103fc906128a8565b6001600160a01b0382166110a657604051600160e51b62461bcd0281526004016103fc90612898565b600081815260036020908152604080832080546001600160a01b03191690556001600160a01b0386168352600490915290206110e190611c32565b6001600160a01b038216600090815260046020526040902061110290610e49565b80826001600160a01b0316846001600160a01b03167fddf252ad1be2c89b69c2b068fc378daa952ba7f163c4a11628f55a4df523b3ef60405160405180910390a4505050565b6001600160a01b03821660009081526006602052604081205461117290600163ffffffff611c4916565b60008381526007602052604090205490915080821461120d576001600160a01b03841660009081526006602052604081208054849081106111af57fe5b906000526020600020015490508060066000876001600160a01b03166001600160a01b0316815260200190815260200160002083815481106111ed57fe5b600091825260208083209091019290925591825260079052604090208190555b6001600160a01b0384166000908152600660205260409020805490610920906000198301611fb9565b6001600160a01b0390911660009081526006602081815260408084208054868652600784529185208290559282526001810183559183529091200155565b61127d81610f1d565b15801561129257506001600160a01b03821615155b6112b157604051600160e51b62461bcd0281526004016103fc90612888565b600081815260026020908152604080832080546001600160a01b0319166001600160a01b0387169081179091558352600490915290206112f090610e49565b60405181906001600160a01b038416906000907fddf252ad1be2c89b69c2b068fc378daa952ba7f163c4a11628f55a4df523b3ef908290a45050565b600880546000838152600960205260408120829055600182018355919091527ff3f7a9fe364faab93b216da50a3214154f22a0a2b415b23a84c8169e8b636ee30155565b611378611f57565b6040805180820182527f11d04051dfa24197c951db85811bdd2c379ff160d59c527900376803b5da6d1281527f2c3550f6a11179451f225b11c1b6ec36dd23ee190619bfdd0976b34989f43a526020808301919091529083528151608080820184527f1add679852e7cbe6cdaf83e2dc628a45fdcb3a9819d3914ef37dd17003dbfa068285019081527f08e0663edef3226cb287662a5b57e6f66519f68e6ce1ee5e0a7a2ca279c1d3d7606080850191909152908352845180860186527f13dbfd733214ef94afec2f3d608c9c93ac31cf2d8b4e10b6ae96089df973f2ce81527f21196295f0fb5aae2e67680f3f741822014f709f39f2205260faf0423a606045818601528385015285840192909252835180820185527f234a9d17c9dfc7606f7f4639f74e478e24adc9432402422bd0b4e6055f700b948186019081527f078d4fbb6c4ba83e248d6af6c57898189b1d42205d04aeb287283c52f341d6fd828501528152845180860186527f0cf8bc6df8078edf3be7861769600ffdd0f6cdbee70ed6de5b4c788f68600b8081527f20cee0a54011e67088ada2eb368a0c735232d061da4ee533faae69d2940ea598818601528185015285850152835180820185527f24889e8710fd954f3bf426dd31ae4da63b16f3366d51a7d5e6b9fbfabbd08e8b8186019081527f0498faf797d188c9bd9e7e6c8f20a31d758867bd07bd1230829ba08d2b21e835828501528152845180860186527f0ec7f959e443951e634636a8d799ccb0b55a9f6d0d57cdc9f79298d8e345c69a81527f04c337b781b0d2d4920791f02f3950f1020ed57355024463d0737e42f5e7103d818601528185015291850191909152825160038082529181019093529082015b6115fc611f9f565b8152602001906001900390816115f457505060808201908152604080518082019091527f26c050f4fdababfea0ca4ac42b61434e9aa3238121e4717f46779983dea95efd81527f153796ebc5c265b8d9f3e12a37c3347ad9d1782fb493f7336efaef309dd8f30260208201529051805160009061167557fe5b602002602001018190525060405180604001604052807f1bcf0460dda7644589d32f728db1bcf71a6a8335f4f984fdbb2af42de8a631c481526020017f225c4e5a8a933d5e2934bee490358a947627b378631feb262e238b38a2bcce3c81525081608001516001815181106116e657fe5b602002602001018190525060405180604001604052807f1fdf934e7abaa0e1d83559a60bdc1c75f721520859075a13afd4c3abc218b07581526020017f2f2147805e090d941e4915e648a8f30686e77173e7179c0661cf6ef7d5e868d4815250816080015160028151811061175757fe5b602002602001018190525090565b61176d611f9f565b611775611fdd565b835181526020808501519082015260408101839052600060608360808460076107d05a03fa90508080156117a8576117aa565bfe5b50806117b557600080fd5b505092915050565b6117c5611f9f565b6117cd611ffb565b8351815260208085015181830152835160408301528301516060808301919091526000908360c08460066107d05a03fa90508080156117a8576117aa565b611813611f9f565b81517f30644e72e131a029b85045b68181585d97816a916871ca8d3c208c16d87cfd479015801561184657506020830151155b15611866575050604080518082019091526000808252602082015261039a565b6040518060400160405280846000015181526020018285602001518161188857fe5b0690920390915292915050565b60408051600480825260a0820190925260009160609190816020015b6118b9611f9f565b8152602001906001900390816118b157505060408051600480825260a0820190925291925060609190602082015b6118ef612019565b8152602001906001900390816118e75790505090508a8260008151811061191257fe5b6020026020010181905250888260018151811061192b57fe5b6020026020010181905250868260028151811061194457fe5b6020026020010181905250848260038151811061195d57fe5b6020026020010181905250898160008151811061197657fe5b6020026020010181905250878160018151811061198f57fe5b602002602001018190525085816002815181106119a857fe5b602002602001018190525083816003815181106119c157fe5b60200260200101819052506119d68282611c8b565b9b9a5050505050505050505050565b6000813f7fc5d2460186f7233c927e7db2dcc703c0e500b653ca82273b7bfad8045d85a470818114801590610ca2575050151592915050565b6060808690506060869050606086905060608690506060869050606081518351855187518951010101016040519080825280601f01601f191660200182016040528015611a72576020820181803883390190505b509050806000805b8851811015611acb57888181518110611a8f57fe5b602001015160f81c60f81b838380600101945081518110611aac57fe5b60200101906001600160f81b031916908160001a905350600101611a7a565b5060005b8751811015611b2057878181518110611ae457fe5b602001015160f81c60f81b838380600101945081518110611b0157fe5b60200101906001600160f81b031916908160001a905350600101611acf565b5060005b8651811015611b7557868181518110611b3957fe5b602001015160f81c60f81b838380600101945081518110611b5657fe5b60200101906001600160f81b031916908160001a905350600101611b24565b5060005b8551811015611bca57858181518110611b8e57fe5b602001015160f81c60f81b838380600101945081518110611bab57fe5b60200101906001600160f81b031916908160001a905350600101611b79565b5060005b8451811015611c1f57848181518110611be357fe5b602001015160f81c60f81b838380600101945081518110611c0057fe5b60200101906001600160f81b031916908160001a905350600101611bce565b50909d9c50505050505050505050505050565b8054611c4590600163ffffffff611c4916565b9055565b600061103a83836040518060400160405280601e81526020017f536166654d6174683a207375627472616374696f6e206f766572666c6f770000815250611e93565b60008151835114611c9b57600080fd5b8251604080516006830280825260c084028201602001909252606090828015611cce578160200160208202803883390190505b50905060005b83811015611e5357868181518110611ce857fe5b602002602001015160000151828260060260000181518110611d0657fe5b602002602001018181525050868181518110611d1e57fe5b602002602001015160200151828260060260010181518110611d3c57fe5b602002602001018181525050858181518110611d5457fe5b60209081029190910101515160016020020151828260060260020181518110611d7957fe5b602002602001018181525050858181518110611d9157fe5b602090810291909101015151518251839060036006850201908110611db257fe5b602002602001018181525050858181518110611dca57fe5b602002602001015160200151600160028110611de257fe5b6020020151828260060260040181518110611df957fe5b602002602001018181525050858181518110611e1157fe5b602002602001015160200151600060028110611e2957fe5b6020020151828260060260050181518110611e4057fe5b6020908102919091010152600101611cd4565b50611e5c61203e565b6000602082602086026020860160086107d05a03fa90508080156117a8575080611e8557600080fd5b505115159695505050505050565b60008184841115611eba57604051600160e51b62461bcd0281526004016103fc9190612867565b505050900390565b604080518082019091526000808252602082015290565b828054600181600116156101000203166002900490600052602060002090601f016020900481019282601f10611f1a57805160ff1916838001178555611f47565b82800160010185558215611f47579182015b82811115611f47578251825591602001919060010190611f2c565b50611f5392915061205c565b5090565b604051806101e00160405280611f6b611f9f565b8152602001611f78612019565b8152602001611f85612019565b8152602001611f92612019565b8152602001606081525090565b604051806040016040528060008152602001600081525090565b8154818355818111156105655760008381526020902061056591810190830161205c565b60405180606001604052806003906020820280388339509192915050565b60405180608001604052806004906020820280388339509192915050565b604051806080016040528061202c612076565b8152602001612039612076565b905290565b60405180602001604052806001906020820280388339509192915050565b61054491905b80821115611f535760008155600101612062565b60405180604001604052806002906020820280388339509192915050565b600061103a823561299b565b600082601f8301126120b157600080fd5b60026120c46120bf82612948565b612921565b915081838560208402820111156120da57600080fd5b60005b8381101561210657816120f0888261217d565b84525060209283019291909101906001016120dd565b5050505092915050565b600082601f83011261212157600080fd5b600261212f6120bf82612948565b9150818385602084028201111561214557600080fd5b60005b83811015612106578161215b888261217d565b8452506020928301929190910190600101612148565b600061103a82356129a6565b600061103a8235610544565b600061103a82356129b7565b600061103a82516129b7565b600082601f8301126121b257600080fd5b81356121c06120bf82612966565b915080825260208301602083018583830111156121dc57600080fd5b6121e78382846129d5565b50505092915050565b60006040828403121561220257600080fd5b61220c6040612921565b9050600061221a848461217d565b825250602061222b8484830161217d565b60208301525092915050565b60006080828403121561224957600080fd5b6122536040612921565b9050600061226184846120a0565b825250604061222b848483016120a0565b6000610100828403121561228557600080fd5b61228f6060612921565b9050600061229d84846121f0565b82525060406122ae84848301612237565b60208301525060c06122c2848285016121f0565b60408301525092915050565b6000602082840312156122e057600080fd5b6000610ca28484612094565b600080604083850312156122ff57600080fd5b600061230b8585612094565b925050602061231c85828601612094565b9150509250929050565b60008060006060848603121561233b57600080fd5b60006123478686612094565b935050602061235886828701612094565b92505060406123698682870161217d565b9150509250925092565b6000806000806080858703121561238957600080fd5b60006123958787612094565b94505060206123a687828801612094565b93505060406123b78782880161217d565b925050606085013567ffffffffffffffff8111156123d457600080fd5b6123e0878288016121a1565b91505092959194509250565b600080604083850312156123ff57600080fd5b600061240b8585612094565b925050602061231c85828601612171565b6000806040838503121561242f57600080fd5b600061243b8585612094565b925050602061231c8582860161217d565b60006020828403121561245e57600080fd5b6000610ca28484612171565b6000806040838503121561247d57600080fd5b6000612489858561217d565b925050602083013567ffffffffffffffff8111156124a657600080fd5b61231c858286016121a1565b6000806000606084860312156124c757600080fd5b60006124d3868661217d565b935050602084013567ffffffffffffffff8111156124f057600080fd5b6124fc868287016121a1565b925050604084013567ffffffffffffffff81111561251957600080fd5b612369868287016121a1565b60006020828403121561253757600080fd5b6000610ca28484612189565b60006020828403121561255557600080fd5b6000610ca28484612195565b600080610140838503121561257557600080fd5b60006125818585612272565b92505061010061231c85828601612110565b6000602082840312156125a557600080fd5b6000610ca2848461217d565b600080604083850312156125c457600080fd5b600061230b858561217d565b6125d9816129c4565b82525050565b6125d98161299b565b6125d9816129a6565b60006125fc8261298e565b6126068185612992565b93506126168185602086016129e1565b61261f81612a0d565b9093019392505050565b6000612636601583612992565b7f736f6c7574696f6e206d75737420626520756e69710000000000000000000000815260200192915050565b600061266f601a83612992565b7f696e76616c69642061646472657373206f7220746f6b656e4964000000000000815260200192915050565b60006126a8601983612992565b7f696e76616c696420726563697069656e74206164647265737300000000000000815260200192915050565b60006126e1601883612992565b7f66726f6d206d75737420626520746f6b656e206f776e65720000000000000000815260200192915050565b600061271a601383612992565b7f70726f6f66206d7573742062652076616c696400000000000000000000000000815260200192915050565b6000612753601883612992565b7f696e636f7272656374206164647265737320666f726d61740000000000000000815260200192915050565b600061278c602183612992565b7f726563697069656e74206d757374206e6f7420626520746f6b656e206f776e658152600160f91b603902602082015260400192915050565b60006127d2601483612992565b7f63616c6c6572206d757374206265206f776e6572000000000000000000000000815260200192915050565b6125d981610544565b602081016106d782846125df565b6080810161282382876125df565b61283060208301866125df565b61283d60408301856127fe565b818103606083015261284f81846125f1565b9695505050505050565b602081016106d782846125e8565b6020808252810161103a81846125f1565b602080825281016106d781612629565b602080825281016106d781612662565b602080825281016106d78161269b565b602080825281016106d7816126d4565b602080825281016106d78161270d565b602080825281016106d781612746565b602080825281016106d78161277f565b602080825281016106d7816127c5565b602081016106d782846127fe565b6040810161291482856127fe565b61103a60208301846125d0565b60405181810167ffffffffffffffff8111828210171561294057600080fd5b604052919050565b600067ffffffffffffffff82111561295f57600080fd5b5060200290565b600067ffffffffffffffff82111561297d57600080fd5b506020601f91909101601f19160190565b5190565b90815260200190565b60006106d7826129ab565b151590565b6001600160a01b031690565b6001600160e01b03191690565b60006106d78260006106d78261299b565b82818337506000910152565b60005b838110156129fc5781810151838201526020016129e4565b83811115610a175750506000910152565b601f01601f19169056fea265627a7a723058206438a5670724d6a7a6c802751aa4bbe4d1a38f511ba32da9d3c45601b71865916c6578706572696d656e74616cf5003768747470733a2f2f73332d75732d776573742d322e616d617a6f6e6177732e636f6d2f756461636974792d626c6f636b636861696e2f63617073746f6e652f",
    "sourcePath": "/home/bzzzpy/Documents/Blockchain-Capstone/eth-contracts/contracts/SolnSquareVerifier.sol",
    "compiler": {
        "name": "solc",
        "version": "0.5.6+commit.b259423e"
    },
    "functionHashes": {
        "__callback(bytes32,string)": "27dc297e",
        "__callback(bytes32,string,bytes)": "38bbfa50",
        "add(uint256,address)": "2b8bbbe8",
        "approve(address,uint256)": "095ea7b3",
        "balanceOf(address)": "70a08231",
        "getApproved(uint256)": "081812fc",
        "getOwner()": "893d20e8",
        "isApprovedForAll(address,address)": "e985e9c5",
        "isOwner(address)": "2f54bf6e",
        "mint(address,uint256)": "40c10f19",
        "mintToken(((uint256,uint256),(uint256[2],uint256[2]),(uint256,uint256)),uint256[2])": "534f7527",
        "ownerOf(uint256)": "6352211e",
        "safeTransferFrom(address,address,uint256)": "42842e0e",
        "safeTransferFrom(address,address,uint256,bytes)": "b88d4fde",
        "setApprovalForAll(address,bool)": "a22cb465",
        "setPaused(bool)": "16c38b3c",
        "setTokenURI(uint256)": "bff26126",
        "supportsInterface(bytes4)": "01ffc9a7",
        "tokenByIndex(uint256)": "4f6ccce7",
        "tokenOfOwnerByIndex(address,uint256)": "2f745c59",
        "tokenURI(uint256)": "c87b56dd",
        "totalSupply()": "18160ddd",
        "transferFrom(address,address,uint256)": "23b872dd",
        "transferOwnership(address)": "f2fde38b",
        "verifyTx(((uint256,uint256),(uint256[2],uint256[2]),(uint256,uint256)),uint256[2])": "43cd76fc"
    },
    "gasEstimates": {
        "creation": {
            "codeDepositCost": "2166600",
            "executionCost": "infinite",
            "totalCost": "infinite"
        },
        "external": {
            "__callback(bytes32,string)": "infinite",
            "__callback(bytes32,string,bytes)": "infinite",
            "add(uint256,address)": "infinite",
            "approve(address,uint256)": "infinite",
            "balanceOf(address)": "infinite",
            "getApproved(uint256)": "infinite",
            "getOwner()": "infinite",
            "isApprovedForAll(address,address)": "infinite",
            "isOwner(address)": "infinite",
            "mint(address,uint256)": "infinite",
            "mintToken(((uint256,uint256),(uint256[2],uint256[2]),(uint256,uint256)),uint256[2])": "infinite",
            "ownerOf(uint256)": "infinite",
            "safeTransferFrom(address,address,uint256)": "infinite",
            "safeTransferFrom(address,address,uint256,bytes)": "infinite",
            "setApprovalForAll(address,bool)": "infinite",
            "setPaused(bool)": "22079",
            "setTokenURI(uint256)": "infinite",
            "supportsInterface(bytes4)": "811",
            "tokenByIndex(uint256)": "infinite",
            "tokenOfOwnerByIndex(address,uint256)": "infinite",
            "tokenURI(uint256)": "infinite",
            "totalSupply()": "infinite",
            "transferFrom(address,address,uint256)": "infinite",
            "transferOwnership(address)": "infinite",
            "verifyTx(((uint256,uint256),(uint256[2],uint256[2]),(uint256,uint256)),uint256[2])": "infinite"
        }
    }
}