{
  "contractName": "CustomERC721Token",
  "abi": [
    {
      "inputs": [],
      "stateMutability": "nonpayable",
      "type": "constructor"
    },
    {
      "anonymous": false,
      "inputs": [
        {
          "indexed": true,
          "internalType": "address",
          "name": "owner",
          "type": "address"
        },
        {
          "indexed": true,
          "internalType": "address",
          "name": "approved",
          "type": "address"
        },
        {
          "indexed": true,
          "internalType": "uint256",
          "name": "tokenId",
          "type": "uint256"
        }
      ],
      "name": "Approval",
      "type": "event"
    },
    {
      "anonymous": false,
      "inputs": [
        {
          "indexed": true,
          "internalType": "address",
          "name": "owner",
          "type": "address"
        },
        {
          "indexed": true,
          "internalType": "address",
          "name": "operator",
          "type": "address"
        },
        {
          "indexed": false,
          "internalType": "bool",
          "name": "approved",
          "type": "bool"
        }
      ],
      "name": "ApprovalForAll",
      "type": "event"
    },
    {
      "anonymous": false,
      "inputs": [
        {
          "indexed": true,
          "internalType": "address",
          "name": "oldOwner",
          "type": "address"
        },
        {
          "indexed": true,
          "internalType": "address",
          "name": "newOwner",
          "type": "address"
        }
      ],
      "name": "OwnershipTransferred",
      "type": "event"
    },
    {
      "anonymous": false,
      "inputs": [
        {
          "indexed": true,
          "internalType": "address",
          "name": "caller",
          "type": "address"
        }
      ],
      "name": "Paused",
      "type": "event"
    },
    {
      "anonymous": false,
      "inputs": [
        {
          "indexed": true,
          "internalType": "address",
          "name": "from",
          "type": "address"
        },
        {
          "indexed": true,
          "internalType": "address",
          "name": "to",
          "type": "address"
        },
        {
          "indexed": true,
          "internalType": "uint256",
          "name": "tokenId",
          "type": "uint256"
        }
      ],
      "name": "Transfer",
      "type": "event"
    },
    {
      "anonymous": false,
      "inputs": [
        {
          "indexed": true,
          "internalType": "address",
          "name": "caller",
          "type": "address"
        }
      ],
      "name": "Unpaused",
      "type": "event"
    },
    {
      "inputs": [
        {
          "internalType": "bytes32",
          "name": "_myid",
          "type": "bytes32"
        },
        {
          "internalType": "string",
          "name": "_result",
          "type": "string"
        }
      ],
      "name": "__callback",
      "outputs": [],
      "stateMutability": "nonpayable",
      "type": "function"
    },
    {
      "inputs": [
        {
          "internalType": "bytes32",
          "name": "_myid",
          "type": "bytes32"
        },
        {
          "internalType": "string",
          "name": "_result",
          "type": "string"
        },
        {
          "internalType": "bytes",
          "name": "_proof",
          "type": "bytes"
        }
      ],
      "name": "__callback",
      "outputs": [],
      "stateMutability": "nonpayable",
      "type": "function"
    },
    {
      "inputs": [
        {
          "internalType": "address",
          "name": "to",
          "type": "address"
        },
        {
          "internalType": "uint256",
          "name": "tokenId",
          "type": "uint256"
        }
      ],
      "name": "approve",
      "outputs": [],
      "stateMutability": "nonpayable",
      "type": "function"
    },
    {
      "inputs": [
        {
          "internalType": "address",
          "name": "owner",
          "type": "address"
        }
      ],
      "name": "balanceOf",
      "outputs": [
        {
          "internalType": "uint256",
          "name": "",
          "type": "uint256"
        }
      ],
      "stateMutability": "view",
      "type": "function"
    },
    {
      "inputs": [
        {
          "internalType": "uint256",
          "name": "tokenId",
          "type": "uint256"
        }
      ],
      "name": "getApproved",
      "outputs": [
        {
          "internalType": "address",
          "name": "",
          "type": "address"
        }
      ],
      "stateMutability": "view",
      "type": "function"
    },
    {
      "inputs": [],
      "name": "getOwner",
      "outputs": [
        {
          "internalType": "address",
          "name": "",
          "type": "address"
        }
      ],
      "stateMutability": "view",
      "type": "function"
    },
    {
      "inputs": [
        {
          "internalType": "address",
          "name": "owner",
          "type": "address"
        },
        {
          "internalType": "address",
          "name": "operator",
          "type": "address"
        }
      ],
      "name": "isApprovedForAll",
      "outputs": [
        {
          "internalType": "bool",
          "name": "",
          "type": "bool"
        }
      ],
      "stateMutability": "view",
      "type": "function"
    },
    {
      "inputs": [
        {
          "internalType": "address",
          "name": "_caller",
          "type": "address"
        }
      ],
      "name": "isOwner",
      "outputs": [
        {
          "internalType": "bool",
          "name": "",
          "type": "bool"
        }
      ],
      "stateMutability": "view",
      "type": "function"
    },
    {
      "inputs": [
        {
          "internalType": "uint256",
          "name": "tokenId",
          "type": "uint256"
        }
      ],
      "name": "ownerOf",
      "outputs": [
        {
          "internalType": "address",
          "name": "",
          "type": "address"
        }
      ],
      "stateMutability": "view",
      "type": "function"
    },
    {
      "inputs": [
        {
          "internalType": "address",
          "name": "from",
          "type": "address"
        },
        {
          "internalType": "address",
          "name": "to",
          "type": "address"
        },
        {
          "internalType": "uint256",
          "name": "tokenId",
          "type": "uint256"
        }
      ],
      "name": "safeTransferFrom",
      "outputs": [],
      "stateMutability": "nonpayable",
      "type": "function"
    },
    {
      "inputs": [
        {
          "internalType": "address",
          "name": "from",
          "type": "address"
        },
        {
          "internalType": "address",
          "name": "to",
          "type": "address"
        },
        {
          "internalType": "uint256",
          "name": "tokenId",
          "type": "uint256"
        },
        {
          "internalType": "bytes",
          "name": "_data",
          "type": "bytes"
        }
      ],
      "name": "safeTransferFrom",
      "outputs": [],
      "stateMutability": "nonpayable",
      "type": "function"
    },
    {
      "inputs": [
        {
          "internalType": "address",
          "name": "to",
          "type": "address"
        },
        {
          "internalType": "bool",
          "name": "approved",
          "type": "bool"
        }
      ],
      "name": "setApprovalForAll",
      "outputs": [],
      "stateMutability": "nonpayable",
      "type": "function"
    },
    {
      "inputs": [
        {
          "internalType": "bool",
          "name": "isPaused",
          "type": "bool"
        }
      ],
      "name": "setPaused",
      "outputs": [],
      "stateMutability": "nonpayable",
      "type": "function"
    },
    {
      "inputs": [
        {
          "internalType": "uint256",
          "name": "tokenId",
          "type": "uint256"
        }
      ],
      "name": "setTokenURI",
      "outputs": [],
      "stateMutability": "nonpayable",
      "type": "function"
    },
    {
      "inputs": [
        {
          "internalType": "bytes4",
          "name": "interfaceId",
          "type": "bytes4"
        }
      ],
      "name": "supportsInterface",
      "outputs": [
        {
          "internalType": "bool",
          "name": "",
          "type": "bool"
        }
      ],
      "stateMutability": "view",
      "type": "function"
    },
    {
      "inputs": [
        {
          "internalType": "uint256",
          "name": "index",
          "type": "uint256"
        }
      ],
      "name": "tokenByIndex",
      "outputs": [
        {
          "internalType": "uint256",
          "name": "",
          "type": "uint256"
        }
      ],
      "stateMutability": "view",
      "type": "function"
    },
    {
      "inputs": [
        {
          "internalType": "address",
          "name": "owner",
          "type": "address"
        },
        {
          "internalType": "uint256",
          "name": "index",
          "type": "uint256"
        }
      ],
      "name": "tokenOfOwnerByIndex",
      "outputs": [
        {
          "internalType": "uint256",
          "name": "",
          "type": "uint256"
        }
      ],
      "stateMutability": "view",
      "type": "function"
    },
    {
      "inputs": [
        {
          "internalType": "uint256",
          "name": "tokenId",
          "type": "uint256"
        }
      ],
      "name": "tokenURI",
      "outputs": [
        {
          "internalType": "string",
          "name": "",
          "type": "string"
        }
      ],
      "stateMutability": "view",
      "type": "function"
    },
    {
      "inputs": [],
      "name": "totalSupply",
      "outputs": [
        {
          "internalType": "uint256",
          "name": "",
          "type": "uint256"
        }
      ],
      "stateMutability": "view",
      "type": "function"
    },
    {
      "inputs": [
        {
          "internalType": "address",
          "name": "from",
          "type": "address"
        },
        {
          "internalType": "address",
          "name": "to",
          "type": "address"
        },
        {
          "internalType": "uint256",
          "name": "tokenId",
          "type": "uint256"
        }
      ],
      "name": "transferFrom",
      "outputs": [],
      "stateMutability": "nonpayable",
      "type": "function"
    },
    {
      "inputs": [
        {
          "internalType": "address",
          "name": "newOwner",
          "type": "address"
        }
      ],
      "name": "transferOwnership",
      "outputs": [],
      "stateMutability": "nonpayable",
      "type": "function"
    },
    {
      "inputs": [
        {
          "internalType": "address",
          "name": "to",
          "type": "address"
        },
        {
          "internalType": "uint256",
          "name": "tokenId",
          "type": "uint256"
        }
      ],
      "name": "mint",
      "outputs": [
        {
          "internalType": "bool",
          "name": "",
          "type": "bool"
        }
      ],
      "stateMutability": "nonpayable",
      "type": "function"
    }
  ],
  "bytecode": "0x60806040523480156200001157600080fd5b506040518060400160405280600a81526020017f5265616c20546f6b656e000000000000000000000000000000000000000000008152506040518060400160405280600481526020017f5245414c000000000000000000000000000000000000000000000000000000008152506040518060600160405280603f81526020016200336d603f9139336000806101000a81548173ffffffffffffffffffffffffffffffffffffffff021916908373ffffffffffffffffffffffffffffffffffffffff16021790555060008060146101000a81548160ff0219169083151502179055506200010a6301ffc9a760e01b620001a660201b60201c565b620001226380ac58cd60e01b620001a660201b60201c565b6200013a63780e9d6360e01b620001a660201b60201c565b82600f90805190602001906200015292919062000246565b5081601090805190602001906200016b92919062000246565b5080601190805190602001906200018492919062000246565b506200019d635b5e139f60e01b620001a660201b60201c565b5050506200035b565b63ffffffff60e01b817bffffffffffffffffffffffffffffffffffffffffffffffffffffffff19161415620001da57600080fd5b6001806000837bffffffffffffffffffffffffffffffffffffffffffffffffffffffff19167bffffffffffffffffffffffffffffffffffffffffffffffffffffffff1916815260200190815260200160002060006101000a81548160ff02191690831515021790555050565b8280546200025490620002f6565b90600052602060002090601f016020900481019282620002785760008555620002c4565b82601f106200029357805160ff1916838001178555620002c4565b82800160010185558215620002c4579182015b82811115620002c3578251825591602001919060010190620002a6565b5b509050620002d39190620002d7565b5090565b5b80821115620002f2576000816000905550600101620002d8565b5090565b600060028204905060018216806200030f57607f821691505b602082108114156200032657620003256200032c565b5b50919050565b7f4e487b7100000000000000000000000000000000000000000000000000000000600052602260045260246000fd5b613002806200036b6000396000f3fe608060405234801561001057600080fd5b50600436106101425760003560e01c806342842e0e116100b8578063a22cb4651161007c578063a22cb465146103ab578063b88d4fde146103c7578063bff26126146103e3578063c87b56dd146103ff578063e985e9c51461042f578063f2fde38b1461045f57610142565b806342842e0e146102e15780634f6ccce7146102fd5780636352211e1461032d57806370a082311461035d578063893d20e81461038d57610142565b806323b872dd1161010a57806323b872dd146101fd57806327dc297e146102195780632f54bf6e146102355780632f745c591461026557806338bbfa501461029557806340c10f19146102b157610142565b806301ffc9a714610147578063081812fc14610177578063095ea7b3146101a757806316c38b3c146101c357806318160ddd146101df575b600080fd5b610161600480360381019061015c9190612658565b61047b565b60405161016e91906128ce565b60405180910390f35b610191600480360381019061018c91906126aa565b6104e3565b60405161019e9190612867565b60405180910390f35b6101c160048036038101906101bc9190612520565b610520565b005b6101dd60048036038101906101d8919061255c565b610671565b005b6101e76107bd565b6040516101f491906129eb565b60405180910390f35b6102176004803603810190610212919061241a565b6107ca565b005b610233600480360381019061022e9190612585565b6107ed565b005b61024f600480360381019061024a91906123b5565b61086f565b60405161025c91906128ce565b60405180910390f35b61027f600480360381019061027a9190612520565b6108c7565b60405161028c91906129eb565b60405180910390f35b6102af60048036038101906102aa91906125d9565b610967565b005b6102cb60048036038101906102c69190612520565b61098a565b6040516102d891906128ce565b60405180910390f35b6102fb60048036038101906102f6919061241a565b610a9a565b005b610317600480360381019061031291906126aa565b610aba565b60405161032491906129eb565b60405180910390f35b610347600480360381019061034291906126aa565b610b1b565b6040516103549190612867565b60405180910390f35b610377600480360381019061037291906123b5565b610b58565b60405161038491906129eb565b60405180910390f35b610395610ba8565b6040516103a29190612867565b60405180910390f35b6103c560048036038101906103c091906124e4565b610bd1565b005b6103e160048036038101906103dc9190612469565b610d07565b005b6103fd60048036038101906103f891906126aa565b610d2d565b005b610419600480360381019061041491906126aa565b610e05565b60405161042691906128e9565b60405180910390f35b610449600480360381019061044491906123de565b610ebc565b60405161045691906128ce565b60405180910390f35b610479600480360381019061047491906123b5565b610f50565b005b600060016000837bffffffffffffffffffffffffffffffffffffffffffffffffffffffff19167bffffffffffffffffffffffffffffffffffffffffffffffffffffffff1916815260200190815260200160002060009054906101000a900460ff169050919050565b60006003600083815260200190815260200160002060009054906101000a900473ffffffffffffffffffffffffffffffffffffffff169050919050565b600061052b82610b1b565b90508073ffffffffffffffffffffffffffffffffffffffff168373ffffffffffffffffffffffffffffffffffffffff16141561059c576040517f08c379a0000000000000000000000000000000000000000000000000000000008152600401610593906129ab565b60405180910390fd5b6105a53361086f565b806105b657506105b58133610ebc565b5b6105bf57600080fd5b336003600084815260200190815260200160002060006101000a81548173ffffffffffffffffffffffffffffffffffffffff021916908373ffffffffffffffffffffffffffffffffffffffff160217905550818373ffffffffffffffffffffffffffffffffffffffff168273ffffffffffffffffffffffffffffffffffffffff167f8c5be1e5ebec7d5bd14f71427d1e84f3dd0314c0f7b2291e5b200ac8c7c3b92560405160405180910390a4505050565b60008054906101000a900473ffffffffffffffffffffffffffffffffffffffff1673ffffffffffffffffffffffffffffffffffffffff163373ffffffffffffffffffffffffffffffffffffffff16146106ff576040517f08c379a00000000000000000000000000000000000000000000000000000000081526004016106f6906129cb565b60405180910390fd5b80600060146101000a81548160ff021916908315150217905550600060149054906101000a900460ff1615610776573373ffffffffffffffffffffffffffffffffffffffff167f62e78cea01bee320cd4e420270b5ea74000d11b0c9f74754ebdbfc544b05a25860405160405180910390a26107ba565b3373ffffffffffffffffffffffffffffffffffffffff167f5db9ee0a495bf2e6ff9c91a7834c1ba4fdd244a5e8aa4e537bd38aeae4b073aa60405160405180910390a25b50565b6000600880549050905090565b6107d43382611091565b6107dd57600080fd5b6107e8838383611126565b505050565b61086b8282600067ffffffffffffffff811115610833577f4e487b7100000000000000000000000000000000000000000000000000000000600052604160045260246000fd5b6040519080825280601f01601f1916602001820160405280156108655781602001600182028036833780820191505090505b50610967565b5050565b60008173ffffffffffffffffffffffffffffffffffffffff1660008054906101000a900473ffffffffffffffffffffffffffffffffffffffff1673ffffffffffffffffffffffffffffffffffffffff16149050919050565b60006108d283610b58565b82106108dd57600080fd5b600660008473ffffffffffffffffffffffffffffffffffffffff1673ffffffffffffffffffffffffffffffffffffffff1681526020019081526020016000208281548110610954577f4e487b7100000000000000000000000000000000000000000000000000000000600052603260045260246000fd5b9060005260206000200154905092915050565b6000801b600d60008060001b815260200190815260200160002081905550505050565b60008060009054906101000a900473ffffffffffffffffffffffffffffffffffffffff1673ffffffffffffffffffffffffffffffffffffffff163373ffffffffffffffffffffffffffffffffffffffff1614610a1b576040517f08c379a0000000000000000000000000000000000000000000000000000000008152600401610a12906129cb565b60405180910390fd5b610a25838361114a565b3073ffffffffffffffffffffffffffffffffffffffff1663bff26126836040518263ffffffff1660e01b8152600401610a5e91906129eb565b600060405180830381600087803b158015610a7857600080fd5b505af1158015610a8c573d6000803e3d6000fd5b505050506001905092915050565b610ab583838360405180602001604052806000815250610d07565b505050565b6000610ac46107bd565b8210610acf57600080fd5b60088281548110610b09577f4e487b7100000000000000000000000000000000000000000000000000000000600052603260045260246000fd5b90600052602060002001549050919050565b60006002600083815260200190815260200160002060009054906101000a900473ffffffffffffffffffffffffffffffffffffffff169050919050565b6000610ba1600460008473ffffffffffffffffffffffffffffffffffffffff1673ffffffffffffffffffffffffffffffffffffffff16815260200190815260200160002061116b565b9050919050565b60008060009054906101000a900473ffffffffffffffffffffffffffffffffffffffff16905090565b3373ffffffffffffffffffffffffffffffffffffffff168273ffffffffffffffffffffffffffffffffffffffff161415610c0a57600080fd5b80600560003373ffffffffffffffffffffffffffffffffffffffff1673ffffffffffffffffffffffffffffffffffffffff16815260200190815260200160002060008473ffffffffffffffffffffffffffffffffffffffff1673ffffffffffffffffffffffffffffffffffffffff16815260200190815260200160002060006101000a81548160ff0219169083151502179055508173ffffffffffffffffffffffffffffffffffffffff163373ffffffffffffffffffffffffffffffffffffffff167f17307eab39ab6107e8899845ad3d59bd9653f200f220920489ca2b5937696c3183604051610cfb91906128ce565b60405180910390a35050565b610d128484846107ca565b610d1e84848484611179565b610d2757600080fd5b50505050565b610d3681611290565b610d3f57600080fd5b610ddb60118054610d4f90612c6a565b80601f0160208091040260200160405190810160405280929190818152602001828054610d7b90612c6a565b8015610dc85780601f10610d9d57610100808354040283529160200191610dc8565b820191906000526020600020905b815481529060010190602001808311610dab57829003601f168201915b5050505050610dd683611302565b6114be565b601260008381526020019081526020016000209080519060200190610e019291906121c4565b5050565b6060610e1082611290565b610e1957600080fd5b601260008381526020019081526020016000208054610e3790612c6a565b80601f0160208091040260200160405190810160405280929190818152602001828054610e6390612c6a565b8015610eb05780601f10610e8557610100808354040283529160200191610eb0565b820191906000526020600020905b815481529060010190602001808311610e9357829003601f168201915b50505050509050919050565b6000600560008473ffffffffffffffffffffffffffffffffffffffff1673ffffffffffffffffffffffffffffffffffffffff16815260200190815260200160002060008373ffffffffffffffffffffffffffffffffffffffff1673ffffffffffffffffffffffffffffffffffffffff16815260200190815260200160002060009054906101000a900460ff16905092915050565b60008054906101000a900473ffffffffffffffffffffffffffffffffffffffff1673ffffffffffffffffffffffffffffffffffffffff163373ffffffffffffffffffffffffffffffffffffffff1614610fde576040517f08c379a0000000000000000000000000000000000000000000000000000000008152600401610fd5906129cb565b60405180910390fd5b600073ffffffffffffffffffffffffffffffffffffffff168173ffffffffffffffffffffffffffffffffffffffff16141561104e576040517f08c379a00000000000000000000000000000000000000000000000000000000081526004016110459061298b565b60405180910390fd5b806000806101000a81548173ffffffffffffffffffffffffffffffffffffffff021916908373ffffffffffffffffffffffffffffffffffffffff16021790555050565b60008061109d83610b1b565b90508073ffffffffffffffffffffffffffffffffffffffff168473ffffffffffffffffffffffffffffffffffffffff16148061110c57508373ffffffffffffffffffffffffffffffffffffffff166110f4846104e3565b73ffffffffffffffffffffffffffffffffffffffff16145b8061111d575061111c8185610ebc565b5b91505092915050565b611131838383611502565b61113b838261170c565b6111458282611984565b505050565b6111548282611a48565b61115e8282611984565b61116781611bc3565b5050565b600081600001549050919050565b600061119a8473ffffffffffffffffffffffffffffffffffffffff16611c0c565b6111a75760019050611288565b60008473ffffffffffffffffffffffffffffffffffffffff1663150b7a02868887876040518563ffffffff1660e01b81526004016111e89493929190612882565b602060405180830381600087803b15801561120257600080fd5b505af1158015611216573d6000803e3d6000fd5b505050506040513d601f19601f8201168201806040525081019061123a9190612681565b905063150b7a0260e01b7bffffffffffffffffffffffffffffffffffffffffffffffffffffffff1916817bffffffffffffffffffffffffffffffffffffffffffffffffffffffff1916149150505b949350505050565b6000806002600084815260200190815260200160002060009054906101000a900473ffffffffffffffffffffffffffffffffffffffff169050600073ffffffffffffffffffffffffffffffffffffffff168173ffffffffffffffffffffffffffffffffffffffff161415915050919050565b6060600082141561134a576040518060400160405280600181526020017f300000000000000000000000000000000000000000000000000000000000000081525090506114b9565b600082905060005b6000821461137c57808061136590612ccd565b915050600a826113759190612b1b565b9150611352565b60008167ffffffffffffffff8111156113be577f4e487b7100000000000000000000000000000000000000000000000000000000600052604160045260246000fd5b6040519080825280601f01601f1916602001820160405280156113f05781602001600182028036833780820191505090505b50905060006001836114029190612b4c565b90505b600086146114b157600a8661141a9190612d16565b60306114269190612ac5565b60f81b82828061143590612c40565b93508151811061146e577f4e487b7100000000000000000000000000000000000000000000000000000000600052603260045260246000fd5b60200101907effffffffffffffffffffffffffffffffffffffffffffffffffffffffffffff1916908160001a905350600a866114aa9190612b1b565b9550611405565b819450505050505b919050565b60606114fa8383604051806020016040528060008152506040518060200160405280600081525060405180602001604052806000815250611c1f565b905092915050565b61150b81610b1b565b73ffffffffffffffffffffffffffffffffffffffff168373ffffffffffffffffffffffffffffffffffffffff1614611578576040517f08c379a000000000000000000000000000000000000000000000000000000000815260040161156f9061296b565b60405180910390fd5b600073ffffffffffffffffffffffffffffffffffffffff168273ffffffffffffffffffffffffffffffffffffffff1614156115e8576040517f08c379a00000000000000000000000000000000000000000000000000000000081526004016115df9061294b565b60405180910390fd5b6003600082815260200190815260200160002060006101000a81549073ffffffffffffffffffffffffffffffffffffffff0219169055611665600460008573ffffffffffffffffffffffffffffffffffffffff1673ffffffffffffffffffffffffffffffffffffffff16815260200190815260200160002061213c565b6116ac600460008473ffffffffffffffffffffffffffffffffffffffff1673ffffffffffffffffffffffffffffffffffffffff168152602001908152602001600020612198565b808273ffffffffffffffffffffffffffffffffffffffff168473ffffffffffffffffffffffffffffffffffffffff167fddf252ad1be2c89b69c2b068fc378daa952ba7f163c4a11628f55a4df523b3ef60405160405180910390a4505050565b60006117646001600660008673ffffffffffffffffffffffffffffffffffffffff1673ffffffffffffffffffffffffffffffffffffffff168152602001908152602001600020805490506121ae90919063ffffffff16565b90506000600760008481526020019081526020016000205490508181146118ab576000600660008673ffffffffffffffffffffffffffffffffffffffff1673ffffffffffffffffffffffffffffffffffffffff16815260200190815260200160002083815481106117fe577f4e487b7100000000000000000000000000000000000000000000000000000000600052603260045260246000fd5b9060005260206000200154905080600660008773ffffffffffffffffffffffffffffffffffffffff1673ffffffffffffffffffffffffffffffffffffffff1681526020019081526020016000208381548110611883577f4e487b7100000000000000000000000000000000000000000000000000000000600052603260045260246000fd5b9060005260206000200181905550816007600083815260200190815260200160002081905550505b600660008573ffffffffffffffffffffffffffffffffffffffff1673ffffffffffffffffffffffffffffffffffffffff1681526020019081526020016000206001600660008773ffffffffffffffffffffffffffffffffffffffff1673ffffffffffffffffffffffffffffffffffffffff168152602001908152602001600020805490506119399190612b4c565b81548110611970577f4e487b7100000000000000000000000000000000000000000000000000000000600052603260045260246000fd5b906000526020600020016000905550505050565b600660008373ffffffffffffffffffffffffffffffffffffffff1673ffffffffffffffffffffffffffffffffffffffff168152602001908152602001600020805490506007600083815260200190815260200160002081905550600660008373ffffffffffffffffffffffffffffffffffffffff1673ffffffffffffffffffffffffffffffffffffffff1681526020019081526020016000208190806001815401808255809150506001900390600052602060002001600090919091909150555050565b611a5181611290565b158015611a8b5750600073ffffffffffffffffffffffffffffffffffffffff168273ffffffffffffffffffffffffffffffffffffffff1614155b611aca576040517f08c379a0000000000000000000000000000000000000000000000000000000008152600401611ac19061292b565b60405180910390fd5b816002600083815260200190815260200160002060006101000a81548173ffffffffffffffffffffffffffffffffffffffff021916908373ffffffffffffffffffffffffffffffffffffffff160217905550611b63600460008473ffffffffffffffffffffffffffffffffffffffff1673ffffffffffffffffffffffffffffffffffffffff168152602001908152602001600020612198565b808273ffffffffffffffffffffffffffffffffffffffff16600073ffffffffffffffffffffffffffffffffffffffff167fddf252ad1be2c89b69c2b068fc378daa952ba7f163c4a11628f55a4df523b3ef60405160405180910390a45050565b6008805490506009600083815260200190815260200160002081905550600881908060018154018082558091505060019003906000526020600020016000909190919091505550565b600080823b905060008111915050919050565b606060008690506000869050600086905060008690506000869050600081518351855187518951611c509190612ac5565b611c5a9190612ac5565b611c649190612ac5565b611c6e9190612ac5565b67ffffffffffffffff811115611cad577f4e487b7100000000000000000000000000000000000000000000000000000000600052604160045260246000fd5b6040519080825280601f01601f191660200182016040528015611cdf5781602001600182028036833780820191505090505b5090506000819050600080600090505b8851811015611dc357888181518110611d31577f4e487b7100000000000000000000000000000000000000000000000000000000600052603260045260246000fd5b602001015160f81c60f81b838380611d4890612ccd565b945081518110611d81577f4e487b7100000000000000000000000000000000000000000000000000000000600052603260045260246000fd5b60200101907effffffffffffffffffffffffffffffffffffffffffffffffffffffffffffff1916908160001a9053508080611dbb90612ccd565b915050611cef565b600090505b8751811015611e9c57878181518110611e0a577f4e487b7100000000000000000000000000000000000000000000000000000000600052603260045260246000fd5b602001015160f81c60f81b838380611e2190612ccd565b945081518110611e5a577f4e487b7100000000000000000000000000000000000000000000000000000000600052603260045260246000fd5b60200101907effffffffffffffffffffffffffffffffffffffffffffffffffffffffffffff1916908160001a9053508080611e9490612ccd565b915050611dc8565b600090505b8651811015611f7557868181518110611ee3577f4e487b7100000000000000000000000000000000000000000000000000000000600052603260045260246000fd5b602001015160f81c60f81b838380611efa90612ccd565b945081518110611f33577f4e487b7100000000000000000000000000000000000000000000000000000000600052603260045260246000fd5b60200101907effffffffffffffffffffffffffffffffffffffffffffffffffffffffffffff1916908160001a9053508080611f6d90612ccd565b915050611ea1565b600090505b855181101561204e57858181518110611fbc577f4e487b7100000000000000000000000000000000000000000000000000000000600052603260045260246000fd5b602001015160f81c60f81b838380611fd390612ccd565b94508151811061200c577f4e487b7100000000000000000000000000000000000000000000000000000000600052603260045260246000fd5b60200101907effffffffffffffffffffffffffffffffffffffffffffffffffffffffffffff1916908160001a905350808061204690612ccd565b915050611f7a565b600090505b845181101561212757848181518110612095577f4e487b7100000000000000000000000000000000000000000000000000000000600052603260045260246000fd5b602001015160f81c60f81b8383806120ac90612ccd565b9450815181106120e5577f4e487b7100000000000000000000000000000000000000000000000000000000600052603260045260246000fd5b60200101907effffffffffffffffffffffffffffffffffffffffffffffffffffffffffffff1916908160001a905350808061211f90612ccd565b915050612053565b82995050505050505050505095945050505050565b60008160000154905060008111612188576040517f08c379a000000000000000000000000000000000000000000000000000000000815260040161217f9061290b565b60405180910390fd5b6001810382600001819055505050565b6001816000016000828254019250508190555050565b600081836121bc9190612b4c565b905092915050565b8280546121d090612c6a565b90600052602060002090601f0160209004810192826121f25760008555612239565b82601f1061220b57805160ff1916838001178555612239565b82800160010185558215612239579182015b8281111561223857825182559160200191906001019061221d565b5b509050612246919061224a565b5090565b5b8082111561226357600081600090555060010161224b565b5090565b600061227a61227584612a2b565b612a06565b90508281526020810184848401111561229257600080fd5b61229d848285612bfe565b509392505050565b60006122b86122b384612a5c565b612a06565b9050828152602081018484840111156122d057600080fd5b6122db848285612bfe565b509392505050565b6000813590506122f281612f59565b92915050565b60008135905061230781612f70565b92915050565b60008135905061231c81612f87565b92915050565b60008135905061233181612f9e565b92915050565b60008151905061234681612f9e565b92915050565b600082601f83011261235d57600080fd5b813561236d848260208601612267565b91505092915050565b600082601f83011261238757600080fd5b81356123978482602086016122a5565b91505092915050565b6000813590506123af81612fb5565b92915050565b6000602082840312156123c757600080fd5b60006123d5848285016122e3565b91505092915050565b600080604083850312156123f157600080fd5b60006123ff858286016122e3565b9250506020612410858286016122e3565b9150509250929050565b60008060006060848603121561242f57600080fd5b600061243d868287016122e3565b935050602061244e868287016122e3565b925050604061245f868287016123a0565b9150509250925092565b6000806000806080858703121561247f57600080fd5b600061248d878288016122e3565b945050602061249e878288016122e3565b93505060406124af878288016123a0565b925050606085013567ffffffffffffffff8111156124cc57600080fd5b6124d88782880161234c565b91505092959194509250565b600080604083850312156124f757600080fd5b6000612505858286016122e3565b9250506020612516858286016122f8565b9150509250929050565b6000806040838503121561253357600080fd5b6000612541858286016122e3565b9250506020612552858286016123a0565b9150509250929050565b60006020828403121561256e57600080fd5b600061257c848285016122f8565b91505092915050565b6000806040838503121561259857600080fd5b60006125a68582860161230d565b925050602083013567ffffffffffffffff8111156125c357600080fd5b6125cf85828601612376565b9150509250929050565b6000806000606084860312156125ee57600080fd5b60006125fc8682870161230d565b935050602084013567ffffffffffffffff81111561261957600080fd5b61262586828701612376565b925050604084013567ffffffffffffffff81111561264257600080fd5b61264e8682870161234c565b9150509250925092565b60006020828403121561266a57600080fd5b600061267884828501612322565b91505092915050565b60006020828403121561269357600080fd5b60006126a184828501612337565b91505092915050565b6000602082840312156126bc57600080fd5b60006126ca848285016123a0565b91505092915050565b6126dc81612b80565b82525050565b6126eb81612b92565b82525050565b60006126fc82612a8d565b6127068185612aa3565b9350612716818560208601612c0d565b61271f81612e03565b840191505092915050565b600061273582612a98565b61273f8185612ab4565b935061274f818560208601612c0d565b61275881612e03565b840191505092915050565b6000612770601b83612ab4565b915061277b82612e14565b602082019050919050565b6000612793601a83612ab4565b915061279e82612e3d565b602082019050919050565b60006127b6601983612ab4565b91506127c182612e66565b602082019050919050565b60006127d9601883612ab4565b91506127e482612e8f565b602082019050919050565b60006127fc601883612ab4565b915061280782612eb8565b602082019050919050565b600061281f602183612ab4565b915061282a82612ee1565b604082019050919050565b6000612842601483612ab4565b915061284d82612f30565b602082019050919050565b61286181612bf4565b82525050565b600060208201905061287c60008301846126d3565b92915050565b600060808201905061289760008301876126d3565b6128a460208301866126d3565b6128b16040830185612858565b81810360608301526128c381846126f1565b905095945050505050565b60006020820190506128e360008301846126e2565b92915050565b60006020820190508181036000830152612903818461272a565b905092915050565b6000602082019050818103600083015261292481612763565b9050919050565b6000602082019050818103600083015261294481612786565b9050919050565b60006020820190508181036000830152612964816127a9565b9050919050565b60006020820190508181036000830152612984816127cc565b9050919050565b600060208201905081810360008301526129a4816127ef565b9050919050565b600060208201905081810360008301526129c481612812565b9050919050565b600060208201905081810360008301526129e481612835565b9050919050565b6000602082019050612a006000830184612858565b92915050565b6000612a10612a21565b9050612a1c8282612c9c565b919050565b6000604051905090565b600067ffffffffffffffff821115612a4657612a45612dd4565b5b612a4f82612e03565b9050602081019050919050565b600067ffffffffffffffff821115612a7757612a76612dd4565b5b612a8082612e03565b9050602081019050919050565b600081519050919050565b600081519050919050565b600082825260208201905092915050565b600082825260208201905092915050565b6000612ad082612bf4565b9150612adb83612bf4565b9250827fffffffffffffffffffffffffffffffffffffffffffffffffffffffffffffffff03821115612b1057612b0f612d47565b5b828201905092915050565b6000612b2682612bf4565b9150612b3183612bf4565b925082612b4157612b40612d76565b5b828204905092915050565b6000612b5782612bf4565b9150612b6283612bf4565b925082821015612b7557612b74612d47565b5b828203905092915050565b6000612b8b82612bd4565b9050919050565b60008115159050919050565b6000819050919050565b60007fffffffff0000000000000000000000000000000000000000000000000000000082169050919050565b600073ffffffffffffffffffffffffffffffffffffffff82169050919050565b6000819050919050565b82818337600083830152505050565b60005b83811015612c2b578082015181840152602081019050612c10565b83811115612c3a576000848401525b50505050565b6000612c4b82612bf4565b91506000821415612c5f57612c5e612d47565b5b600182039050919050565b60006002820490506001821680612c8257607f821691505b60208210811415612c9657612c95612da5565b5b50919050565b612ca582612e03565b810181811067ffffffffffffffff82111715612cc457612cc3612dd4565b5b80604052505050565b6000612cd882612bf4565b91507fffffffffffffffffffffffffffffffffffffffffffffffffffffffffffffffff821415612d0b57612d0a612d47565b5b600182019050919050565b6000612d2182612bf4565b9150612d2c83612bf4565b925082612d3c57612d3b612d76565b5b828206905092915050565b7f4e487b7100000000000000000000000000000000000000000000000000000000600052601160045260246000fd5b7f4e487b7100000000000000000000000000000000000000000000000000000000600052601260045260246000fd5b7f4e487b7100000000000000000000000000000000000000000000000000000000600052602260045260246000fd5b7f4e487b7100000000000000000000000000000000000000000000000000000000600052604160045260246000fd5b6000601f19601f8301169050919050565b7f436f756e7465723a2064656372656d656e74206f766572666c6f770000000000600082015250565b7f696e76616c69642061646472657373206f7220746f6b656e4964000000000000600082015250565b7f696e76616c696420726563697069656e74206164647265737300000000000000600082015250565b7f66726f6d206d75737420626520746f6b656e206f776e65720000000000000000600082015250565b7f696e636f7272656374206164647265737320666f726d61740000000000000000600082015250565b7f726563697069656e74206d757374206e6f7420626520746f6b656e206f776e6560008201527f7200000000000000000000000000000000000000000000000000000000000000602082015250565b7f63616c6c6572206d757374206265206f776e6572000000000000000000000000600082015250565b612f6281612b80565b8114612f6d57600080fd5b50565b612f7981612b92565b8114612f8457600080fd5b50565b612f9081612b9e565b8114612f9b57600080fd5b50565b612fa781612ba8565b8114612fb257600080fd5b50565b612fbe81612bf4565b8114612fc957600080fd5b5056fea26469706673582212202f5f0a14526640fe9e94e8c5a44b2b140e8416e6eef311906711289562dccc8b64736f6c6343000801003368747470733a2f2f73332d75732d776573742d322e616d617a6f6e6177732e636f6d2f756461636974792d626c6f636b636861696e2f63617073746f6e652f",
  "immutableReferences": {},
  "source": "// SPDX-License-Identifier: LGPL-3.0-only\n// This file is LGPL3 Licensed\npragma solidity ^0.8.0;\n\nimport \"@openzeppelin/contracts/utils/Address.sol\";\nimport \"@openzeppelin/contracts/utils/Counters.sol\";\nimport \"@openzeppelin/contracts/utils/math/SafeMath.sol\";\nimport \"@openzeppelin/contracts/token/ERC721/IERC721Receiver.sol\";\nimport \"./Oraclize.sol\";\n\ncontract Ownable {\n  //  TODO's\n  //  1) create a private '_owner' variable of type address with a public getter function\n  address private _owner;\n\n  //  2) create an internal constructor that sets the _owner var to the creater of the contract\n  constructor() {\n    _owner = msg.sender;\n  }\n\n  //  3) create an 'onlyOwner' modifier that throws if called by any account other than the owner.\n  modifier onlyOwner() {\n    require(msg.sender == _owner, \"caller must be owner\");\n    _;\n  }\n  //  4) fill out the transferOwnership function\n  //  5) create an event that emits anytime ownerShip is transfered (including in the constructor)\n  event OwnershipTransferred(\n    address indexed oldOwner,\n    address indexed newOwner\n  );\n\n  function transferOwnership(address newOwner) public onlyOwner {\n    // TODO add functionality to transfer control of the contract to a newOwner.\n    // make sure the new owner is a real address\n    require(newOwner != address(0), \"incorrect address format\");\n    _owner = newOwner;\n  }\n\n  function isOwner(address _caller) public view returns (bool) {\n    return _owner == _caller;\n  }\n\n  function getOwner() public view returns (address) {\n    return _owner;\n  }\n}\n\n//  TODO's: Create a Pausable contract that inherits from the Ownable contract\ncontract Pausable is Ownable {\n  //  1) create a private '_paused' variable of type bool\n  bool private _paused;\n\n  //  2) create a public setter using the inherited onlyOwner modifier\n  function setPaused(bool isPaused) public onlyOwner {\n    _paused = isPaused;\n    if (_paused) {\n      emit Paused(msg.sender);\n    } else {\n      emit Unpaused(msg.sender);\n    }\n  }\n\n  //  3) create an internal constructor that sets the _paused variable to false\n  constructor() {\n    _paused = false;\n  }\n\n  //  4) create 'whenNotPaused' & 'paused' modifier that throws in the appropriate situation\n  modifier whenNotPaused() {\n    require(!_paused, \"contract is paused\");\n    _;\n  }\n  modifier paused() {\n    require(_paused, \"contract is not paused\");\n    _;\n  }\n  //  5) create a Paused & Unpaused event that emits the address that triggered the event\n  event Paused(address indexed caller);\n  event Unpaused(address indexed caller);\n}\n\nabstract contract ERC165 {\n  bytes4 private constant _INTERFACE_ID_ERC165 = 0x01ffc9a7;\n  /*\n   * 0x01ffc9a7 ===\n   *     bytes4(keccak256('supportsInterface(bytes4)'))\n   */\n\n  /**\n   * @dev a mapping of interface id to whether or not it's supported\n   */\n  mapping(bytes4 => bool) private _supportedInterfaces;\n\n  /**\n   * @dev A contract implementing SupportsInterfaceWithLookup\n   * implement ERC165 itself\n   */\n  constructor() {\n    _registerInterface(_INTERFACE_ID_ERC165);\n  }\n\n  /**\n   * @dev implement supportsInterface(bytes4) using a lookup table\n   */\n  function supportsInterface(bytes4 interfaceId) external view returns (bool) {\n    return _supportedInterfaces[interfaceId];\n  }\n\n  /**\n   * @dev internal method for registering an interface\n   */\n  function _registerInterface(bytes4 interfaceId) internal {\n    require(interfaceId != 0xffffffff);\n    _supportedInterfaces[interfaceId] = true;\n  }\n}\n\ncontract ERC721 is Ownable, Pausable, ERC165 {\n  event Transfer(\n    address indexed from,\n    address indexed to,\n    uint256 indexed tokenId\n  );\n\n  event Approval(\n    address indexed owner,\n    address indexed approved,\n    uint256 indexed tokenId\n  );\n\n  event ApprovalForAll(\n    address indexed owner,\n    address indexed operator,\n    bool approved\n  );\n\n  using SafeMath for uint256;\n  using Address for address;\n  using Counters for Counters.Counter;\n\n  // Equals to `bytes4(keccak256(\"onERC721Received(address,address,uint256,bytes)\"))`\n  // which can be also obtained as `IERC721Receiver(0).onERC721Received.selector`\n  bytes4 private constant _ERC721_RECEIVED = 0x150b7a02;\n\n  // Mapping from token ID to owner\n  mapping(uint256 => address) private _tokenOwner;\n\n  // Mapping from token ID to approved address\n  mapping(uint256 => address) private _tokenApprovals;\n\n  // Mapping from owner to number of owned token\n  // IMPORTANT: this mapping uses Counters lib which is used to protect overflow when incrementing/decrementing a uint\n  // use the following functions when interacting with Counters: increment(), decrement(), and current() to get the value\n  // see: https://github.com/OpenZeppelin/openzeppelin-solidity/blob/master/contracts/drafts/Counters.sol\n  mapping(address => Counters.Counter) private _ownedTokensCount;\n\n  // Mapping from owner to operator approvals\n  mapping(address => mapping(address => bool)) private _operatorApprovals;\n\n  bytes4 private constant _INTERFACE_ID_ERC721 = 0x80ac58cd;\n\n  constructor() Ownable() Pausable() {\n    // register the supported interfaces to conform to ERC721 via ERC165\n    _registerInterface(_INTERFACE_ID_ERC721);\n  }\n\n  function balanceOf(address owner) public view returns (uint256) {\n    // TODO return the token balance of given address\n    return _ownedTokensCount[owner].current();\n    // TIP: remember the functions to use for Counters. you can refresh yourself with the link above\n  }\n\n  function ownerOf(uint256 tokenId) public view returns (address) {\n    // TODO return the owner of the given tokenId\n    return _tokenOwner[tokenId];\n  }\n\n  //    @dev Approves another address to transfer the given token ID\n  function approve(address to, uint256 tokenId) public {\n    // TODO require the given address to not be the owner of the tokenId\n    address tokenOwner = ownerOf(tokenId);\n    require(to != tokenOwner, \"recipient must not be token owner\");\n    // TODO require the msg sender to be the owner of the contract or isApprovedForAll() to be true\n    require(isOwner(msg.sender) || isApprovedForAll(tokenOwner, msg.sender));\n    // TODO add 'to' address to token approvals\n    _tokenApprovals[tokenId] = msg.sender;\n    // TODO emit Approval Event\n    emit Approval(tokenOwner, to, tokenId);\n  }\n\n  function getApproved(uint256 tokenId) public view returns (address) {\n    // TODO return token approval if it exists\n    return _tokenApprovals[tokenId];\n  }\n\n  /**\n   * @dev Sets or unsets the approval of a given operator\n   * An operator is allowed to transfer all tokens of the sender on their behalf\n   * @param to operator address to set the approval\n   * @param approved representing the status of the approval to be set\n   */\n  function setApprovalForAll(address to, bool approved) public {\n    require(to != msg.sender);\n    _operatorApprovals[msg.sender][to] = approved;\n    emit ApprovalForAll(msg.sender, to, approved);\n  }\n\n  /**\n   * @dev Tells whether an operator is approved by a given owner\n   * @param owner owner address which you want to query the approval of\n   * @param operator operator address which you want to query the approval of\n   * @return bool whether the given operator is approved by the given owner\n   */\n  function isApprovedForAll(address owner, address operator)\n    public\n    view\n    returns (bool)\n  {\n    return _operatorApprovals[owner][operator];\n  }\n\n  function transferFrom(\n    address from,\n    address to,\n    uint256 tokenId\n  ) public {\n    require(_isApprovedOrOwner(msg.sender, tokenId));\n\n    _transferFrom(from, to, tokenId);\n  }\n\n  function safeTransferFrom(\n    address from,\n    address to,\n    uint256 tokenId\n  ) public {\n    safeTransferFrom(from, to, tokenId, \"\");\n  }\n\n  function safeTransferFrom(\n    address from,\n    address to,\n    uint256 tokenId,\n    bytes memory _data\n  ) public {\n    transferFrom(from, to, tokenId);\n    require(_checkOnERC721Received(from, to, tokenId, _data));\n  }\n\n  /**\n   * @dev Returns whether the specified token exists\n   * @param tokenId uint256 ID of the token to query the existence of\n   * @return bool whether the token exists\n   */\n  function _exists(uint256 tokenId) internal view returns (bool) {\n    address owner = _tokenOwner[tokenId];\n    return owner != address(0);\n  }\n\n  /**\n   * @dev Returns whether the given spender can transfer a given token ID\n   * @param spender address of the spender to query\n   * @param tokenId uint256 ID of the token to be transferred\n   * @return bool whether the msg.sender is approved for the given token ID,\n   * is an operator of the owner, or is the owner of the token\n   */\n  function _isApprovedOrOwner(address spender, uint256 tokenId)\n    internal\n    view\n    returns (bool)\n  {\n    address owner = ownerOf(tokenId);\n    return (spender == owner ||\n      getApproved(tokenId) == spender ||\n      isApprovedForAll(owner, spender));\n  }\n\n  // @dev Internal function to mint a new token\n  // TIP: remember the functions to use for Counters. you can refresh yourself with the link above\n  function _mint(address to, uint256 tokenId) internal virtual {\n    // TODO revert if given tokenId already exists or given address is invalid\n    require(\n      !_exists(tokenId) && to != address(0),\n      \"invalid address or tokenId\"\n    );\n    // TODO mint tokenId to given address & increase token count of owner\n    _tokenOwner[tokenId] = to;\n    _ownedTokensCount[to].increment();\n    // TODO emit Transfer event\n    emit Transfer(address(0), to, tokenId);\n  }\n\n  // @dev Internal function to transfer ownership of a given token ID to another address.\n  // TIP: remember the functions to use for Counters. you can refresh yourself with the link above\n  function _transferFrom(\n    address from,\n    address to,\n    uint256 tokenId\n  ) internal virtual {\n    // TODO: require from address is the owner of the given token\n    require(from == ownerOf(tokenId), \"from must be token owner\");\n    // TODO: require token is being transfered to valid address\n    require(to != address(0), \"invalid recipient address\");\n    // TODO: clear approval\n    delete _tokenApprovals[tokenId];\n    // TODO: update token counts & transfer ownership of the token ID\n    _ownedTokensCount[from].decrement();\n    _ownedTokensCount[to].increment();\n    // TODO: emit correct event\n    emit Transfer(from, to, tokenId);\n  }\n\n  /**\n   * @dev Internal function to invoke `onERC721Received` on a target address\n   * The call is not executed if the target address is not a contract\n   * @param from address representing the previous owner of the given token ID\n   * @param to target address that will receive the tokens\n   * @param tokenId uint256 ID of the token to be transferred\n   * @param _data bytes optional data to send along with the call\n   * @return bool whether the call correctly returned the expected magic value\n   */\n  function _checkOnERC721Received(\n    address from,\n    address to,\n    uint256 tokenId,\n    bytes memory _data\n  ) internal returns (bool) {\n    if (!to.isContract()) {\n      return true;\n    }\n\n    bytes4 retval = IERC721Receiver(to).onERC721Received(\n      to,\n      from,\n      tokenId,\n      _data\n    );\n    return (retval == _ERC721_RECEIVED);\n  }\n\n  // @dev Private function to clear current approval of a given token ID\n  function _clearApproval(uint256 tokenId) private {\n    if (_tokenApprovals[tokenId] != address(0)) {\n      _tokenApprovals[tokenId] = address(0);\n    }\n  }\n}\n\ncontract ERC721Enumerable is ERC165, ERC721 {\n  using SafeMath for uint256;\n  // Mapping from owner to list of owned token IDs\n  mapping(address => uint256[]) private _ownedTokens;\n\n  // Mapping from token ID to index of the owner tokens list\n  mapping(uint256 => uint256) private _ownedTokensIndex;\n\n  // Array with all token ids, used for enumeration\n  uint256[] private _allTokens;\n\n  // Mapping from token id to position in the allTokens array\n  mapping(uint256 => uint256) private _allTokensIndex;\n\n  bytes4 private constant _INTERFACE_ID_ERC721_ENUMERABLE = 0x780e9d63;\n\n  /*\n   * 0x780e9d63 ===\n   *     bytes4(keccak256('totalSupply()')) ^\n   *     bytes4(keccak256('tokenOfOwnerByIndex(address,uint256)')) ^\n   *     bytes4(keccak256('tokenByIndex(uint256)'))\n   */\n\n  /**\n   * @dev Constructor function\n   */\n  constructor() {\n    // register the supported interface to conform to ERC721Enumerable via ERC165\n    _registerInterface(_INTERFACE_ID_ERC721_ENUMERABLE);\n  }\n\n  /**\n   * @dev Gets the token ID at a given index of the tokens list of the requested owner\n   * @param owner address owning the tokens list to be accessed\n   * @param index uint256 representing the index to be accessed of the requested tokens list\n   * @return uint256 token ID at the given index of the tokens list owned by the requested address\n   */\n  function tokenOfOwnerByIndex(address owner, uint256 index)\n    public\n    view\n    returns (uint256)\n  {\n    require(index < balanceOf(owner));\n    return _ownedTokens[owner][index];\n  }\n\n  /**\n   * @dev Gets the total amount of tokens stored by the contract\n   * @return uint256 representing the total amount of tokens\n   */\n  function totalSupply() public view returns (uint256) {\n    return _allTokens.length;\n  }\n\n  /**\n   * @dev Gets the token ID at a given index of all the tokens in this contract\n   * Reverts if the index is greater or equal to the total number of tokens\n   * @param index uint256 representing the index to be accessed of the tokens list\n   * @return uint256 token ID at the given index of the tokens list\n   */\n  function tokenByIndex(uint256 index) public view returns (uint256) {\n    require(index < totalSupply());\n    return _allTokens[index];\n  }\n\n  /**\n   * @dev Internal function to transfer ownership of a given token ID to another address.\n   * As opposed to transferFrom, this imposes no restrictions on msg.sender.\n   * @param from current owner of the token\n   * @param to address to receive the ownership of the given token ID\n   * @param tokenId uint256 ID of the token to be transferred\n   */\n  function _transferFrom(\n    address from,\n    address to,\n    uint256 tokenId\n  ) internal override {\n    super._transferFrom(from, to, tokenId);\n\n    _removeTokenFromOwnerEnumeration(from, tokenId);\n\n    _addTokenToOwnerEnumeration(to, tokenId);\n  }\n\n  /**\n   * @dev Internal function to mint a new token\n   * Reverts if the given token ID already exists\n   * @param to address the beneficiary that will own the minted token\n   * @param tokenId uint256 ID of the token to be minted\n   */\n  function _mint(address to, uint256 tokenId) internal override {\n    super._mint(to, tokenId);\n\n    _addTokenToOwnerEnumeration(to, tokenId);\n\n    _addTokenToAllTokensEnumeration(tokenId);\n  }\n\n  /**\n   * @dev Gets the list of token IDs of the requested owner\n   * @param owner address owning the tokens\n   * @return uint256[] List of token IDs owned by the requested address\n   */\n  function _tokensOfOwner(address owner)\n    internal\n    view\n    returns (uint256[] storage)\n  {\n    return _ownedTokens[owner];\n  }\n\n  /**\n   * @dev Private function to add a token to this extension's ownership-tracking data structures.\n   * @param to address representing the new owner of the given token ID\n   * @param tokenId uint256 ID of the token to be added to the tokens list of the given address\n   */\n  function _addTokenToOwnerEnumeration(address to, uint256 tokenId) private {\n    _ownedTokensIndex[tokenId] = _ownedTokens[to].length;\n    _ownedTokens[to].push(tokenId);\n  }\n\n  /**\n   * @dev Private function to add a token to this extension's token tracking data structures.\n   * @param tokenId uint256 ID of the token to be added to the tokens list\n   */\n  function _addTokenToAllTokensEnumeration(uint256 tokenId) private {\n    _allTokensIndex[tokenId] = _allTokens.length;\n    _allTokens.push(tokenId);\n  }\n\n  /**\n   * @dev Private function to remove a token from this extension's ownership-tracking data structures. Note that\n   * while the token is not assigned a new owner, the _ownedTokensIndex mapping is _not_ updated: this allows for\n   * gas optimizations e.g. when performing a transfer operation (avoiding double writes).\n   * This has O(1) time complexity, but alters the order of the _ownedTokens array.\n   * @param from address representing the previous owner of the given token ID\n   * @param tokenId uint256 ID of the token to be removed from the tokens list of the given address\n   */\n  function _removeTokenFromOwnerEnumeration(address from, uint256 tokenId)\n    private\n  {\n    // To prevent a gap in from's tokens array, we store the last token in the index of the token to delete, and\n    // then delete the last slot (swap and pop).\n\n    uint256 lastTokenIndex = _ownedTokens[from].length.sub(1);\n    uint256 tokenIndex = _ownedTokensIndex[tokenId];\n\n    // When the token to delete is the last token, the swap operation is unnecessary\n    if (tokenIndex != lastTokenIndex) {\n      uint256 lastTokenId = _ownedTokens[from][lastTokenIndex];\n\n      _ownedTokens[from][tokenIndex] = lastTokenId; // Move the last token to the slot of the to-delete token\n      _ownedTokensIndex[lastTokenId] = tokenIndex; // Update the moved token's index\n    }\n\n    // This also deletes the contents at the last position of the array\n    delete _ownedTokens[from][_ownedTokens[from].length - 1];\n\n    // Note that _ownedTokensIndex[tokenId] hasn't been cleared: it still points to the old slot (now occupied by\n    // lastTokenId, or just over the end of the array if the token was the last one).\n  }\n\n  /**\n   * @dev Private function to remove a token from this extension's token tracking data structures.\n   * This has O(1) time complexity, but alters the order of the _allTokens array.\n   * @param tokenId uint256 ID of the token to be removed from the tokens list\n   */\n  function _removeTokenFromAllTokensEnumeration(uint256 tokenId) private {\n    // To prevent a gap in the tokens array, we store the last token in the index of the token to delete, and\n    // then delete the last slot (swap and pop).\n\n    uint256 lastTokenIndex = _allTokens.length.sub(1);\n    uint256 tokenIndex = _allTokensIndex[tokenId];\n\n    // When the token to delete is the last token, the swap operation is unnecessary. However, since this occurs so\n    // rarely (when the last minted token is burnt) that we still do the swap here to avoid the gas cost of adding\n    // an 'if' statement (like in _removeTokenFromOwnerEnumeration)\n    uint256 lastTokenId = _allTokens[lastTokenIndex];\n\n    _allTokens[tokenIndex] = lastTokenId; // Move the last token to the slot of the to-delete token\n    _allTokensIndex[lastTokenId] = tokenIndex; // Update the moved token's index\n\n    // This also deletes the contents at the last position of the array\n    delete _allTokens[_allTokens.length - 1];\n    _allTokensIndex[tokenId] = 0;\n  }\n}\n\ncontract ERC721Metadata is ERC721Enumerable, usingProvable {\n  // TODO: Create private vars for token _name, _symbol, and _baseTokenURI (string)\n  string private _name;\n  string private _symbol;\n  string private _baseTokenURI;\n\n  // TODO: create private mapping of tokenId's to token uri's called '_tokenURIs'\n  mapping(uint256 => string) _tokenURIs;\n\n  bytes4 private constant _INTERFACE_ID_ERC721_METADATA = 0x5b5e139f;\n\n  /*\n   * 0x5b5e139f ===\n   *     bytes4(keccak256('name()')) ^\n   *     bytes4(keccak256('symbol()')) ^\n   *     bytes4(keccak256('tokenURI(uint256)'))\n   */\n\n  constructor(\n    string memory name,\n    string memory symbol,\n    string memory baseTokenURI\n  ) {\n    // TODO: set instance var values\n    _name = name;\n    _symbol = symbol;\n    _baseTokenURI = baseTokenURI;\n    _registerInterface(_INTERFACE_ID_ERC721_METADATA);\n  }\n\n  // TODO: create external getter functions for name, symbol, and baseTokenURI\n\n  function tokenURI(uint256 tokenId) external view returns (string memory) {\n    require(_exists(tokenId));\n    return _tokenURIs[tokenId];\n  }\n\n  // TODO: Create an internal function to set the tokenURI of a specified tokenId\n  // It should be the _baseTokenURI + the tokenId in string form\n  // TIP #1: use strConcat() from the imported oraclizeAPI lib to set the complete token URI\n  // TIP #2: you can also use uint2str() to convert a uint to a string\n  // see https://github.com/oraclize/ethereum-api/blob/master/oraclizeAPI_0.5.sol for strConcat()\n  // require the token exists before setting\n  function setTokenURI(uint256 tokenId) external {\n    require(_exists(tokenId));\n    _tokenURIs[tokenId] = strConcat(_baseTokenURI, uint2str(tokenId));\n  }\n}\n\n//  TODO's: Create CustomERC721Token contract that inherits from the ERC721Metadata contract. You can name this contract as you please\n//  1) Pass in appropriate values for the inherited ERC721Metadata contract\n//      - make the base token uri: https://s3-us-west-2.amazonaws.com/udacity-blockchain/capstone/\ncontract CustomERC721Token is ERC721Metadata {\n  constructor()\n    ERC721Metadata(\n      \"Real Token\",\n      \"REAL\",\n      \"https://s3-us-west-2.amazonaws.com/udacity-blockchain/capstone/\"\n    )\n  {}\n\n  //  2) create a public mint() that does the following:\n  //      -can only be executed by the contract owner\n  //      -takes in a 'to' address, tokenId, and tokenURI as parameters\n  //      -returns a true boolean upon completion of the function\n  //      -calls the superclass mint and setTokenURI functions\n\n  function mint(address to, uint256 tokenId) public onlyOwner returns (bool) {\n    _mint(to, tokenId);\n    this.setTokenURI(tokenId);\n    return true;\n  }\n}\n",
  "sourcePath": "/home/bzzzpy/Documents/Blockchain-Capstone/eth-contracts/contracts/ERC721Mintable.sol",
  "compiler": {
    "name": "solc",
    "version": "0.8.1+commit.df193b15.Emscripten.clang"
  },
  "schemaVersion": "3.4.3",
  "updatedAt": "2021-09-03T07:18:32.318Z",
  "devdoc": {
    "kind": "dev",
    "methods": {
      "__callback(bytes32,string)": {
        "details": "The following `__callback` functions are just placeholders ideally      meant to be defined in child contract when proofs are used.      The function bodies simply silence compiler warnings."
      },
      "isApprovedForAll(address,address)": {
        "details": "Tells whether an operator is approved by a given owner",
        "params": {
          "operator": "operator address which you want to query the approval of",
          "owner": "owner address which you want to query the approval of"
        },
        "returns": {
          "_0": "bool whether the given operator is approved by the given owner"
        }
      },
      "setApprovalForAll(address,bool)": {
        "details": "Sets or unsets the approval of a given operator An operator is allowed to transfer all tokens of the sender on their behalf",
        "params": {
          "approved": "representing the status of the approval to be set",
          "to": "operator address to set the approval"
        }
      },
      "supportsInterface(bytes4)": {
        "details": "implement supportsInterface(bytes4) using a lookup table"
      },
      "tokenByIndex(uint256)": {
        "details": "Gets the token ID at a given index of all the tokens in this contract Reverts if the index is greater or equal to the total number of tokens",
        "params": {
          "index": "uint256 representing the index to be accessed of the tokens list"
        },
        "returns": {
          "_0": "uint256 token ID at the given index of the tokens list"
        }
      },
      "tokenOfOwnerByIndex(address,uint256)": {
        "details": "Gets the token ID at a given index of the tokens list of the requested owner",
        "params": {
          "index": "uint256 representing the index to be accessed of the requested tokens list",
          "owner": "address owning the tokens list to be accessed"
        },
        "returns": {
          "_0": "uint256 token ID at the given index of the tokens list owned by the requested address"
        }
      },
      "totalSupply()": {
        "details": "Gets the total amount of tokens stored by the contract",
        "returns": {
          "_0": "uint256 representing the total amount of tokens"
        }
      }
    },
    "version": 1
  },
  "userdoc": {
    "kind": "user",
    "methods": {},
    "version": 1
  }
}