{
  "contractName": "SolnSquareVerifier",
  "abi": [
    {
      "constant": true,
      "inputs": [
        {
          "name": "interfaceId",
          "type": "bytes4"
        }
      ],
      "name": "supportsInterface",
      "outputs": [
        {
          "name": "",
          "type": "bool"
        }
      ],
      "payable": false,
      "stateMutability": "view",
      "type": "function"
    },
    {
      "constant": true,
      "inputs": [],
      "name": "name",
      "outputs": [
        {
          "name": "",
          "type": "string"
        }
      ],
      "payable": false,
      "stateMutability": "view",
      "type": "function"
    },
    {
      "constant": true,
      "inputs": [
        {
          "name": "tokenId",
          "type": "uint256"
        }
      ],
      "name": "getApproved",
      "outputs": [
        {
          "name": "",
          "type": "address"
        }
      ],
      "payable": false,
      "stateMutability": "view",
      "type": "function"
    },
    {
      "constant": false,
      "inputs": [
        {
          "name": "to",
          "type": "address"
        },
        {
          "name": "tokenId",
          "type": "uint256"
        }
      ],
      "name": "approve",
      "outputs": [],
      "payable": false,
      "stateMutability": "nonpayable",
      "type": "function"
    },
    {
      "constant": false,
      "inputs": [
        {
          "name": "paused",
          "type": "bool"
        }
      ],
      "name": "setPaused",
      "outputs": [],
      "payable": false,
      "stateMutability": "nonpayable",
      "type": "function"
    },
    {
      "constant": true,
      "inputs": [],
      "name": "totalSupply",
      "outputs": [
        {
          "name": "",
          "type": "uint256"
        }
      ],
      "payable": false,
      "stateMutability": "view",
      "type": "function"
    },
    {
      "constant": false,
      "inputs": [
        {
          "name": "from",
          "type": "address"
        },
        {
          "name": "to",
          "type": "address"
        },
        {
          "name": "tokenId",
          "type": "uint256"
        }
      ],
      "name": "transferFrom",
      "outputs": [],
      "payable": false,
      "stateMutability": "nonpayable",
      "type": "function"
    },
    {
      "constant": false,
      "inputs": [
        {
          "name": "_myid",
          "type": "bytes32"
        },
        {
          "name": "_result",
          "type": "string"
        }
      ],
      "name": "__callback",
      "outputs": [],
      "payable": false,
      "stateMutability": "nonpayable",
      "type": "function"
    },
    {
      "constant": true,
      "inputs": [
        {
          "name": "_caller",
          "type": "address"
        }
      ],
      "name": "isOwner",
      "outputs": [
        {
          "name": "",
          "type": "bool"
        }
      ],
      "payable": false,
      "stateMutability": "view",
      "type": "function"
    },
    {
      "constant": true,
      "inputs": [
        {
          "name": "owner",
          "type": "address"
        },
        {
          "name": "index",
          "type": "uint256"
        }
      ],
      "name": "tokenOfOwnerByIndex",
      "outputs": [
        {
          "name": "",
          "type": "uint256"
        }
      ],
      "payable": false,
      "stateMutability": "view",
      "type": "function"
    },
    {
      "constant": false,
      "inputs": [
        {
          "name": "_myid",
          "type": "bytes32"
        },
        {
          "name": "_result",
          "type": "string"
        },
        {
          "name": "_proof",
          "type": "bytes"
        }
      ],
      "name": "__callback",
      "outputs": [],
      "payable": false,
      "stateMutability": "nonpayable",
      "type": "function"
    },
    {
      "constant": false,
      "inputs": [
        {
          "name": "to",
          "type": "address"
        },
        {
          "name": "tokenId",
          "type": "uint256"
        }
      ],
      "name": "mint",
      "outputs": [
        {
          "name": "",
          "type": "bool"
        }
      ],
      "payable": false,
      "stateMutability": "nonpayable",
      "type": "function"
    },
    {
      "constant": false,
      "inputs": [
        {
          "name": "from",
          "type": "address"
        },
        {
          "name": "to",
          "type": "address"
        },
        {
          "name": "tokenId",
          "type": "uint256"
        }
      ],
      "name": "safeTransferFrom",
      "outputs": [],
      "payable": false,
      "stateMutability": "nonpayable",
      "type": "function"
    },
    {
      "constant": true,
      "inputs": [
        {
          "components": [
            {
              "components": [
                {
                  "name": "X",
                  "type": "uint256"
                },
                {
                  "name": "Y",
                  "type": "uint256"
                }
              ],
              "name": "a",
              "type": "tuple"
            },
            {
              "components": [
                {
                  "name": "X",
                  "type": "uint256[2]"
                },
                {
                  "name": "Y",
                  "type": "uint256[2]"
                }
              ],
              "name": "b",
              "type": "tuple"
            },
            {
              "components": [
                {
                  "name": "X",
                  "type": "uint256"
                },
                {
                  "name": "Y",
                  "type": "uint256"
                }
              ],
              "name": "c",
              "type": "tuple"
            }
          ],
          "name": "proof",
          "type": "tuple"
        },
        {
          "name": "input",
          "type": "uint256[2]"
        }
      ],
      "name": "verifyTx",
      "outputs": [
        {
          "name": "r",
          "type": "bool"
        }
      ],
      "payable": false,
      "stateMutability": "view",
      "type": "function"
    },
    {
      "constant": true,
      "inputs": [
        {
          "name": "index",
          "type": "uint256"
        }
      ],
      "name": "tokenByIndex",
      "outputs": [
        {
          "name": "",
          "type": "uint256"
        }
      ],
      "payable": false,
      "stateMutability": "view",
      "type": "function"
    },
    {
      "constant": true,
      "inputs": [
        {
          "name": "tokenId",
          "type": "uint256"
        }
      ],
      "name": "ownerOf",
      "outputs": [
        {
          "name": "",
          "type": "address"
        }
      ],
      "payable": false,
      "stateMutability": "view",
      "type": "function"
    },
    {
      "constant": true,
      "inputs": [
        {
          "name": "owner",
          "type": "address"
        }
      ],
      "name": "balanceOf",
      "outputs": [
        {
          "name": "",
          "type": "uint256"
        }
      ],
      "payable": false,
      "stateMutability": "view",
      "type": "function"
    },
    {
      "constant": true,
      "inputs": [],
      "name": "getOwner",
      "outputs": [
        {
          "name": "",
          "type": "address"
        }
      ],
      "payable": false,
      "stateMutability": "view",
      "type": "function"
    },
    {
      "constant": true,
      "inputs": [],
      "name": "symbol",
      "outputs": [
        {
          "name": "",
          "type": "string"
        }
      ],
      "payable": false,
      "stateMutability": "view",
      "type": "function"
    },
    {
      "constant": false,
      "inputs": [
        {
          "name": "to",
          "type": "address"
        },
        {
          "name": "approved",
          "type": "bool"
        }
      ],
      "name": "setApprovalForAll",
      "outputs": [],
      "payable": false,
      "stateMutability": "nonpayable",
      "type": "function"
    },
    {
      "constant": false,
      "inputs": [
        {
          "name": "from",
          "type": "address"
        },
        {
          "name": "to",
          "type": "address"
        },
        {
          "name": "tokenId",
          "type": "uint256"
        },
        {
          "name": "_data",
          "type": "bytes"
        }
      ],
      "name": "safeTransferFrom",
      "outputs": [],
      "payable": false,
      "stateMutability": "nonpayable",
      "type": "function"
    },
    {
      "constant": false,
      "inputs": [
        {
          "name": "tokenId",
          "type": "uint256"
        }
      ],
      "name": "setTokenURI",
      "outputs": [],
      "payable": false,
      "stateMutability": "nonpayable",
      "type": "function"
    },
    {
      "constant": true,
      "inputs": [
        {
          "name": "tokenId",
          "type": "uint256"
        }
      ],
      "name": "tokenURI",
      "outputs": [
        {
          "name": "",
          "type": "string"
        }
      ],
      "payable": false,
      "stateMutability": "view",
      "type": "function"
    },
    {
      "constant": true,
      "inputs": [
        {
          "name": "owner",
          "type": "address"
        },
        {
          "name": "operator",
          "type": "address"
        }
      ],
      "name": "isApprovedForAll",
      "outputs": [
        {
          "name": "",
          "type": "bool"
        }
      ],
      "payable": false,
      "stateMutability": "view",
      "type": "function"
    },
    {
      "constant": false,
      "inputs": [
        {
          "name": "newOwner",
          "type": "address"
        }
      ],
      "name": "transferOwnership",
      "outputs": [],
      "payable": false,
      "stateMutability": "nonpayable",
      "type": "function"
    },
    {
      "anonymous": false,
      "inputs": [
        {
          "indexed": true,
          "name": "index",
          "type": "bytes32"
        },
        {
          "indexed": true,
          "name": "caller",
          "type": "address"
        }
      ],
      "name": "SolutionAdded",
      "type": "event"
    },
    {
      "anonymous": false,
      "inputs": [
        {
          "indexed": true,
          "name": "from",
          "type": "address"
        },
        {
          "indexed": true,
          "name": "to",
          "type": "address"
        },
        {
          "indexed": true,
          "name": "tokenId",
          "type": "uint256"
        }
      ],
      "name": "Transfer",
      "type": "event"
    },
    {
      "anonymous": false,
      "inputs": [
        {
          "indexed": true,
          "name": "owner",
          "type": "address"
        },
        {
          "indexed": true,
          "name": "approved",
          "type": "address"
        },
        {
          "indexed": true,
          "name": "tokenId",
          "type": "uint256"
        }
      ],
      "name": "Approval",
      "type": "event"
    },
    {
      "anonymous": false,
      "inputs": [
        {
          "indexed": true,
          "name": "owner",
          "type": "address"
        },
        {
          "indexed": true,
          "name": "operator",
          "type": "address"
        },
        {
          "indexed": false,
          "name": "approved",
          "type": "bool"
        }
      ],
      "name": "ApprovalForAll",
      "type": "event"
    },
    {
      "anonymous": false,
      "inputs": [
        {
          "indexed": true,
          "name": "caller",
          "type": "address"
        }
      ],
      "name": "Paused",
      "type": "event"
    },
    {
      "anonymous": false,
      "inputs": [
        {
          "indexed": true,
          "name": "caller",
          "type": "address"
        }
      ],
      "name": "Unpaused",
      "type": "event"
    },
    {
      "anonymous": false,
      "inputs": [
        {
          "indexed": true,
          "name": "_oldOwner",
          "type": "address"
        },
        {
          "indexed": true,
          "name": "_newOwner",
          "type": "address"
        }
      ],
      "name": "OwnershipTransferred",
      "type": "event"
    },
    {
      "constant": false,
      "inputs": [
        {
          "components": [
            {
              "components": [
                {
                  "name": "X",
                  "type": "uint256"
                },
                {
                  "name": "Y",
                  "type": "uint256"
                }
              ],
              "name": "a",
              "type": "tuple"
            },
            {
              "components": [
                {
                  "name": "X",
                  "type": "uint256[2]"
                },
                {
                  "name": "Y",
                  "type": "uint256[2]"
                }
              ],
              "name": "b",
              "type": "tuple"
            },
            {
              "components": [
                {
                  "name": "X",
                  "type": "uint256"
                },
                {
                  "name": "Y",
                  "type": "uint256"
                }
              ],
              "name": "c",
              "type": "tuple"
            }
          ],
          "name": "proof",
          "type": "tuple"
        },
        {
          "name": "caller",
          "type": "address"
        }
      ],
      "name": "add",
      "outputs": [],
      "payable": false,
      "stateMutability": "nonpayable",
      "type": "function"
    },
    {
      "constant": false,
      "inputs": [
        {
          "components": [
            {
              "components": [
                {
                  "name": "X",
                  "type": "uint256"
                },
                {
                  "name": "Y",
                  "type": "uint256"
                }
              ],
              "name": "a",
              "type": "tuple"
            },
            {
              "components": [
                {
                  "name": "X",
                  "type": "uint256[2]"
                },
                {
                  "name": "Y",
                  "type": "uint256[2]"
                }
              ],
              "name": "b",
              "type": "tuple"
            },
            {
              "components": [
                {
                  "name": "X",
                  "type": "uint256"
                },
                {
                  "name": "Y",
                  "type": "uint256"
                }
              ],
              "name": "c",
              "type": "tuple"
            }
          ],
          "name": "proof",
          "type": "tuple"
        },
        {
          "name": "inputs",
          "type": "uint256[2]"
        }
      ],
      "name": "mintToken",
      "outputs": [],
      "payable": false,
      "stateMutability": "nonpayable",
      "type": "function"
    }
  ],
  "bytecode": "0x60806040526040518060400160405280600a81526020017f5265616c20546f6b656e000000000000000000000000000000000000000000008152506040518060400160405280600481526020017f5245414c000000000000000000000000000000000000000000000000000000008152506040518060600160405280603f8152602001620043f2603f9139336000806101000a81548173ffffffffffffffffffffffffffffffffffffffff021916908373ffffffffffffffffffffffffffffffffffffffff16021790555060008060146101000a81548160ff021916908315150217905550620000fc6301ffc9a760e01b6200019860201b60201c565b620001146380ac58cd60e01b6200019860201b60201c565b6200012c63780e9d6360e01b6200019860201b60201c565b82600f90805190602001906200014492919062000238565b5081601090805190602001906200015d92919062000238565b5080601190805190602001906200017692919062000238565b506200018f635b5e139f60e01b6200019860201b60201c565b505050620002e7565b63ffffffff60e01b817bffffffffffffffffffffffffffffffffffffffffffffffffffffffff19161415620001cc57600080fd5b6001806000837bffffffffffffffffffffffffffffffffffffffffffffffffffffffff19167bffffffffffffffffffffffffffffffffffffffffffffffffffffffff1916815260200190815260200160002060006101000a81548160ff02191690831515021790555050565b828054600181600116156101000203166002900490600052602060002090601f016020900481019282601f106200027b57805160ff1916838001178555620002ac565b82800160010185558215620002ac579182015b82811115620002ab5782518255916020019190600101906200028e565b5b509050620002bb9190620002bf565b5090565b620002e491905b80821115620002e0576000816000905550600101620002c6565b5090565b90565b6140fb80620002f76000396000f3fe608060405234801561001057600080fd5b50600436106101a95760003560e01c806343cd76fc116100f9578063a22cb46511610097578063c334c28811610071578063c334c288146104ee578063c87b56dd1461050a578063e985e9c51461053a578063f2fde38b1461056a576101a9565b8063a22cb4651461049a578063b88d4fde146104b6578063bff26126146104d2576101a9565b80636352211e116100d35780636352211e146103fe57806370a082311461042e578063893d20e81461045e57806395d89b411461047c576101a9565b806343cd76fc146103825780634f6ccce7146103b2578063534f7527146103e2576101a9565b806323b872dd116101665780632f745c59116101405780632f745c59146102ea57806338bbfa501461031a57806340c10f191461033657806342842e0e14610366576101a9565b806323b872dd1461028257806327dc297e1461029e5780632f54bf6e146102ba576101a9565b806301ffc9a7146101ae57806306fdde03146101de578063081812fc146101fc578063095ea7b31461022c57806316c38b3c1461024857806318160ddd14610264575b600080fd5b6101c860048036036101c39190810190613758565b610586565b6040516101d59190613ca5565b60405180910390f35b6101e66105ee565b6040516101f39190613cc0565b60405180910390f35b61021660048036036102119190810190613826565b610690565b6040516102239190613c3e565b60405180910390f35b61024660048036036102419190810190613620565b6106cd565b005b610262600480360361025d919081019061365c565b61081e565b005b61026c61095c565b6040516102799190613e29565b60405180910390f35b61029c6004803603610297919081019061351a565b610969565b005b6102b860048036036102b39190810190613685565b61098c565b005b6102d460048036036102cf91908101906134b5565b6109cf565b6040516102e19190613ca5565b60405180910390f35b61030460048036036102ff9190810190613620565b610a28565b6040516103119190613e29565b60405180910390f35b610334600480360361032f91908101906136d9565b610a9b565b005b610350600480360361034b9190810190613620565b610aa0565b60405161035d9190613ca5565b60405180910390f35b610380600480360361037b919081019061351a565b610bb0565b005b61039c600480360361039791908101906137e8565b610bd0565b6040516103a99190613ca5565b60405180910390f35b6103cc60048036036103c79190810190613826565b610c75565b6040516103d99190613e29565b60405180910390f35b6103fc60048036036103f791908101906137e8565b610ca9565b005b61041860048036036104139190810190613826565b610e36565b6040516104259190613c3e565b60405180910390f35b610448600480360361044391908101906134b5565b610e73565b6040516104559190613e29565b60405180910390f35b610466610ec3565b6040516104739190613c3e565b60405180910390f35b610484610eec565b6040516104919190613cc0565b60405180910390f35b6104b460048036036104af91908101906135e4565b610f8e565b005b6104d060048036036104cb9190810190613569565b6110c4565b005b6104ec60048036036104e79190810190613826565b6110ea565b005b610508600480360361050391908101906137aa565b6111d2565b005b610524600480360361051f9190810190613826565b611392565b6040516105319190613cc0565b60405180910390f35b610554600480360361054f91908101906134de565b611459565b6040516105619190613ca5565b60405180910390f35b610584600480360361057f91908101906134b5565b6114ed565b005b600060016000837bffffffffffffffffffffffffffffffffffffffffffffffffffffffff19167bffffffffffffffffffffffffffffffffffffffffffffffffffffffff1916815260200190815260200160002060009054906101000a900460ff169050919050565b6060600f8054600181600116156101000203166002900480601f0160208091040260200160405190810160405280929190818152602001828054600181600116156101000203166002900480156106865780601f1061065b57610100808354040283529160200191610686565b820191906000526020600020905b81548152906001019060200180831161066957829003601f168201915b5050505050905090565b60006003600083815260200190815260200160002060009054906101000a900473ffffffffffffffffffffffffffffffffffffffff169050919050565b60006106d882610e36565b90508073ffffffffffffffffffffffffffffffffffffffff168373ffffffffffffffffffffffffffffffffffffffff161415610749576040517f08c379a000000000000000000000000000000000000000000000000000000000815260040161074090613d82565b60405180910390fd5b610752336109cf565b8061076357506107628133611459565b5b61076c57600080fd5b336003600084815260200190815260200160002060006101000a81548173ffffffffffffffffffffffffffffffffffffffff021916908373ffffffffffffffffffffffffffffffffffffffff160217905550818373ffffffffffffffffffffffffffffffffffffffff168273ffffffffffffffffffffffffffffffffffffffff167f8c5be1e5ebec7d5bd14f71427d1e84f3dd0314c0f7b2291e5b200ac8c7c3b92560405160405180910390a4505050565b6000809054906101000a900473ffffffffffffffffffffffffffffffffffffffff1673ffffffffffffffffffffffffffffffffffffffff163373ffffffffffffffffffffffffffffffffffffffff16146108ad576040517f08c379a00000000000000000000000000000000000000000000000000000000081526004016108a490613dc2565b60405180910390fd5b80600060146101000a81548160ff0219169083151502179055508015610915573373ffffffffffffffffffffffffffffffffffffffff167f62e78cea01bee320cd4e420270b5ea74000d11b0c9f74754ebdbfc544b05a25860405160405180910390a2610959565b3373ffffffffffffffffffffffffffffffffffffffff167f5db9ee0a495bf2e6ff9c91a7834c1ba4fdd244a5e8aa4e537bd38aeae4b073aa60405160405180910390a25b50565b6000600880549050905090565b610973338261162f565b61097c57600080fd5b6109878383836116c4565b505050565b6109cb828260006040519080825280601f01601f1916602001820160405280156109c55781602001600182028038833980820191505090505b50610a9b565b5050565b60008173ffffffffffffffffffffffffffffffffffffffff166000809054906101000a900473ffffffffffffffffffffffffffffffffffffffff1673ffffffffffffffffffffffffffffffffffffffff16149050919050565b6000610a3383610e73565b8210610a3e57600080fd5b600660008473ffffffffffffffffffffffffffffffffffffffff1673ffffffffffffffffffffffffffffffffffffffff1681526020019081526020016000208281548110610a8857fe5b9060005260206000200154905092915050565b505050565b60008060009054906101000a900473ffffffffffffffffffffffffffffffffffffffff1673ffffffffffffffffffffffffffffffffffffffff163373ffffffffffffffffffffffffffffffffffffffff1614610b31576040517f08c379a0000000000000000000000000000000000000000000000000000000008152600401610b2890613dc2565b60405180910390fd5b610b3b83836116e8565b3073ffffffffffffffffffffffffffffffffffffffff1663bff26126836040518263ffffffff1660e01b8152600401610b749190613e29565b600060405180830381600087803b158015610b8e57600080fd5b505af1158015610ba2573d6000803e3d6000fd5b505050506001905092915050565b610bcb838383604051806020016040528060008152506110c4565b505050565b600060606002604051908082528060200260200182016040528015610c045781602001602082028038833980820191505090505b50905060008090505b6002811015610c4c57838160028110610c2257fe5b6020020151828281518110610c3357fe5b6020026020010181815250508080600101915050610c0d565b506000610c598286611709565b1415610c69576001915050610c6f565b60009150505b92915050565b6000610c7f61095c565b8210610c8a57600080fd5b60088281548110610c9757fe5b90600052602060002001549050919050565b813381604051602001610cbc9190613de2565b60405160208183030381529060405280519060200120601560008373ffffffffffffffffffffffffffffffffffffffff1673ffffffffffffffffffffffffffffffffffffffff168152602001908152602001600020600001541415610d56576040517f08c379a0000000000000000000000000000000000000000000000000000000008152600401610d4d90613da2565b60405180910390fd5b6000610d628585610bd0565b905080610da4576040517f08c379a0000000000000000000000000000000000000000000000000000000008152600401610d9b90613d42565b60405180910390fd5b3073ffffffffffffffffffffffffffffffffffffffff1663c334c28886336040518363ffffffff1660e01b8152600401610ddf929190613dfe565b600060405180830381600087803b158015610df957600080fd5b505af1158015610e0d573d6000803e3d6000fd5b50505050610e1b601361187b565b610e2e33610e296013611891565b610aa0565b505050505050565b60006002600083815260200190815260200160002060009054906101000a900473ffffffffffffffffffffffffffffffffffffffff169050919050565b6000610ebc600460008473ffffffffffffffffffffffffffffffffffffffff1673ffffffffffffffffffffffffffffffffffffffff168152602001908152602001600020611891565b9050919050565b60008060009054906101000a900473ffffffffffffffffffffffffffffffffffffffff16905090565b606060108054600181600116156101000203166002900480601f016020809104026020016040519081016040528092919081815260200182805460018160011615610100020316600290048015610f845780601f10610f5957610100808354040283529160200191610f84565b820191906000526020600020905b815481529060010190602001808311610f6757829003601f168201915b5050505050905090565b3373ffffffffffffffffffffffffffffffffffffffff168273ffffffffffffffffffffffffffffffffffffffff161415610fc757600080fd5b80600560003373ffffffffffffffffffffffffffffffffffffffff1673ffffffffffffffffffffffffffffffffffffffff16815260200190815260200160002060008473ffffffffffffffffffffffffffffffffffffffff1673ffffffffffffffffffffffffffffffffffffffff16815260200190815260200160002060006101000a81548160ff0219169083151502179055508173ffffffffffffffffffffffffffffffffffffffff163373ffffffffffffffffffffffffffffffffffffffff167f17307eab39ab6107e8899845ad3d59bd9653f200f220920489ca2b5937696c31836040516110b89190613ca5565b60405180910390a35050565b6110cf848484610969565b6110db8484848461189f565b6110e457600080fd5b50505050565b6110f3816119b6565b6110fc57600080fd5b6111a860118054600181600116156101000203166002900480601f0160208091040260200160405190810160405280929190818152602001828054600181600116156101000203166002900480156111955780601f1061116a57610100808354040283529160200191611195565b820191906000526020600020905b81548152906001019060200180831161117857829003601f168201915b50505050506111a383611a28565b611b55565b6012600083815260200190815260200160002090805190602001906111ce929190612f86565b5050565b6000826040516020016111e59190613de2565b604051602081830303815290604052805190602001209050611205613006565b60405180604001604052808381526020018473ffffffffffffffffffffffffffffffffffffffff168152509050601481908060018154018082558091505090600182039060005260206000209060020201600090919290919091506000820151816000015560208201518160010160006101000a81548173ffffffffffffffffffffffffffffffffffffffff021916908373ffffffffffffffffffffffffffffffffffffffff16021790555050505080601560008573ffffffffffffffffffffffffffffffffffffffff1673ffffffffffffffffffffffffffffffffffffffff1681526020019081526020016000206000820151816000015560208201518160010160006101000a81548173ffffffffffffffffffffffffffffffffffffffff021916908373ffffffffffffffffffffffffffffffffffffffff1602179055509050508273ffffffffffffffffffffffffffffffffffffffff16827f01d5f9f5a890e5385b4f1d07d3c8c1f739f82bb433ed461d4551b7af3edc634060405160405180910390a350505050565b606061139d826119b6565b6113a657600080fd5b601260008381526020019081526020016000208054600181600116156101000203166002900480601f01602080910402602001604051908101604052809291908181526020018280546001816001161561010002031660029004801561144d5780601f106114225761010080835404028352916020019161144d565b820191906000526020600020905b81548152906001019060200180831161143057829003601f168201915b50505050509050919050565b6000600560008473ffffffffffffffffffffffffffffffffffffffff1673ffffffffffffffffffffffffffffffffffffffff16815260200190815260200160002060008373ffffffffffffffffffffffffffffffffffffffff1673ffffffffffffffffffffffffffffffffffffffff16815260200190815260200160002060009054906101000a900460ff16905092915050565b6000809054906101000a900473ffffffffffffffffffffffffffffffffffffffff1673ffffffffffffffffffffffffffffffffffffffff163373ffffffffffffffffffffffffffffffffffffffff161461157c576040517f08c379a000000000000000000000000000000000000000000000000000000000815260040161157390613dc2565b60405180910390fd5b600073ffffffffffffffffffffffffffffffffffffffff168173ffffffffffffffffffffffffffffffffffffffff1614156115ec576040517f08c379a00000000000000000000000000000000000000000000000000000000081526004016115e390613d62565b60405180910390fd5b806000806101000a81548173ffffffffffffffffffffffffffffffffffffffff021916908373ffffffffffffffffffffffffffffffffffffffff16021790555050565b60008061163b83610e36565b90508073ffffffffffffffffffffffffffffffffffffffff168473ffffffffffffffffffffffffffffffffffffffff1614806116aa57508373ffffffffffffffffffffffffffffffffffffffff1661169284610690565b73ffffffffffffffffffffffffffffffffffffffff16145b806116bb57506116ba8185611459565b5b91505092915050565b6116cf838383611b99565b6116d98382611da3565b6116e38282611f41565b505050565b6116f28282612008565b6116fc8282611f41565b61170581612183565b5050565b6000807f30644e72e131a029b85045b68181585d2833e84879b9709143e1f593f00000019050611737613039565b61173f6121cf565b905080608001515160018651011461175657600080fd5b61175e613081565b6040518060400160405280600081526020016000815250905060008090505b86518110156117f4578387828151811061179357fe5b6020026020010151106117a557600080fd5b6117e5826117e0856080015160018501815181106117bf57fe5b60200260200101518a85815181106117d357fe5b602002602001015161261d565b6126af565b9150808060010191505061177d565b5061181781836080015160008151811061180a57fe5b60200260200101516126af565b905061185d8560000151866020015161182f84612760565b85604001516118418a60400151612760565b87606001516118538960000151612760565b89602001516127fa565b61186d5760019350505050611875565b600093505050505b92915050565b6001816000016000828254019250508190555050565b600081600001549050919050565b60006118c08473ffffffffffffffffffffffffffffffffffffffff1661295e565b6118cd57600190506119ae565b60008473ffffffffffffffffffffffffffffffffffffffff1663150b7a02868887876040518563ffffffff1660e01b815260040161190e9493929190613c59565b602060405180830381600087803b15801561192857600080fd5b505af115801561193c573d6000803e3d6000fd5b505050506040513d601f19601f820116820180604052506119609190810190613781565b905063150b7a0260e01b7bffffffffffffffffffffffffffffffffffffffffffffffffffffffff1916817bffffffffffffffffffffffffffffffffffffffffffffffffffffffff1916149150505b949350505050565b6000806002600084815260200190815260200160002060009054906101000a900473ffffffffffffffffffffffffffffffffffffffff169050600073ffffffffffffffffffffffffffffffffffffffff168173ffffffffffffffffffffffffffffffffffffffff161415915050919050565b60606000821415611a70576040518060400160405280600181526020017f30000000000000000000000000000000000000000000000000000000000000008152509050611b50565b600082905060005b60008214611a9a578080600101915050600a8281611a9257fe5b049150611a78565b6060816040519080825280601f01601f191660200182016040528015611acf5781602001600182028038833980820191505090505b50905060006001830390505b60008614611b4857600a8681611aed57fe5b0660300160f81b82828060019003935081518110611b0757fe5b60200101907effffffffffffffffffffffffffffffffffffffffffffffffffffffffffffff1916908160001a905350600a8681611b4057fe5b049550611adb565b819450505050505b919050565b6060611b9183836040518060200160405280600081525060405180602001604052806000815250604051806020016040528060008152506129a9565b905092915050565b611ba281610e36565b73ffffffffffffffffffffffffffffffffffffffff168373ffffffffffffffffffffffffffffffffffffffff1614611c0f576040517f08c379a0000000000000000000000000000000000000000000000000000000008152600401611c0690613d22565b60405180910390fd5b600073ffffffffffffffffffffffffffffffffffffffff168273ffffffffffffffffffffffffffffffffffffffff161415611c7f576040517f08c379a0000000000000000000000000000000000000000000000000000000008152600401611c7690613d02565b60405180910390fd5b6003600082815260200190815260200160002060006101000a81549073ffffffffffffffffffffffffffffffffffffffff0219169055611cfc600460008573ffffffffffffffffffffffffffffffffffffffff1673ffffffffffffffffffffffffffffffffffffffff168152602001908152602001600020612c6b565b611d43600460008473ffffffffffffffffffffffffffffffffffffffff1673ffffffffffffffffffffffffffffffffffffffff16815260200190815260200160002061187b565b808273ffffffffffffffffffffffffffffffffffffffff168473ffffffffffffffffffffffffffffffffffffffff167fddf252ad1be2c89b69c2b068fc378daa952ba7f163c4a11628f55a4df523b3ef60405160405180910390a4505050565b6000611dfb6001600660008673ffffffffffffffffffffffffffffffffffffffff1673ffffffffffffffffffffffffffffffffffffffff16815260200190815260200160002080549050612c8e90919063ffffffff16565b9050600060076000848152602001908152602001600020549050818114611ee8576000600660008673ffffffffffffffffffffffffffffffffffffffff1673ffffffffffffffffffffffffffffffffffffffff1681526020019081526020016000208381548110611e6857fe5b9060005260206000200154905080600660008773ffffffffffffffffffffffffffffffffffffffff1673ffffffffffffffffffffffffffffffffffffffff1681526020019081526020016000208381548110611ec057fe5b9060005260206000200181905550816007600083815260200190815260200160002081905550505b600660008573ffffffffffffffffffffffffffffffffffffffff1673ffffffffffffffffffffffffffffffffffffffff168152602001908152602001600020805480919060019003611f3a919061309b565b5050505050565b600660008373ffffffffffffffffffffffffffffffffffffffff1673ffffffffffffffffffffffffffffffffffffffff168152602001908152602001600020805490506007600083815260200190815260200160002081905550600660008373ffffffffffffffffffffffffffffffffffffffff1673ffffffffffffffffffffffffffffffffffffffff1681526020019081526020016000208190806001815401808255809150509060018203906000526020600020016000909192909190915055505050565b612011816119b6565b15801561204b5750600073ffffffffffffffffffffffffffffffffffffffff168273ffffffffffffffffffffffffffffffffffffffff1614155b61208a576040517f08c379a000000000000000000000000000000000000000000000000000000000815260040161208190613ce2565b60405180910390fd5b816002600083815260200190815260200160002060006101000a81548173ffffffffffffffffffffffffffffffffffffffff021916908373ffffffffffffffffffffffffffffffffffffffff160217905550612123600460008473ffffffffffffffffffffffffffffffffffffffff1673ffffffffffffffffffffffffffffffffffffffff16815260200190815260200160002061187b565b808273ffffffffffffffffffffffffffffffffffffffff16600073ffffffffffffffffffffffffffffffffffffffff167fddf252ad1be2c89b69c2b068fc378daa952ba7f163c4a11628f55a4df523b3ef60405160405180910390a45050565b6008805490506009600083815260200190815260200160002081905550600881908060018154018082558091505090600182039060005260206000200160009091929091909150555050565b6121d7613039565b60405180604001604052807f1b7f18a45b6782f74990163df46db86947bb91f473a9ab546ebff0e8f23be7e481526020017f166dad3fbdb4c14f6d9b7bc5a1360dc3f683c3c594543aebc048f84942c277e08152508160000181905250604051806040016040528060405180604001604052807f29baf936832acf6607e05ccceb31b0e5b8ac04bdbe2aaeade760c51b27898c3a81526020017f12186dd15b8b6ec74955dd060a6582f1b1d5d03aa3324a1b990193aa412182dd815250815260200160405180604001604052807f21817b6a62573cbce5ccd7a071ec0dd8610cebca4763fa1b161d2b83c506343a81526020017f1e65cddea58f72043b07f580c2db2c706d0a6a553134a483270a394295920bc58152508152508160200181905250604051806040016040528060405180604001604052807f0e6e679f1182d35d009d80d7c3c0486ac1029c70dfa1d51083dfb72d2f4fc80d81526020017f034f5f65d1184aed63523820bccfa88d63da16c89c4ecc7f99a844a4ea35fe87815250815260200160405180604001604052807f1df09d5a397b62ef266192196ffd48793da3d0f44b9c16197395e41c80a989f681526020017f1db39bb064d197e7e77b6fcf458526882e3aac5aeb7720cab8fafc4fdbafab6a8152508152508160400181905250604051806040016040528060405180604001604052807f1ba1a4f7d9b33dbab884f7da7555dbabf080602c6528cc626ee463636140a0c281526020017f1e7c68658aaf027ea3265d847e95b4ab6dccc8132dfd02d23184b37c6eb09c82815250815260200160405180604001604052807f0b487de9bad477b193ff96ab0b7ebd004173c399b8e9236d84d5af904b4fe97c81526020017f09b9555eb56ac58ca42f2a8eb223d50da7225b5ceb8a0f213fa679c8f175c639815250815250816060018190525060036040519080825280602002602001820160405280156124be57816020015b6124ab6130c7565b8152602001906001900390816124a35790505b50816080018190525060405180604001604052807f1c50abcfc1cc0dbf88207353da7cd1bd34d916ad1fd1126b5ca80aab283a2e7c81526020017f0b0a08bc2cf418bc4d521a710de5c906eb1561a0abefeda375614552f056ebe6815250816080015160008151811061252d57fe5b602002602001018190525060405180604001604052807f156cee0586dd0c3e71ac541e3f22d2a5d5937bc45f3f6fb565941472d02461f281526020017f2a0e78ca95fff7496a19e3a501ddaa9003c159b3174868f2db37c542450f6242815250816080015160018151811061259e57fe5b602002602001018190525060405180604001604052807f2992efcd6c8ac44190b561a43b0b794e72896c409123457f994dc92903de363681526020017f2503804658309866dcde959f6a9947c6ea76480bcaf38123b61647e5a47a9e08815250816080015160028151811061260f57fe5b602002602001018190525090565b612625613081565b61262d6130e1565b83600001518160006003811061263f57fe5b60200201818152505083602001518160016003811061265a57fe5b602002018181525050828160026003811061267157fe5b602002018181525050600060608360808460076107d05a03fa9050806000811461269a5761269c565bfe5b50806126a757600080fd5b505092915050565b6126b7613081565b6126bf613103565b8360000151816000600481106126d157fe5b6020020181815250508360200151816001600481106126ec57fe5b60200201818152505082600001518160026004811061270757fe5b60200201818152505082602001518160036004811061272257fe5b602002018181525050600060608360c08460066107d05a03fa9050806000811461274b5761274d565bfe5b508061275857600080fd5b505092915050565b612768613081565b60007f30644e72e131a029b85045b68181585d97816a916871ca8d3c208c16d87cfd479050600083600001511480156127a5575060008360200151145b156127c95760405180604001604052806000815260200160008152509150506127f5565b604051806040016040528084600001518152602001828560200151816127eb57fe5b0683038152509150505b919050565b60006060600460405190808252806020026020018201604052801561283957816020015b6128266130c7565b81526020019060019003908161281e5790505b5090506060600460405190808252806020026020018201604052801561287957816020015b612866613125565b81526020019060019003908161285e5790505b5090508a8260008151811061288a57fe5b602002602001018190525088826001815181106128a357fe5b602002602001018190525086826002815181106128bc57fe5b602002602001018190525084826003815181106128d557fe5b602002602001018190525089816000815181106128ee57fe5b6020026020010181905250878160018151811061290757fe5b6020026020010181905250858160028151811061292057fe5b6020026020010181905250838160038151811061293957fe5b602002602001018190525061294e8282612cd8565b9250505098975050505050505050565b60008060007fc5d2460186f7233c927e7db2dcc703c0e500b653ca82273b7bfad8045d85a47060001b9050833f91508082141580156129a057506000801b8214155b92505050919050565b6060808690506060869050606086905060608690506060869050606081518351855187518951010101016040519080825280601f01601f191660200182016040528015612a055781602001600182028038833980820191505090505b509050606081905060008090506000809050600090505b8851811015612a8a57888181518110612a3157fe5b602001015160f81c60f81b838380600101945081518110612a4e57fe5b60200101907effffffffffffffffffffffffffffffffffffffffffffffffffffffffffffff1916908160001a9053508080600101915050612a1c565b600090505b8751811015612afd57878181518110612aa457fe5b602001015160f81c60f81b838380600101945081518110612ac157fe5b60200101907effffffffffffffffffffffffffffffffffffffffffffffffffffffffffffff1916908160001a9053508080600101915050612a8f565b600090505b8651811015612b7057868181518110612b1757fe5b602001015160f81c60f81b838380600101945081518110612b3457fe5b60200101907effffffffffffffffffffffffffffffffffffffffffffffffffffffffffffff1916908160001a9053508080600101915050612b02565b600090505b8551811015612be357858181518110612b8a57fe5b602001015160f81c60f81b838380600101945081518110612ba757fe5b60200101907effffffffffffffffffffffffffffffffffffffffffffffffffffffffffffff1916908160001a9053508080600101915050612b75565b600090505b8451811015612c5657848181518110612bfd57fe5b602001015160f81c60f81b838380600101945081518110612c1a57fe5b60200101907effffffffffffffffffffffffffffffffffffffffffffffffffffffffffffff1916908160001a9053508080600101915050612be8565b82995050505050505050505095945050505050565b612c8360018260000154612c8e90919063ffffffff16565b816000018190555050565b6000612cd083836040518060400160405280601e81526020017f536166654d6174683a207375627472616374696f6e206f766572666c6f770000815250612f2b565b905092915050565b60008151835114612ce857600080fd5b6000835190506000600682029050606081604051908082528060200260200182016040528015612d275781602001602082028038833980820191505090505b50905060008090505b83811015612ecd57868181518110612d4457fe5b602002602001015160000151826000600684020181518110612d6257fe5b602002602001018181525050868181518110612d7a57fe5b602002602001015160200151826001600684020181518110612d9857fe5b602002602001018181525050858181518110612db057fe5b602002602001015160000151600160028110612dc857fe5b6020020151826002600684020181518110612ddf57fe5b602002602001018181525050858181518110612df757fe5b602002602001015160000151600060028110612e0f57fe5b6020020151826003600684020181518110612e2657fe5b602002602001018181525050858181518110612e3e57fe5b602002602001015160200151600160028110612e5657fe5b6020020151826004600684020181518110612e6d57fe5b602002602001018181525050858181518110612e8557fe5b602002602001015160200151600060028110612e9d57fe5b6020020151826005600684020181518110612eb457fe5b6020026020010181815250508080600101915050612d30565b50612ed661314b565b6000602082602086026020860160086107d05a03fa90508060008114612efb57612efd565bfe5b5080612f0857600080fd5b600082600060018110612f1757fe5b602002015114159550505050505092915050565b6000838311158290612f73576040517f08c379a0000000000000000000000000000000000000000000000000000000008152600401612f6a9190613cc0565b60405180910390fd5b5060008385039050809150509392505050565b828054600181600116156101000203166002900490600052602060002090601f016020900481019282601f10612fc757805160ff1916838001178555612ff5565b82800160010185558215612ff5579182015b82811115612ff4578251825591602001919060010190612fd9565b5b509050613002919061316d565b5090565b604051806040016040528060008019168152602001600073ffffffffffffffffffffffffffffffffffffffff1681525090565b604051806101e0016040528061304d6130c7565b815260200161305a613125565b8152602001613067613125565b8152602001613074613125565b8152602001606081525090565b604051806040016040528060008152602001600081525090565b8154818355818111156130c2578183600052602060002091820191016130c1919061316d565b5b505050565b604051806040016040528060008152602001600081525090565b6040518060600160405280600390602082028038833980820191505090505090565b6040518060800160405280600490602082028038833980820191505090505090565b6040518060800160405280613138613192565b8152602001613145613192565b81525090565b6040518060200160405280600190602082028038833980820191505090505090565b61318f91905b8082111561318b576000816000905550600101613173565b5090565b90565b6040518060400160405280600290602082028038833980820191505090505090565b60006131c08235613fba565b905092915050565b600082601f8301126131d957600080fd5b60026131ec6131e782613e71565b613e44565b9150818385602084028201111561320257600080fd5b60005b83811015613232578161321888826134a1565b845260208401935060208301925050600181019050613205565b5050505092915050565b600082601f83011261324d57600080fd5b600261326061325b82613e93565b613e44565b9150818385602084028201111561327657600080fd5b60005b838110156132a6578161328c88826134a1565b845260208401935060208301925050600181019050613279565b5050505092915050565b60006132bc8235613fcc565b905092915050565b60006132d08235613fd8565b905092915050565b60006132e48235613fe2565b905092915050565b60006132f88251613fe2565b905092915050565b600082601f83011261331157600080fd5b813561332461331f82613eb5565b613e44565b9150808252602083016020830185838301111561334057600080fd5b61334b83828461406e565b50505092915050565b600082601f83011261336557600080fd5b813561337861337382613ee1565b613e44565b9150808252602083016020830185838301111561339457600080fd5b61339f83828461406e565b50505092915050565b6000604082840312156133ba57600080fd5b6133c46040613e44565b905060006133d4848285016134a1565b60008301525060206133e8848285016134a1565b60208301525092915050565b60006080828403121561340657600080fd5b6134106040613e44565b90506000613420848285016131c8565b6000830152506040613434848285016131c8565b60208301525092915050565b6000610100828403121561345357600080fd5b61345d6060613e44565b9050600061346d848285016133a8565b6000830152506040613481848285016133f4565b60208301525060c0613495848285016133a8565b60408301525092915050565b60006134ad823561402e565b905092915050565b6000602082840312156134c757600080fd5b60006134d5848285016131b4565b91505092915050565b600080604083850312156134f157600080fd5b60006134ff858286016131b4565b9250506020613510858286016131b4565b9150509250929050565b60008060006060848603121561352f57600080fd5b600061353d868287016131b4565b935050602061354e868287016131b4565b925050604061355f868287016134a1565b9150509250925092565b6000806000806080858703121561357f57600080fd5b600061358d878288016131b4565b945050602061359e878288016131b4565b93505060406135af878288016134a1565b925050606085013567ffffffffffffffff8111156135cc57600080fd5b6135d887828801613300565b91505092959194509250565b600080604083850312156135f757600080fd5b6000613605858286016131b4565b9250506020613616858286016132b0565b9150509250929050565b6000806040838503121561363357600080fd5b6000613641858286016131b4565b9250506020613652858286016134a1565b9150509250929050565b60006020828403121561366e57600080fd5b600061367c848285016132b0565b91505092915050565b6000806040838503121561369857600080fd5b60006136a6858286016132c4565b925050602083013567ffffffffffffffff8111156136c357600080fd5b6136cf85828601613354565b9150509250929050565b6000806000606084860312156136ee57600080fd5b60006136fc868287016132c4565b935050602084013567ffffffffffffffff81111561371957600080fd5b61372586828701613354565b925050604084013567ffffffffffffffff81111561374257600080fd5b61374e86828701613300565b9150509250925092565b60006020828403121561376a57600080fd5b6000613778848285016132d8565b91505092915050565b60006020828403121561379357600080fd5b60006137a1848285016132ec565b91505092915050565b60008061012083850312156137be57600080fd5b60006137cc85828601613440565b9250506101006137de858286016131b4565b9150509250929050565b60008061014083850312156137fc57600080fd5b600061380a85828601613440565b92505061010061381c8582860161323c565b9150509250929050565b60006020828403121561383857600080fd5b6000613846848285016134a1565b91505092915050565b600061385b8383613c20565b60208301905092915050565b61387081614038565b82525050565b61387f81613f72565b82525050565b61388e81613f17565b6138988184613f45565b92506138a382613f0d565b60005b828110156138d1576138b985835161384f565b94506138c482613f38565b91506001810190506138a6565b5050505050565b6138e181613f84565b82525050565b60006138f282613f22565b6138fc8185613f50565b935061390c81856020860161407d565b613915816140b0565b840191505092915050565b600061392b82613f2d565b6139358185613f61565b935061394581856020860161407d565b61394e816140b0565b840191505092915050565b6000613966601a83613f61565b91507f696e76616c69642061646472657373206f7220746f6b656e49640000000000006000830152602082019050919050565b60006139a6601983613f61565b91507f696e76616c696420726563697069656e742061646472657373000000000000006000830152602082019050919050565b60006139e6601883613f61565b91507f66726f6d206d75737420626520746f6b656e206f776e657200000000000000006000830152602082019050919050565b6000613a26601383613f61565b91507f70726f6f66206d7573742062652076616c6964000000000000000000000000006000830152602082019050919050565b6000613a66601883613f61565b91507f696e636f7272656374206164647265737320666f726d617400000000000000006000830152602082019050919050565b6000613aa6602183613f61565b91507f726563697069656e74206d757374206e6f7420626520746f6b656e206f776e6560008301527f72000000000000000000000000000000000000000000000000000000000000006020830152604082019050919050565b6000613b0c601283613f61565b91507f70726f6f66206d75737420626520756e697100000000000000000000000000006000830152602082019050919050565b6000613b4c601483613f61565b91507f63616c6c6572206d757374206265206f776e65720000000000000000000000006000830152602082019050919050565b604082016000820151613b956000850182613c20565b506020820151613ba86020850182613c20565b50505050565b608082016000820151613bc46000850182613885565b506020820151613bd76040850182613885565b50505050565b61010082016000820151613bf46000850182613b7f565b506020820151613c076040850182613bae565b506040820151613c1a60c0850182613b7f565b50505050565b613c2981613fb0565b82525050565b613c3881613fb0565b82525050565b6000602082019050613c536000830184613876565b92915050565b6000608082019050613c6e6000830187613876565b613c7b6020830186613876565b613c886040830185613c2f565b8181036060830152613c9a81846138e7565b905095945050505050565b6000602082019050613cba60008301846138d8565b92915050565b60006020820190508181036000830152613cda8184613920565b905092915050565b60006020820190508181036000830152613cfb81613959565b9050919050565b60006020820190508181036000830152613d1b81613999565b9050919050565b60006020820190508181036000830152613d3b816139d9565b9050919050565b60006020820190508181036000830152613d5b81613a19565b9050919050565b60006020820190508181036000830152613d7b81613a59565b9050919050565b60006020820190508181036000830152613d9b81613a99565b9050919050565b60006020820190508181036000830152613dbb81613aff565b9050919050565b60006020820190508181036000830152613ddb81613b3f565b9050919050565b600061010082019050613df86000830184613bdd565b92915050565b600061012082019050613e146000830185613bdd565b613e22610100830184613867565b9392505050565b6000602082019050613e3e6000830184613c2f565b92915050565b6000604051905081810181811067ffffffffffffffff82111715613e6757600080fd5b8060405250919050565b600067ffffffffffffffff821115613e8857600080fd5b602082029050919050565b600067ffffffffffffffff821115613eaa57600080fd5b602082029050919050565b600067ffffffffffffffff821115613ecc57600080fd5b601f19601f8301169050602081019050919050565b600067ffffffffffffffff821115613ef857600080fd5b601f19601f8301169050602081019050919050565b6000819050919050565b600060029050919050565b600081519050919050565b600081519050919050565b6000602082019050919050565b600081905092915050565b600082825260208201905092915050565b600082825260208201905092915050565b6000613f7d82613f90565b9050919050565b60008115159050919050565b600073ffffffffffffffffffffffffffffffffffffffff82169050919050565b6000819050919050565b6000613fc58261400e565b9050919050565b60008115159050919050565b6000819050919050565b60007fffffffff0000000000000000000000000000000000000000000000000000000082169050919050565b600073ffffffffffffffffffffffffffffffffffffffff82169050919050565b6000819050919050565b60006140438261404a565b9050919050565b60006140558261405c565b9050919050565b600061406782613f90565b9050919050565b82818337600083830152505050565b60005b8381101561409b578082015181840152602081019050614080565b838111156140aa576000848401525b50505050565b6000601f19601f830116905091905056fea265627a7a723058200624c107c3c68b2f895871ca1281e84a4040405f8da8de6ef1d83a16bec6426c6c6578706572696d656e74616cf5003768747470733a2f2f73332d75732d776573742d322e616d617a6f6e6177732e636f6d2f756461636974792d626c6f636b636861696e2f63617073746f6e652f",
  "source": "pragma solidity >0.5.5;\npragma experimental ABIEncoderV2;\n\nimport \"./ERC721Mintable.sol\";\nimport \"./verifier.sol\";\n\n// TODO define a contract call to the zokrates generated solidity contract <Verifier> or <renamedVerifier>\n\n// TODO define another contract named SolnSquareVerifier that inherits from your ERC721Mintable class\ncontract SolnSquareVerifier is CustomERC721Token, Verifier {\n  using Counters for Counters.Counter;\n  // TODO define a solutions struct that can hold an index & an address\n  struct Solution {\n    bytes32 index;\n    address caller;\n  }\n  // keep track of the generated tokenIds\n  Counters.Counter tokenId;\n  // TODO define an array of the above struct\n  Solution[] solutions;\n  // TODO define a mapping to store unique solutions submitted\n  mapping(address => Solution) uniqSolutions;\n  // TODO Create an event to emit when a solution is added\n  event SolutionAdded(bytes32 indexed index, address indexed caller);\n  // check wether a solution has been submitted for a given caller\n  modifier isUniqSolution(Proof memory proof, address caller) {\n    require(\n      uniqSolutions[caller].index != keccak256(abi.encode(proof)),\n      \"proof must be uniq\"\n    );\n    _;\n  }\n\n  // TODO Create a function to add the solutions to the array and emit the event\n  function add(Proof memory proof, address caller) public {\n    bytes32 _proof = keccak256(abi.encode(proof));\n    Solution memory _solution = Solution({ index: _proof, caller: caller });\n    solutions.push(_solution);\n    uniqSolutions[caller] = _solution;\n    emit SolutionAdded(_proof, caller);\n  }\n\n  // TODO Create a function to mint new NFT only after the solution has been verified\n  //  - make sure the solution is unique (has not been used before)\n  //  - make sure you handle metadata as well as tokenSuplly\n\n  function mintToken(Proof memory proof, uint256[2] memory inputs)\n    public\n    isUniqSolution(proof, msg.sender)\n  {\n    bool check = verifyTx(proof, inputs);\n    require(check, \"proof must be valid\");\n    this.add(proof, msg.sender);\n    tokenId.increment();\n    mint(msg.sender, tokenId.current());\n  }\n\n}\n",
  "sourcePath": "/home/bzzzpy/Documents/Blockchain-Capstone/eth-contracts/contracts/SolnSquareVerifier.sol",
  "compiler": {
    "name": "solc",
    "version": "0.5.6+commit.b259423e.Emscripten.clang"
  },
  "schemaVersion": "3.4.3",
  "updatedAt": "2021-09-03T11:01:27.730Z",
  "networkType": "ethereum",
  "devdoc": {
    "methods": {
      "isApprovedForAll(address,address)": {
        "details": "Tells whether an operator is approved by a given owner",
        "params": {
          "operator": "operator address which you want to query the approval of",
          "owner": "owner address which you want to query the approval of"
        },
        "return": "bool whether the given operator is approved by the given owner"
      },
      "setApprovalForAll(address,bool)": {
        "details": "Sets or unsets the approval of a given operator An operator is allowed to transfer all tokens of the sender on their behalf",
        "params": {
          "approved": "representing the status of the approval to be set",
          "to": "operator address to set the approval"
        }
      },
      "supportsInterface(bytes4)": {
        "details": "implement supportsInterface(bytes4) using a lookup table"
      },
      "tokenByIndex(uint256)": {
        "details": "Gets the token ID at a given index of all the tokens in this contract Reverts if the index is greater or equal to the total number of tokens",
        "params": {
          "index": "uint256 representing the index to be accessed of the tokens list"
        },
        "return": "uint256 token ID at the given index of the tokens list"
      },
      "tokenOfOwnerByIndex(address,uint256)": {
        "details": "Gets the token ID at a given index of the tokens list of the requested owner",
        "params": {
          "index": "uint256 representing the index to be accessed of the requested tokens list",
          "owner": "address owning the tokens list to be accessed"
        },
        "return": "uint256 token ID at the given index of the tokens list owned by the requested address"
      },
      "totalSupply()": {
        "details": "Gets the total amount of tokens stored by the contract",
        "return": "uint256 representing the total amount of tokens"
      }
    }
  },
  "userdoc": {
    "methods": {
      "name()": {
        "notice": "A descriptive name for a collection of NFTs in this contract"
      },
      "symbol()": {
        "notice": "An abbreviated name for NFTs in this contract"
      }
    }
  }
}