{
  "contractName": "SolnSquareVerifier",
  "abi": [
    {
      "anonymous": false,
      "inputs": [
        {
          "indexed": true,
          "internalType": "address",
          "name": "owner",
          "type": "address"
        },
        {
          "indexed": true,
          "internalType": "address",
          "name": "approved",
          "type": "address"
        },
        {
          "indexed": true,
          "internalType": "uint256",
          "name": "tokenId",
          "type": "uint256"
        }
      ],
      "name": "Approval",
      "type": "event"
    },
    {
      "anonymous": false,
      "inputs": [
        {
          "indexed": true,
          "internalType": "address",
          "name": "owner",
          "type": "address"
        },
        {
          "indexed": true,
          "internalType": "address",
          "name": "operator",
          "type": "address"
        },
        {
          "indexed": false,
          "internalType": "bool",
          "name": "approved",
          "type": "bool"
        }
      ],
      "name": "ApprovalForAll",
      "type": "event"
    },
    {
      "anonymous": false,
      "inputs": [
        {
          "indexed": true,
          "internalType": "address",
          "name": "oldOwner",
          "type": "address"
        },
        {
          "indexed": true,
          "internalType": "address",
          "name": "newOwner",
          "type": "address"
        }
      ],
      "name": "OwnershipTransferred",
      "type": "event"
    },
    {
      "anonymous": false,
      "inputs": [
        {
          "indexed": true,
          "internalType": "address",
          "name": "caller",
          "type": "address"
        }
      ],
      "name": "Paused",
      "type": "event"
    },
    {
      "anonymous": false,
      "inputs": [
        {
          "indexed": true,
          "internalType": "bytes32",
          "name": "index",
          "type": "bytes32"
        },
        {
          "indexed": true,
          "internalType": "address",
          "name": "caller",
          "type": "address"
        }
      ],
      "name": "SolutionAdded",
      "type": "event"
    },
    {
      "anonymous": false,
      "inputs": [
        {
          "indexed": true,
          "internalType": "address",
          "name": "from",
          "type": "address"
        },
        {
          "indexed": true,
          "internalType": "address",
          "name": "to",
          "type": "address"
        },
        {
          "indexed": true,
          "internalType": "uint256",
          "name": "tokenId",
          "type": "uint256"
        }
      ],
      "name": "Transfer",
      "type": "event"
    },
    {
      "anonymous": false,
      "inputs": [
        {
          "indexed": true,
          "internalType": "address",
          "name": "caller",
          "type": "address"
        }
      ],
      "name": "Unpaused",
      "type": "event"
    },
    {
      "inputs": [
        {
          "internalType": "bytes32",
          "name": "_myid",
          "type": "bytes32"
        },
        {
          "internalType": "string",
          "name": "_result",
          "type": "string"
        }
      ],
      "name": "__callback",
      "outputs": [],
      "stateMutability": "nonpayable",
      "type": "function"
    },
    {
      "inputs": [
        {
          "internalType": "bytes32",
          "name": "_myid",
          "type": "bytes32"
        },
        {
          "internalType": "string",
          "name": "_result",
          "type": "string"
        },
        {
          "internalType": "bytes",
          "name": "_proof",
          "type": "bytes"
        }
      ],
      "name": "__callback",
      "outputs": [],
      "stateMutability": "nonpayable",
      "type": "function"
    },
    {
      "inputs": [
        {
          "internalType": "address",
          "name": "to",
          "type": "address"
        },
        {
          "internalType": "uint256",
          "name": "tokenId",
          "type": "uint256"
        }
      ],
      "name": "approve",
      "outputs": [],
      "stateMutability": "nonpayable",
      "type": "function"
    },
    {
      "inputs": [
        {
          "internalType": "address",
          "name": "owner",
          "type": "address"
        }
      ],
      "name": "balanceOf",
      "outputs": [
        {
          "internalType": "uint256",
          "name": "",
          "type": "uint256"
        }
      ],
      "stateMutability": "view",
      "type": "function"
    },
    {
      "inputs": [
        {
          "internalType": "uint256",
          "name": "tokenId",
          "type": "uint256"
        }
      ],
      "name": "getApproved",
      "outputs": [
        {
          "internalType": "address",
          "name": "",
          "type": "address"
        }
      ],
      "stateMutability": "view",
      "type": "function"
    },
    {
      "inputs": [],
      "name": "getOwner",
      "outputs": [
        {
          "internalType": "address",
          "name": "",
          "type": "address"
        }
      ],
      "stateMutability": "view",
      "type": "function"
    },
    {
      "inputs": [
        {
          "internalType": "address",
          "name": "owner",
          "type": "address"
        },
        {
          "internalType": "address",
          "name": "operator",
          "type": "address"
        }
      ],
      "name": "isApprovedForAll",
      "outputs": [
        {
          "internalType": "bool",
          "name": "",
          "type": "bool"
        }
      ],
      "stateMutability": "view",
      "type": "function"
    },
    {
      "inputs": [
        {
          "internalType": "address",
          "name": "_caller",
          "type": "address"
        }
      ],
      "name": "isOwner",
      "outputs": [
        {
          "internalType": "bool",
          "name": "",
          "type": "bool"
        }
      ],
      "stateMutability": "view",
      "type": "function"
    },
    {
      "inputs": [
        {
          "internalType": "address",
          "name": "to",
          "type": "address"
        },
        {
          "internalType": "uint256",
          "name": "tokenId",
          "type": "uint256"
        }
      ],
      "name": "mint",
      "outputs": [
        {
          "internalType": "bool",
          "name": "",
          "type": "bool"
        }
      ],
      "stateMutability": "nonpayable",
      "type": "function"
    },
    {
      "inputs": [
        {
          "internalType": "uint256",
          "name": "tokenId",
          "type": "uint256"
        }
      ],
      "name": "ownerOf",
      "outputs": [
        {
          "internalType": "address",
          "name": "",
          "type": "address"
        }
      ],
      "stateMutability": "view",
      "type": "function"
    },
    {
      "inputs": [
        {
          "internalType": "address",
          "name": "from",
          "type": "address"
        },
        {
          "internalType": "address",
          "name": "to",
          "type": "address"
        },
        {
          "internalType": "uint256",
          "name": "tokenId",
          "type": "uint256"
        }
      ],
      "name": "safeTransferFrom",
      "outputs": [],
      "stateMutability": "nonpayable",
      "type": "function"
    },
    {
      "inputs": [
        {
          "internalType": "address",
          "name": "from",
          "type": "address"
        },
        {
          "internalType": "address",
          "name": "to",
          "type": "address"
        },
        {
          "internalType": "uint256",
          "name": "tokenId",
          "type": "uint256"
        },
        {
          "internalType": "bytes",
          "name": "_data",
          "type": "bytes"
        }
      ],
      "name": "safeTransferFrom",
      "outputs": [],
      "stateMutability": "nonpayable",
      "type": "function"
    },
    {
      "inputs": [
        {
          "internalType": "address",
          "name": "to",
          "type": "address"
        },
        {
          "internalType": "bool",
          "name": "approved",
          "type": "bool"
        }
      ],
      "name": "setApprovalForAll",
      "outputs": [],
      "stateMutability": "nonpayable",
      "type": "function"
    },
    {
      "inputs": [
        {
          "internalType": "bool",
          "name": "isPaused",
          "type": "bool"
        }
      ],
      "name": "setPaused",
      "outputs": [],
      "stateMutability": "nonpayable",
      "type": "function"
    },
    {
      "inputs": [
        {
          "internalType": "uint256",
          "name": "tokenId",
          "type": "uint256"
        }
      ],
      "name": "setTokenURI",
      "outputs": [],
      "stateMutability": "nonpayable",
      "type": "function"
    },
    {
      "inputs": [
        {
          "internalType": "bytes4",
          "name": "interfaceId",
          "type": "bytes4"
        }
      ],
      "name": "supportsInterface",
      "outputs": [
        {
          "internalType": "bool",
          "name": "",
          "type": "bool"
        }
      ],
      "stateMutability": "view",
      "type": "function"
    },
    {
      "inputs": [
        {
          "internalType": "uint256",
          "name": "index",
          "type": "uint256"
        }
      ],
      "name": "tokenByIndex",
      "outputs": [
        {
          "internalType": "uint256",
          "name": "",
          "type": "uint256"
        }
      ],
      "stateMutability": "view",
      "type": "function"
    },
    {
      "inputs": [
        {
          "internalType": "address",
          "name": "owner",
          "type": "address"
        },
        {
          "internalType": "uint256",
          "name": "index",
          "type": "uint256"
        }
      ],
      "name": "tokenOfOwnerByIndex",
      "outputs": [
        {
          "internalType": "uint256",
          "name": "",
          "type": "uint256"
        }
      ],
      "stateMutability": "view",
      "type": "function"
    },
    {
      "inputs": [
        {
          "internalType": "uint256",
          "name": "tokenId",
          "type": "uint256"
        }
      ],
      "name": "tokenURI",
      "outputs": [
        {
          "internalType": "string",
          "name": "",
          "type": "string"
        }
      ],
      "stateMutability": "view",
      "type": "function"
    },
    {
      "inputs": [],
      "name": "totalSupply",
      "outputs": [
        {
          "internalType": "uint256",
          "name": "",
          "type": "uint256"
        }
      ],
      "stateMutability": "view",
      "type": "function"
    },
    {
      "inputs": [
        {
          "internalType": "address",
          "name": "from",
          "type": "address"
        },
        {
          "internalType": "address",
          "name": "to",
          "type": "address"
        },
        {
          "internalType": "uint256",
          "name": "tokenId",
          "type": "uint256"
        }
      ],
      "name": "transferFrom",
      "outputs": [],
      "stateMutability": "nonpayable",
      "type": "function"
    },
    {
      "inputs": [
        {
          "internalType": "address",
          "name": "newOwner",
          "type": "address"
        }
      ],
      "name": "transferOwnership",
      "outputs": [],
      "stateMutability": "nonpayable",
      "type": "function"
    },
    {
      "inputs": [
        {
          "components": [
            {
              "components": [
                {
                  "internalType": "uint256",
                  "name": "X",
                  "type": "uint256"
                },
                {
                  "internalType": "uint256",
                  "name": "Y",
                  "type": "uint256"
                }
              ],
              "internalType": "struct Pairing.G1Point",
              "name": "a",
              "type": "tuple"
            },
            {
              "components": [
                {
                  "internalType": "uint256[2]",
                  "name": "X",
                  "type": "uint256[2]"
                },
                {
                  "internalType": "uint256[2]",
                  "name": "Y",
                  "type": "uint256[2]"
                }
              ],
              "internalType": "struct Pairing.G2Point",
              "name": "b",
              "type": "tuple"
            },
            {
              "components": [
                {
                  "internalType": "uint256",
                  "name": "X",
                  "type": "uint256"
                },
                {
                  "internalType": "uint256",
                  "name": "Y",
                  "type": "uint256"
                }
              ],
              "internalType": "struct Pairing.G1Point",
              "name": "c",
              "type": "tuple"
            }
          ],
          "internalType": "struct Verifier.Proof",
          "name": "proof",
          "type": "tuple"
        },
        {
          "internalType": "uint256[2]",
          "name": "input",
          "type": "uint256[2]"
        }
      ],
      "name": "verifyTx",
      "outputs": [
        {
          "internalType": "bool",
          "name": "r",
          "type": "bool"
        }
      ],
      "stateMutability": "view",
      "type": "function"
    },
    {
      "inputs": [
        {
          "internalType": "bytes32",
          "name": "_index",
          "type": "bytes32"
        },
        {
          "internalType": "address",
          "name": "_caller",
          "type": "address"
        }
      ],
      "name": "add",
      "outputs": [],
      "stateMutability": "nonpayable",
      "type": "function"
    },
    {
      "inputs": [
        {
          "components": [
            {
              "components": [
                {
                  "internalType": "uint256",
                  "name": "X",
                  "type": "uint256"
                },
                {
                  "internalType": "uint256",
                  "name": "Y",
                  "type": "uint256"
                }
              ],
              "internalType": "struct Pairing.G1Point",
              "name": "a",
              "type": "tuple"
            },
            {
              "components": [
                {
                  "internalType": "uint256[2]",
                  "name": "X",
                  "type": "uint256[2]"
                },
                {
                  "internalType": "uint256[2]",
                  "name": "Y",
                  "type": "uint256[2]"
                }
              ],
              "internalType": "struct Pairing.G2Point",
              "name": "b",
              "type": "tuple"
            },
            {
              "components": [
                {
                  "internalType": "uint256",
                  "name": "X",
                  "type": "uint256"
                },
                {
                  "internalType": "uint256",
                  "name": "Y",
                  "type": "uint256"
                }
              ],
              "internalType": "struct Pairing.G1Point",
              "name": "c",
              "type": "tuple"
            }
          ],
          "internalType": "struct Verifier.Proof",
          "name": "proof",
          "type": "tuple"
        },
        {
          "internalType": "uint256[2]",
          "name": "input",
          "type": "uint256[2]"
        }
      ],
      "name": "mintToken",
      "outputs": [],
      "stateMutability": "nonpayable",
      "type": "function"
    }
  ],
  "bytecode": "0x60806040523480156200001157600080fd5b506040518060400160405280600a81526020017f5265616c20546f6b656e000000000000000000000000000000000000000000008152506040518060400160405280600481526020017f5245414c000000000000000000000000000000000000000000000000000000008152506040518060600160405280603f81526020016200523e603f9139336000806101000a81548173ffffffffffffffffffffffffffffffffffffffff021916908373ffffffffffffffffffffffffffffffffffffffff16021790555060008060146101000a81548160ff0219169083151502179055506200010a6301ffc9a760e01b620001a660201b60201c565b620001226380ac58cd60e01b620001a660201b60201c565b6200013a63780e9d6360e01b620001a660201b60201c565b82600f90805190602001906200015292919062000246565b5081601090805190602001906200016b92919062000246565b5080601190805190602001906200018492919062000246565b506200019d635b5e139f60e01b620001a660201b60201c565b5050506200035b565b63ffffffff60e01b817bffffffffffffffffffffffffffffffffffffffffffffffffffffffff19161415620001da57600080fd5b6001806000837bffffffffffffffffffffffffffffffffffffffffffffffffffffffff19167bffffffffffffffffffffffffffffffffffffffffffffffffffffffff1916815260200190815260200160002060006101000a81548160ff02191690831515021790555050565b8280546200025490620002f6565b90600052602060002090601f016020900481019282620002785760008555620002c4565b82601f106200029357805160ff1916838001178555620002c4565b82800160010185558215620002c4579182015b82811115620002c3578251825591602001919060010190620002a6565b5b509050620002d39190620002d7565b5090565b5b80821115620002f2576000816000905550600101620002d8565b5090565b600060028204905060018216806200030f57607f821691505b602082108114156200032657620003256200032c565b5b50919050565b7f4e487b7100000000000000000000000000000000000000000000000000000000600052602260045260246000fd5b614ed3806200036b6000396000f3fe608060405234801561001057600080fd5b50600436106101735760003560e01c806343cd76fc116100de578063893d20e811610097578063bff2612611610071578063bff261261461047c578063c87b56dd14610498578063e985e9c5146104c8578063f2fde38b146104f857610173565b8063893d20e814610426578063a22cb46514610444578063b88d4fde1461046057610173565b806343cd76fc1461032e5780634f6ccce71461035e578063534f75271461038e57806361641bdc146103aa5780636352211e146103c657806370a08231146103f657610173565b806327dc297e1161013057806327dc297e1461024a5780632f54bf6e146102665780632f745c591461029657806338bbfa50146102c657806340c10f19146102e257806342842e0e1461031257610173565b806301ffc9a714610178578063081812fc146101a8578063095ea7b3146101d857806316c38b3c146101f457806318160ddd1461021057806323b872dd1461022e575b600080fd5b610192600480360381019061018d91906141f3565b610514565b60405161019f919061461b565b60405180910390f35b6101c260048036038101906101bd9190614283565b61057c565b6040516101cf91906145b4565b60405180910390f35b6101f260048036038101906101ed919061407f565b6105b9565b005b61020e600480360381019061020991906140bb565b61070a565b005b610218610856565b60405161022591906147bd565b60405180910390f35b61024860048036038101906102439190613f79565b610863565b005b610264600480360381019061025f9190614120565b610886565b005b610280600480360381019061027b9190613f14565b610908565b60405161028d919061461b565b60405180910390f35b6102b060048036038101906102ab919061407f565b610960565b6040516102bd91906147bd565b60405180910390f35b6102e060048036038101906102db9190614174565b610a00565b005b6102fc60048036038101906102f7919061407f565b610a23565b604051610309919061461b565b60405180910390f35b61032c60048036038101906103279190613f79565b610b33565b005b61034860048036038101906103439190614245565b610b53565b604051610355919061461b565b60405180910390f35b61037860048036038101906103739190614283565b610c93565b60405161038591906147bd565b60405180910390f35b6103a860048036038101906103a39190614245565b610cf4565b005b6103c460048036038101906103bf91906140e4565b610ea7565b005b6103e060048036038101906103db9190614283565b611032565b6040516103ed91906145b4565b60405180910390f35b610410600480360381019061040b9190613f14565b61106f565b60405161041d91906147bd565b60405180910390f35b61042e6110bf565b60405161043b91906145b4565b60405180910390f35b61045e60048036038101906104599190614043565b6110e8565b005b61047a60048036038101906104759190613fc8565b61121e565b005b61049660048036038101906104919190614283565b611244565b005b6104b260048036038101906104ad9190614283565b61131c565b6040516104bf919061465f565b60405180910390f35b6104e260048036038101906104dd9190613f3d565b6113d3565b6040516104ef919061461b565b60405180910390f35b610512600480360381019061050d9190613f14565b611467565b005b600060016000837bffffffffffffffffffffffffffffffffffffffffffffffffffffffff19167bffffffffffffffffffffffffffffffffffffffffffffffffffffffff1916815260200190815260200160002060009054906101000a900460ff169050919050565b60006003600083815260200190815260200160002060009054906101000a900473ffffffffffffffffffffffffffffffffffffffff169050919050565b60006105c482611032565b90508073ffffffffffffffffffffffffffffffffffffffff168373ffffffffffffffffffffffffffffffffffffffff161415610635576040517f08c379a000000000000000000000000000000000000000000000000000000000815260040161062c90614741565b60405180910390fd5b61063e33610908565b8061064f575061064e81336113d3565b5b61065857600080fd5b336003600084815260200190815260200160002060006101000a81548173ffffffffffffffffffffffffffffffffffffffff021916908373ffffffffffffffffffffffffffffffffffffffff160217905550818373ffffffffffffffffffffffffffffffffffffffff168273ffffffffffffffffffffffffffffffffffffffff167f8c5be1e5ebec7d5bd14f71427d1e84f3dd0314c0f7b2291e5b200ac8c7c3b92560405160405180910390a4505050565b60008054906101000a900473ffffffffffffffffffffffffffffffffffffffff1673ffffffffffffffffffffffffffffffffffffffff163373ffffffffffffffffffffffffffffffffffffffff1614610798576040517f08c379a000000000000000000000000000000000000000000000000000000000815260040161078f90614781565b60405180910390fd5b80600060146101000a81548160ff021916908315150217905550600060149054906101000a900460ff161561080f573373ffffffffffffffffffffffffffffffffffffffff167f62e78cea01bee320cd4e420270b5ea74000d11b0c9f74754ebdbfc544b05a25860405160405180910390a2610853565b3373ffffffffffffffffffffffffffffffffffffffff167f5db9ee0a495bf2e6ff9c91a7834c1ba4fdd244a5e8aa4e537bd38aeae4b073aa60405160405180910390a25b50565b6000600880549050905090565b61086d33826115a8565b61087657600080fd5b61088183838361163d565b505050565b6109048282600067ffffffffffffffff8111156108cc577f4e487b7100000000000000000000000000000000000000000000000000000000600052604160045260246000fd5b6040519080825280601f01601f1916602001820160405280156108fe5781602001600182028036833780820191505090505b50610a00565b5050565b60008173ffffffffffffffffffffffffffffffffffffffff1660008054906101000a900473ffffffffffffffffffffffffffffffffffffffff1673ffffffffffffffffffffffffffffffffffffffff16149050919050565b600061096b8361106f565b821061097657600080fd5b600660008473ffffffffffffffffffffffffffffffffffffffff1673ffffffffffffffffffffffffffffffffffffffff16815260200190815260200160002082815481106109ed577f4e487b7100000000000000000000000000000000000000000000000000000000600052603260045260246000fd5b9060005260206000200154905092915050565b6000801b600d60008060001b815260200190815260200160002081905550505050565b60008060009054906101000a900473ffffffffffffffffffffffffffffffffffffffff1673ffffffffffffffffffffffffffffffffffffffff163373ffffffffffffffffffffffffffffffffffffffff1614610ab4576040517f08c379a0000000000000000000000000000000000000000000000000000000008152600401610aab90614781565b60405180910390fd5b610abe8383611661565b3073ffffffffffffffffffffffffffffffffffffffff1663bff26126836040518263ffffffff1660e01b8152600401610af791906147bd565b600060405180830381600087803b158015610b1157600080fd5b505af1158015610b25573d6000803e3d6000fd5b505050506001905092915050565b610b4e8383836040518060200160405280600081525061121e565b505050565b600080600267ffffffffffffffff811115610b97577f4e487b7100000000000000000000000000000000000000000000000000000000600052604160045260246000fd5b604051908082528060200260200182016040528015610bc55781602001602082028036833780820191505090505b50905060005b6002811015610c6a57838160028110610c0d577f4e487b7100000000000000000000000000000000000000000000000000000000600052603260045260246000fd5b6020020151828281518110610c4b577f4e487b7100000000000000000000000000000000000000000000000000000000600052603260045260246000fd5b6020026020010181815250508080610c6290614b4c565b915050610bcb565b506000610c778286611682565b1415610c87576001915050610c8d565b60009150505b92915050565b6000610c9d610856565b8210610ca857600080fd5b60088281548110610ce2577f4e487b7100000000000000000000000000000000000000000000000000000000600052603260045260246000fd5b90600052602060002001549050919050565b81604051602001610d0591906147a1565b604051602081830303815290604052805190602001203381601560008373ffffffffffffffffffffffffffffffffffffffff1673ffffffffffffffffffffffffffffffffffffffff168152602001908152602001600020600001541415610da1576040517f08c379a0000000000000000000000000000000000000000000000000000000008152600401610d9890614761565b60405180910390fd5b6000610dad8585610b53565b905080610def576040517f08c379a0000000000000000000000000000000000000000000000000000000008152600401610de690614701565b60405180910390fd5b3073ffffffffffffffffffffffffffffffffffffffff166361641bdc86604051602001610e1c91906147a1565b60405160208183030381529060405280519060200120336040518363ffffffff1660e01b8152600401610e50929190614636565b600060405180830381600087803b158015610e6a57600080fd5b505af1158015610e7e573d6000803e3d6000fd5b50505050610e9533610e9060136118b1565b610a23565b50610ea060136118bf565b5050505050565b600060405180604001604052808481526020018373ffffffffffffffffffffffffffffffffffffffff16815250905060148190806001815401808255809150506001900390600052602060002090600202016000909190919091506000820151816000015560208201518160010160006101000a81548173ffffffffffffffffffffffffffffffffffffffff021916908373ffffffffffffffffffffffffffffffffffffffff160217905550505080601560008473ffffffffffffffffffffffffffffffffffffffff1673ffffffffffffffffffffffffffffffffffffffff1681526020019081526020016000206000820151816000015560208201518160010160006101000a81548173ffffffffffffffffffffffffffffffffffffffff021916908373ffffffffffffffffffffffffffffffffffffffff1602179055509050508173ffffffffffffffffffffffffffffffffffffffff16837f01d5f9f5a890e5385b4f1d07d3c8c1f739f82bb433ed461d4551b7af3edc634060405160405180910390a3505050565b60006002600083815260200190815260200160002060009054906101000a900473ffffffffffffffffffffffffffffffffffffffff169050919050565b60006110b8600460008473ffffffffffffffffffffffffffffffffffffffff1673ffffffffffffffffffffffffffffffffffffffff1681526020019081526020016000206118b1565b9050919050565b60008060009054906101000a900473ffffffffffffffffffffffffffffffffffffffff16905090565b3373ffffffffffffffffffffffffffffffffffffffff168273ffffffffffffffffffffffffffffffffffffffff16141561112157600080fd5b80600560003373ffffffffffffffffffffffffffffffffffffffff1673ffffffffffffffffffffffffffffffffffffffff16815260200190815260200160002060008473ffffffffffffffffffffffffffffffffffffffff1673ffffffffffffffffffffffffffffffffffffffff16815260200190815260200160002060006101000a81548160ff0219169083151502179055508173ffffffffffffffffffffffffffffffffffffffff163373ffffffffffffffffffffffffffffffffffffffff167f17307eab39ab6107e8899845ad3d59bd9653f200f220920489ca2b5937696c3183604051611212919061461b565b60405180910390a35050565b611229848484610863565b611235848484846118d5565b61123e57600080fd5b50505050565b61124d816119ec565b61125657600080fd5b6112f26011805461126690614ae9565b80601f016020809104026020016040519081016040528092919081815260200182805461129290614ae9565b80156112df5780601f106112b4576101008083540402835291602001916112df565b820191906000526020600020905b8154815290600101906020018083116112c257829003601f168201915b50505050506112ed83611a5e565b611c1a565b601260008381526020019081526020016000209080519060200190611318929190613a91565b5050565b6060611327826119ec565b61133057600080fd5b60126000838152602001908152602001600020805461134e90614ae9565b80601f016020809104026020016040519081016040528092919081815260200182805461137a90614ae9565b80156113c75780601f1061139c576101008083540402835291602001916113c7565b820191906000526020600020905b8154815290600101906020018083116113aa57829003601f168201915b50505050509050919050565b6000600560008473ffffffffffffffffffffffffffffffffffffffff1673ffffffffffffffffffffffffffffffffffffffff16815260200190815260200160002060008373ffffffffffffffffffffffffffffffffffffffff1673ffffffffffffffffffffffffffffffffffffffff16815260200190815260200160002060009054906101000a900460ff16905092915050565b60008054906101000a900473ffffffffffffffffffffffffffffffffffffffff1673ffffffffffffffffffffffffffffffffffffffff163373ffffffffffffffffffffffffffffffffffffffff16146114f5576040517f08c379a00000000000000000000000000000000000000000000000000000000081526004016114ec90614781565b60405180910390fd5b600073ffffffffffffffffffffffffffffffffffffffff168173ffffffffffffffffffffffffffffffffffffffff161415611565576040517f08c379a000000000000000000000000000000000000000000000000000000000815260040161155c90614721565b60405180910390fd5b806000806101000a81548173ffffffffffffffffffffffffffffffffffffffff021916908373ffffffffffffffffffffffffffffffffffffffff16021790555050565b6000806115b483611032565b90508073ffffffffffffffffffffffffffffffffffffffff168473ffffffffffffffffffffffffffffffffffffffff16148061162357508373ffffffffffffffffffffffffffffffffffffffff1661160b8461057c565b73ffffffffffffffffffffffffffffffffffffffff16145b80611634575061163381856113d3565b5b91505092915050565b611648838383611c5e565b6116528382611e68565b61165c82826120e0565b505050565b61166b82826121a4565b61167582826120e0565b61167e8161231f565b5050565b6000807f30644e72e131a029b85045b68181585d2833e84879b9709143e1f593f0000001905060006116b2612368565b9050806080015151600186516116c891906148ea565b146116d257600080fd5b60006040518060400160405280600081526020016000815250905060005b86518110156117fd5783878281518110611733577f4e487b7100000000000000000000000000000000000000000000000000000000600052603260045260246000fd5b60200260200101511061174557600080fd5b6117e8826117e3856080015160018561175e91906148ea565b81518110611795577f4e487b7100000000000000000000000000000000000000000000000000000000600052603260045260246000fd5b60200260200101518a85815181106117d6577f4e487b7100000000000000000000000000000000000000000000000000000000600052603260045260246000fd5b602002602001015161287c565b612995565b915080806117f590614b4c565b9150506116f0565b5061184d818360800151600081518110611840577f4e487b7100000000000000000000000000000000000000000000000000000000600052603260045260246000fd5b6020026020010151612995565b90506118938560000151866020015161186584612afa565b85604001516118778a60400151612afa565b87606001516118898960000151612afa565b8960200151612b9f565b6118a357600193505050506118ab565b600093505050505b92915050565b600081600001549050919050565b6001816000016000828254019250508190555050565b60006118f68473ffffffffffffffffffffffffffffffffffffffff16612ee8565b61190357600190506119e4565b60008473ffffffffffffffffffffffffffffffffffffffff1663150b7a02868887876040518563ffffffff1660e01b815260040161194494939291906145cf565b602060405180830381600087803b15801561195e57600080fd5b505af1158015611972573d6000803e3d6000fd5b505050506040513d601f19601f82011682018060405250810190611996919061421c565b905063150b7a0260e01b7bffffffffffffffffffffffffffffffffffffffffffffffffffffffff1916817bffffffffffffffffffffffffffffffffffffffffffffffffffffffff1916149150505b949350505050565b6000806002600084815260200190815260200160002060009054906101000a900473ffffffffffffffffffffffffffffffffffffffff169050600073ffffffffffffffffffffffffffffffffffffffff168173ffffffffffffffffffffffffffffffffffffffff161415915050919050565b60606000821415611aa6576040518060400160405280600181526020017f30000000000000000000000000000000000000000000000000000000000000008152509050611c15565b600082905060005b60008214611ad8578080611ac190614b4c565b915050600a82611ad19190614940565b9150611aae565b60008167ffffffffffffffff811115611b1a577f4e487b7100000000000000000000000000000000000000000000000000000000600052604160045260246000fd5b6040519080825280601f01601f191660200182016040528015611b4c5781602001600182028036833780820191505090505b5090506000600183611b5e91906149cb565b90505b60008614611c0d57600a86611b769190614b95565b6030611b8291906148ea565b60f81b828280611b9190614abf565b935081518110611bca577f4e487b7100000000000000000000000000000000000000000000000000000000600052603260045260246000fd5b60200101907effffffffffffffffffffffffffffffffffffffffffffffffffffffffffffff1916908160001a905350600a86611c069190614940565b9550611b61565b819450505050505b919050565b6060611c568383604051806020016040528060008152506040518060200160405280600081525060405180602001604052806000815250612efb565b905092915050565b611c6781611032565b73ffffffffffffffffffffffffffffffffffffffff168373ffffffffffffffffffffffffffffffffffffffff1614611cd4576040517f08c379a0000000000000000000000000000000000000000000000000000000008152600401611ccb906146e1565b60405180910390fd5b600073ffffffffffffffffffffffffffffffffffffffff168273ffffffffffffffffffffffffffffffffffffffff161415611d44576040517f08c379a0000000000000000000000000000000000000000000000000000000008152600401611d3b906146c1565b60405180910390fd5b6003600082815260200190815260200160002060006101000a81549073ffffffffffffffffffffffffffffffffffffffff0219169055611dc1600460008573ffffffffffffffffffffffffffffffffffffffff1673ffffffffffffffffffffffffffffffffffffffff168152602001908152602001600020613418565b611e08600460008473ffffffffffffffffffffffffffffffffffffffff1673ffffffffffffffffffffffffffffffffffffffff1681526020019081526020016000206118bf565b808273ffffffffffffffffffffffffffffffffffffffff168473ffffffffffffffffffffffffffffffffffffffff167fddf252ad1be2c89b69c2b068fc378daa952ba7f163c4a11628f55a4df523b3ef60405160405180910390a4505050565b6000611ec06001600660008673ffffffffffffffffffffffffffffffffffffffff1673ffffffffffffffffffffffffffffffffffffffff1681526020019081526020016000208054905061347490919063ffffffff16565b9050600060076000848152602001908152602001600020549050818114612007576000600660008673ffffffffffffffffffffffffffffffffffffffff1673ffffffffffffffffffffffffffffffffffffffff1681526020019081526020016000208381548110611f5a577f4e487b7100000000000000000000000000000000000000000000000000000000600052603260045260246000fd5b9060005260206000200154905080600660008773ffffffffffffffffffffffffffffffffffffffff1673ffffffffffffffffffffffffffffffffffffffff1681526020019081526020016000208381548110611fdf577f4e487b7100000000000000000000000000000000000000000000000000000000600052603260045260246000fd5b9060005260206000200181905550816007600083815260200190815260200160002081905550505b600660008573ffffffffffffffffffffffffffffffffffffffff1673ffffffffffffffffffffffffffffffffffffffff1681526020019081526020016000206001600660008773ffffffffffffffffffffffffffffffffffffffff1673ffffffffffffffffffffffffffffffffffffffff1681526020019081526020016000208054905061209591906149cb565b815481106120cc577f4e487b7100000000000000000000000000000000000000000000000000000000600052603260045260246000fd5b906000526020600020016000905550505050565b600660008373ffffffffffffffffffffffffffffffffffffffff1673ffffffffffffffffffffffffffffffffffffffff168152602001908152602001600020805490506007600083815260200190815260200160002081905550600660008373ffffffffffffffffffffffffffffffffffffffff1673ffffffffffffffffffffffffffffffffffffffff1681526020019081526020016000208190806001815401808255809150506001900390600052602060002001600090919091909150555050565b6121ad816119ec565b1580156121e75750600073ffffffffffffffffffffffffffffffffffffffff168273ffffffffffffffffffffffffffffffffffffffff1614155b612226576040517f08c379a000000000000000000000000000000000000000000000000000000000815260040161221d906146a1565b60405180910390fd5b816002600083815260200190815260200160002060006101000a81548173ffffffffffffffffffffffffffffffffffffffff021916908373ffffffffffffffffffffffffffffffffffffffff1602179055506122bf600460008473ffffffffffffffffffffffffffffffffffffffff1673ffffffffffffffffffffffffffffffffffffffff1681526020019081526020016000206118bf565b808273ffffffffffffffffffffffffffffffffffffffff16600073ffffffffffffffffffffffffffffffffffffffff167fddf252ad1be2c89b69c2b068fc378daa952ba7f163c4a11628f55a4df523b3ef60405160405180910390a45050565b6008805490506009600083815260200190815260200160002081905550600881908060018154018082558091505060019003906000526020600020016000909190919091505550565b612370613b17565b60405180604001604052807f11d04051dfa24197c951db85811bdd2c379ff160d59c527900376803b5da6d1281526020017f2c3550f6a11179451f225b11c1b6ec36dd23ee190619bfdd0976b34989f43a528152508160000181905250604051806040016040528060405180604001604052807f1add679852e7cbe6cdaf83e2dc628a45fdcb3a9819d3914ef37dd17003dbfa0681526020017f08e0663edef3226cb287662a5b57e6f66519f68e6ce1ee5e0a7a2ca279c1d3d7815250815260200160405180604001604052807f13dbfd733214ef94afec2f3d608c9c93ac31cf2d8b4e10b6ae96089df973f2ce81526020017f21196295f0fb5aae2e67680f3f741822014f709f39f2205260faf0423a6060458152508152508160200181905250604051806040016040528060405180604001604052807f234a9d17c9dfc7606f7f4639f74e478e24adc9432402422bd0b4e6055f700b9481526020017f078d4fbb6c4ba83e248d6af6c57898189b1d42205d04aeb287283c52f341d6fd815250815260200160405180604001604052807f0cf8bc6df8078edf3be7861769600ffdd0f6cdbee70ed6de5b4c788f68600b8081526020017f20cee0a54011e67088ada2eb368a0c735232d061da4ee533faae69d2940ea5988152508152508160400181905250604051806040016040528060405180604001604052807f24889e8710fd954f3bf426dd31ae4da63b16f3366d51a7d5e6b9fbfabbd08e8b81526020017f0498faf797d188c9bd9e7e6c8f20a31d758867bd07bd1230829ba08d2b21e835815250815260200160405180604001604052807f0ec7f959e443951e634636a8d799ccb0b55a9f6d0d57cdc9f79298d8e345c69a81526020017f04c337b781b0d2d4920791f02f3950f1020ed57355024463d0737e42f5e7103d8152508152508160600181905250600367ffffffffffffffff81111561265d577f4e487b7100000000000000000000000000000000000000000000000000000000600052604160045260246000fd5b60405190808252806020026020018201604052801561269657816020015b612683613b5e565b81526020019060019003908161267b5790505b50816080018190525060405180604001604052807f26c050f4fdababfea0ca4ac42b61434e9aa3238121e4717f46779983dea95efd81526020017f153796ebc5c265b8d9f3e12a37c3347ad9d1782fb493f7336efaef309dd8f3028152508160800151600081518110612732577f4e487b7100000000000000000000000000000000000000000000000000000000600052603260045260246000fd5b602002602001018190525060405180604001604052807f1bcf0460dda7644589d32f728db1bcf71a6a8335f4f984fdbb2af42de8a631c481526020017f225c4e5a8a933d5e2934bee490358a947627b378631feb262e238b38a2bcce3c81525081608001516001815181106127d0577f4e487b7100000000000000000000000000000000000000000000000000000000600052603260045260246000fd5b602002602001018190525060405180604001604052807f1fdf934e7abaa0e1d83559a60bdc1c75f721520859075a13afd4c3abc218b07581526020017f2f2147805e090d941e4915e648a8f30686e77173e7179c0661cf6ef7d5e868d4815250816080015160028151811061286e577f4e487b7100000000000000000000000000000000000000000000000000000000600052603260045260246000fd5b602002602001018190525090565b612884613b5e565b61288c613b78565b8360000151816000600381106128cb577f4e487b7100000000000000000000000000000000000000000000000000000000600052603260045260246000fd5b602002018181525050836020015181600160038110612913577f4e487b7100000000000000000000000000000000000000000000000000000000600052603260045260246000fd5b6020020181815250508281600260038110612957577f4e487b7100000000000000000000000000000000000000000000000000000000600052603260045260246000fd5b602002018181525050600060608360808460076107d05a03fa9050806000811461298057612982565bfe5b508061298d57600080fd5b505092915050565b61299d613b5e565b6129a5613b9a565b8360000151816000600481106129e4577f4e487b7100000000000000000000000000000000000000000000000000000000600052603260045260246000fd5b602002018181525050836020015181600160048110612a2c577f4e487b7100000000000000000000000000000000000000000000000000000000600052603260045260246000fd5b602002018181525050826000015181600260048110612a74577f4e487b7100000000000000000000000000000000000000000000000000000000600052603260045260246000fd5b602002018181525050826020015181600360048110612abc577f4e487b7100000000000000000000000000000000000000000000000000000000600052603260045260246000fd5b602002018181525050600060608360c08460066107d05a03fa90508060008114612ae557612ae7565bfe5b5080612af257600080fd5b505092915050565b612b02613b5e565b60007f30644e72e131a029b85045b68181585d97816a916871ca8d3c208c16d87cfd47905060008360000151148015612b3f575060008360200151145b15612b63576040518060400160405280600081526020016000815250915050612b9a565b604051806040016040528084600001518152602001828560200151612b889190614b95565b83612b9391906149cb565b8152509150505b919050565b600080600467ffffffffffffffff811115612be3577f4e487b7100000000000000000000000000000000000000000000000000000000600052604160045260246000fd5b604051908082528060200260200182016040528015612c1c57816020015b612c09613b5e565b815260200190600190039081612c015790505b5090506000600467ffffffffffffffff811115612c62577f4e487b7100000000000000000000000000000000000000000000000000000000600052604160045260246000fd5b604051908082528060200260200182016040528015612c9b57816020015b612c88613bbc565b815260200190600190039081612c805790505b5090508a82600081518110612cd9577f4e487b7100000000000000000000000000000000000000000000000000000000600052603260045260246000fd5b60200260200101819052508882600181518110612d1f577f4e487b7100000000000000000000000000000000000000000000000000000000600052603260045260246000fd5b60200260200101819052508682600281518110612d65577f4e487b7100000000000000000000000000000000000000000000000000000000600052603260045260246000fd5b60200260200101819052508482600381518110612dab577f4e487b7100000000000000000000000000000000000000000000000000000000600052603260045260246000fd5b60200260200101819052508981600081518110612df1577f4e487b7100000000000000000000000000000000000000000000000000000000600052603260045260246000fd5b60200260200101819052508781600181518110612e37577f4e487b7100000000000000000000000000000000000000000000000000000000600052603260045260246000fd5b60200260200101819052508581600281518110612e7d577f4e487b7100000000000000000000000000000000000000000000000000000000600052603260045260246000fd5b60200260200101819052508381600381518110612ec3577f4e487b7100000000000000000000000000000000000000000000000000000000600052603260045260246000fd5b6020026020010181905250612ed8828261348a565b9250505098975050505050505050565b600080823b905060008111915050919050565b606060008690506000869050600086905060008690506000869050600081518351855187518951612f2c91906148ea565b612f3691906148ea565b612f4091906148ea565b612f4a91906148ea565b67ffffffffffffffff811115612f89577f4e487b7100000000000000000000000000000000000000000000000000000000600052604160045260246000fd5b6040519080825280601f01601f191660200182016040528015612fbb5781602001600182028036833780820191505090505b5090506000819050600080600090505b885181101561309f5788818151811061300d577f4e487b7100000000000000000000000000000000000000000000000000000000600052603260045260246000fd5b602001015160f81c60f81b83838061302490614b4c565b94508151811061305d577f4e487b7100000000000000000000000000000000000000000000000000000000600052603260045260246000fd5b60200101907effffffffffffffffffffffffffffffffffffffffffffffffffffffffffffff1916908160001a905350808061309790614b4c565b915050612fcb565b600090505b8751811015613178578781815181106130e6577f4e487b7100000000000000000000000000000000000000000000000000000000600052603260045260246000fd5b602001015160f81c60f81b8383806130fd90614b4c565b945081518110613136577f4e487b7100000000000000000000000000000000000000000000000000000000600052603260045260246000fd5b60200101907effffffffffffffffffffffffffffffffffffffffffffffffffffffffffffff1916908160001a905350808061317090614b4c565b9150506130a4565b600090505b8651811015613251578681815181106131bf577f4e487b7100000000000000000000000000000000000000000000000000000000600052603260045260246000fd5b602001015160f81c60f81b8383806131d690614b4c565b94508151811061320f577f4e487b7100000000000000000000000000000000000000000000000000000000600052603260045260246000fd5b60200101907effffffffffffffffffffffffffffffffffffffffffffffffffffffffffffff1916908160001a905350808061324990614b4c565b91505061317d565b600090505b855181101561332a57858181518110613298577f4e487b7100000000000000000000000000000000000000000000000000000000600052603260045260246000fd5b602001015160f81c60f81b8383806132af90614b4c565b9450815181106132e8577f4e487b7100000000000000000000000000000000000000000000000000000000600052603260045260246000fd5b60200101907effffffffffffffffffffffffffffffffffffffffffffffffffffffffffffff1916908160001a905350808061332290614b4c565b915050613256565b600090505b845181101561340357848181518110613371577f4e487b7100000000000000000000000000000000000000000000000000000000600052603260045260246000fd5b602001015160f81c60f81b83838061338890614b4c565b9450815181106133c1577f4e487b7100000000000000000000000000000000000000000000000000000000600052603260045260246000fd5b60200101907effffffffffffffffffffffffffffffffffffffffffffffffffffffffffffff1916908160001a90535080806133fb90614b4c565b91505061332f565b82995050505050505050505095945050505050565b60008160000154905060008111613464576040517f08c379a000000000000000000000000000000000000000000000000000000000815260040161345b90614681565b60405180910390fd5b6001810382600001819055505050565b6000818361348291906149cb565b905092915050565b6000815183511461349a57600080fd5b60008351905060006006826134af9190614971565b905060008167ffffffffffffffff8111156134f3577f4e487b7100000000000000000000000000000000000000000000000000000000600052604160045260246000fd5b6040519080825280602002602001820160405280156135215781602001602082028036833780820191505090505b50905060005b83811015613a0657868181518110613568577f4e487b7100000000000000000000000000000000000000000000000000000000600052603260045260246000fd5b6020026020010151600001518260006006846135849190614971565b61358e91906148ea565b815181106135c5577f4e487b7100000000000000000000000000000000000000000000000000000000600052603260045260246000fd5b60200260200101818152505086818151811061360a577f4e487b7100000000000000000000000000000000000000000000000000000000600052603260045260246000fd5b6020026020010151602001518260016006846136269190614971565b61363091906148ea565b81518110613667577f4e487b7100000000000000000000000000000000000000000000000000000000600052603260045260246000fd5b6020026020010181815250508581815181106136ac577f4e487b7100000000000000000000000000000000000000000000000000000000600052603260045260246000fd5b6020026020010151600001516001600281106136f1577f4e487b7100000000000000000000000000000000000000000000000000000000600052603260045260246000fd5b60200201518260026006846137069190614971565b61371091906148ea565b81518110613747577f4e487b7100000000000000000000000000000000000000000000000000000000600052603260045260246000fd5b60200260200101818152505085818151811061378c577f4e487b7100000000000000000000000000000000000000000000000000000000600052603260045260246000fd5b6020026020010151600001516000600281106137d1577f4e487b7100000000000000000000000000000000000000000000000000000000600052603260045260246000fd5b60200201518260036006846137e69190614971565b6137f091906148ea565b81518110613827577f4e487b7100000000000000000000000000000000000000000000000000000000600052603260045260246000fd5b60200260200101818152505085818151811061386c577f4e487b7100000000000000000000000000000000000000000000000000000000600052603260045260246000fd5b6020026020010151602001516001600281106138b1577f4e487b7100000000000000000000000000000000000000000000000000000000600052603260045260246000fd5b60200201518260046006846138c69190614971565b6138d091906148ea565b81518110613907577f4e487b7100000000000000000000000000000000000000000000000000000000600052603260045260246000fd5b60200260200101818152505085818151811061394c577f4e487b7100000000000000000000000000000000000000000000000000000000600052603260045260246000fd5b602002602001015160200151600060028110613991577f4e487b7100000000000000000000000000000000000000000000000000000000600052603260045260246000fd5b60200201518260056006846139a69190614971565b6139b091906148ea565b815181106139e7577f4e487b7100000000000000000000000000000000000000000000000000000000600052603260045260246000fd5b60200260200101818152505080806139fe90614b4c565b915050613527565b50613a0f613be2565b6000602082602086026020860160086107d05a03fa90508060008114613a3457613a36565bfe5b5080613a4157600080fd5b600082600060018110613a7d577f4e487b7100000000000000000000000000000000000000000000000000000000600052603260045260246000fd5b602002015114159550505050505092915050565b828054613a9d90614ae9565b90600052602060002090601f016020900481019282613abf5760008555613b06565b82601f10613ad857805160ff1916838001178555613b06565b82800160010185558215613b06579182015b82811115613b05578251825591602001919060010190613aea565b5b509050613b139190613c04565b5090565b6040518060a00160405280613b2a613b5e565b8152602001613b37613bbc565b8152602001613b44613bbc565b8152602001613b51613bbc565b8152602001606081525090565b604051806040016040528060008152602001600081525090565b6040518060600160405280600390602082028036833780820191505090505090565b6040518060800160405280600490602082028036833780820191505090505090565b6040518060400160405280613bcf613c21565b8152602001613bdc613c21565b81525090565b6040518060200160405280600190602082028036833780820191505090505090565b5b80821115613c1d576000816000905550600101613c05565b5090565b6040518060400160405280600290602082028036833780820191505090505090565b6000613c56613c51846147fd565b6147d8565b90508082856020860282011115613c6c57600080fd5b60005b85811015613c9c5781613c828882613eff565b845260208401935060208301925050600181019050613c6f565b5050509392505050565b6000613cb9613cb484614823565b6147d8565b905082815260208101848484011115613cd157600080fd5b613cdc848285614a7d565b509392505050565b6000613cf7613cf284614854565b6147d8565b905082815260208101848484011115613d0f57600080fd5b613d1a848285614a7d565b509392505050565b600081359050613d3181614e2a565b92915050565b600082601f830112613d4857600080fd5b6002613d55848285613c43565b91505092915050565b600081359050613d6d81614e41565b92915050565b600081359050613d8281614e58565b92915050565b600081359050613d9781614e6f565b92915050565b600081519050613dac81614e6f565b92915050565b600082601f830112613dc357600080fd5b8135613dd3848260208601613ca6565b91505092915050565b600082601f830112613ded57600080fd5b8135613dfd848260208601613ce4565b91505092915050565b600060408284031215613e1857600080fd5b613e2260406147d8565b90506000613e3284828501613eff565b6000830152506020613e4684828501613eff565b60208301525092915050565b600060808284031215613e6457600080fd5b613e6e60406147d8565b90506000613e7e84828501613d37565b6000830152506040613e9284828501613d37565b60208301525092915050565b60006101008284031215613eb157600080fd5b613ebb60606147d8565b90506000613ecb84828501613e06565b6000830152506040613edf84828501613e52565b60208301525060c0613ef384828501613e06565b60408301525092915050565b600081359050613f0e81614e86565b92915050565b600060208284031215613f2657600080fd5b6000613f3484828501613d22565b91505092915050565b60008060408385031215613f5057600080fd5b6000613f5e85828601613d22565b9250506020613f6f85828601613d22565b9150509250929050565b600080600060608486031215613f8e57600080fd5b6000613f9c86828701613d22565b9350506020613fad86828701613d22565b9250506040613fbe86828701613eff565b9150509250925092565b60008060008060808587031215613fde57600080fd5b6000613fec87828801613d22565b9450506020613ffd87828801613d22565b935050604061400e87828801613eff565b925050606085013567ffffffffffffffff81111561402b57600080fd5b61403787828801613db2565b91505092959194509250565b6000806040838503121561405657600080fd5b600061406485828601613d22565b925050602061407585828601613d5e565b9150509250929050565b6000806040838503121561409257600080fd5b60006140a085828601613d22565b92505060206140b185828601613eff565b9150509250929050565b6000602082840312156140cd57600080fd5b60006140db84828501613d5e565b91505092915050565b600080604083850312156140f757600080fd5b600061410585828601613d73565b925050602061411685828601613d22565b9150509250929050565b6000806040838503121561413357600080fd5b600061414185828601613d73565b925050602083013567ffffffffffffffff81111561415e57600080fd5b61416a85828601613ddc565b9150509250929050565b60008060006060848603121561418957600080fd5b600061419786828701613d73565b935050602084013567ffffffffffffffff8111156141b457600080fd5b6141c086828701613ddc565b925050604084013567ffffffffffffffff8111156141dd57600080fd5b6141e986828701613db2565b9150509250925092565b60006020828403121561420557600080fd5b600061421384828501613d88565b91505092915050565b60006020828403121561422e57600080fd5b600061423c84828501613d9d565b91505092915050565b600080610140838503121561425957600080fd5b600061426785828601613e9e565b92505061010061427985828601613d37565b9150509250929050565b60006020828403121561429557600080fd5b60006142a384828501613eff565b91505092915050565b60006142b88383614596565b60208301905092915050565b6142cd816149ff565b82525050565b6142dc8161488f565b6142e681846148bd565b92506142f182614885565b8060005b8381101561432257815161430987826142ac565b9650614314836148b0565b9250506001810190506142f5565b505050505050565b61433381614a11565b82525050565b61434281614a1d565b82525050565b60006143538261489a565b61435d81856148c8565b935061436d818560208601614a8c565b61437681614c82565b840191505092915050565b600061438c826148a5565b61439681856148d9565b93506143a6818560208601614a8c565b6143af81614c82565b840191505092915050565b60006143c7601b836148d9565b91506143d282614c93565b602082019050919050565b60006143ea601a836148d9565b91506143f582614cbc565b602082019050919050565b600061440d6019836148d9565b915061441882614ce5565b602082019050919050565b60006144306018836148d9565b915061443b82614d0e565b602082019050919050565b60006144536013836148d9565b915061445e82614d37565b602082019050919050565b60006144766018836148d9565b915061448182614d60565b602082019050919050565b60006144996021836148d9565b91506144a482614d89565b604082019050919050565b60006144bc6017836148d9565b91506144c782614dd8565b602082019050919050565b60006144df6014836148d9565b91506144ea82614e01565b602082019050919050565b60408201600082015161450b6000850182614596565b50602082015161451e6020850182614596565b50505050565b60808201600082015161453a60008501826142d3565b50602082015161454d60408501826142d3565b50505050565b6101008201600082015161456a60008501826144f5565b50602082015161457d6040850182614524565b50604082015161459060c08501826144f5565b50505050565b61459f81614a73565b82525050565b6145ae81614a73565b82525050565b60006020820190506145c960008301846142c4565b92915050565b60006080820190506145e460008301876142c4565b6145f160208301866142c4565b6145fe60408301856145a5565b81810360608301526146108184614348565b905095945050505050565b6000602082019050614630600083018461432a565b92915050565b600060408201905061464b6000830185614339565b61465860208301846142c4565b9392505050565b600060208201905081810360008301526146798184614381565b905092915050565b6000602082019050818103600083015261469a816143ba565b9050919050565b600060208201905081810360008301526146ba816143dd565b9050919050565b600060208201905081810360008301526146da81614400565b9050919050565b600060208201905081810360008301526146fa81614423565b9050919050565b6000602082019050818103600083015261471a81614446565b9050919050565b6000602082019050818103600083015261473a81614469565b9050919050565b6000602082019050818103600083015261475a8161448c565b9050919050565b6000602082019050818103600083015261477a816144af565b9050919050565b6000602082019050818103600083015261479a816144d2565b9050919050565b6000610100820190506147b76000830184614553565b92915050565b60006020820190506147d260008301846145a5565b92915050565b60006147e26147f3565b90506147ee8282614b1b565b919050565b6000604051905090565b600067ffffffffffffffff82111561481857614817614c53565b5b602082029050919050565b600067ffffffffffffffff82111561483e5761483d614c53565b5b61484782614c82565b9050602081019050919050565b600067ffffffffffffffff82111561486f5761486e614c53565b5b61487882614c82565b9050602081019050919050565b6000819050919050565b600060029050919050565b600081519050919050565b600081519050919050565b6000602082019050919050565b600081905092915050565b600082825260208201905092915050565b600082825260208201905092915050565b60006148f582614a73565b915061490083614a73565b9250827fffffffffffffffffffffffffffffffffffffffffffffffffffffffffffffffff0382111561493557614934614bc6565b5b828201905092915050565b600061494b82614a73565b915061495683614a73565b92508261496657614965614bf5565b5b828204905092915050565b600061497c82614a73565b915061498783614a73565b9250817fffffffffffffffffffffffffffffffffffffffffffffffffffffffffffffffff04831182151516156149c0576149bf614bc6565b5b828202905092915050565b60006149d682614a73565b91506149e183614a73565b9250828210156149f4576149f3614bc6565b5b828203905092915050565b6000614a0a82614a53565b9050919050565b60008115159050919050565b6000819050919050565b60007fffffffff0000000000000000000000000000000000000000000000000000000082169050919050565b600073ffffffffffffffffffffffffffffffffffffffff82169050919050565b6000819050919050565b82818337600083830152505050565b60005b83811015614aaa578082015181840152602081019050614a8f565b83811115614ab9576000848401525b50505050565b6000614aca82614a73565b91506000821415614ade57614add614bc6565b5b600182039050919050565b60006002820490506001821680614b0157607f821691505b60208210811415614b1557614b14614c24565b5b50919050565b614b2482614c82565b810181811067ffffffffffffffff82111715614b4357614b42614c53565b5b80604052505050565b6000614b5782614a73565b91507fffffffffffffffffffffffffffffffffffffffffffffffffffffffffffffffff821415614b8a57614b89614bc6565b5b600182019050919050565b6000614ba082614a73565b9150614bab83614a73565b925082614bbb57614bba614bf5565b5b828206905092915050565b7f4e487b7100000000000000000000000000000000000000000000000000000000600052601160045260246000fd5b7f4e487b7100000000000000000000000000000000000000000000000000000000600052601260045260246000fd5b7f4e487b7100000000000000000000000000000000000000000000000000000000600052602260045260246000fd5b7f4e487b7100000000000000000000000000000000000000000000000000000000600052604160045260246000fd5b6000601f19601f8301169050919050565b7f436f756e7465723a2064656372656d656e74206f766572666c6f770000000000600082015250565b7f696e76616c69642061646472657373206f7220746f6b656e4964000000000000600082015250565b7f696e76616c696420726563697069656e74206164647265737300000000000000600082015250565b7f66726f6d206d75737420626520746f6b656e206f776e65720000000000000000600082015250565b7f70726f6f66206d7573742062652076616c696400000000000000000000000000600082015250565b7f696e636f7272656374206164647265737320666f726d61740000000000000000600082015250565b7f726563697069656e74206d757374206e6f7420626520746f6b656e206f776e6560008201527f7200000000000000000000000000000000000000000000000000000000000000602082015250565b7f70726f6f6620616c7265616479207375626d6974746564000000000000000000600082015250565b7f63616c6c6572206d757374206265206f776e6572000000000000000000000000600082015250565b614e33816149ff565b8114614e3e57600080fd5b50565b614e4a81614a11565b8114614e5557600080fd5b50565b614e6181614a1d565b8114614e6c57600080fd5b50565b614e7881614a27565b8114614e8357600080fd5b50565b614e8f81614a73565b8114614e9a57600080fd5b5056fea26469706673582212205e32b6bbef34db9338a641e133b9811531e41677cdd2eefbbc301f912384c21764736f6c6343000801003368747470733a2f2f73332d75732d776573742d322e616d617a6f6e6177732e636f6d2f756461636974792d626c6f636b636861696e2f63617073746f6e652f",
  "immutableReferences": {},
  "source": "// SPDX-License-Identifier: LGPL-3.0-only\n// This file is LGPL3 Licensed\npragma solidity ^0.8.0;\n\nimport \"@openzeppelin/contracts/utils/Counters.sol\";\nimport \"./ERC721Mintable.sol\";\nimport \"./verifier.sol\";\n\n// TODO define a contract call to the zokrates generated solidity contract <Verifier> or <renamedVerifier>\n\n// TODO define another contract named SolnSquareVerifier that inherits from your ERC721Mintable class\ncontract SolnSquareVerifier is CustomERC721Token, Verifier {\n  using Counters for Counters.Counter;\n  // TODO define a solutions struct that can hold an index & an address\n  struct Solution {\n    bytes32 index;\n    address caller;\n  }\n  Counters.Counter tokenId;\n  // TODO define an array of the above struct\n  Solution[] solutions;\n  // TODO define a mapping to store unique solutions submitted\n  mapping(address => Solution) uniqSolutions;\n  // TODO Create an event to emit when a solution is added\n  event SolutionAdded(bytes32 indexed index, address indexed caller);\n\n  modifier solutionIsUniq(bytes32 input, address caller) {\n    require(uniqSolutions[caller].index != input, \"proof already submitted\");\n    _;\n  }\n\n  // TODO Create a function to add the solutions to the array and emit the event\n  function add(bytes32 _index, address _caller) public {\n    Solution memory _solution = Solution({ index: _index, caller: _caller });\n    solutions.push(_solution);\n    uniqSolutions[_caller] = _solution;\n    emit SolutionAdded(_index, _caller);\n  }\n\n  // TODO Create a function to mint new NFT only after the solution has been verified\n  //  - make sure the solution is unique (has not been used before)\n  //  - make sure you handle metadata as well as tokenSuplly\n\n  function mintToken(Proof memory proof, uint256[2] memory input)\n    public\n    solutionIsUniq(keccak256(abi.encode(proof)), msg.sender)\n  {\n    bool _check = verifyTx(proof, input);\n    require(_check, \"proof must be valid\");\n    this.add(keccak256(abi.encode(proof)), msg.sender);\n    mint(msg.sender, tokenId.current());\n    tokenId.increment();\n  }\n}",
  "sourcePath": "/home/bzzzpy/Documents/Blockchain-Capstone/eth-contracts/contracts/SolnSquareVerifier.sol",
  "compiler": {
    "name": "solc",
    "version": "0.8.1+commit.df193b15.Emscripten.clang"
  },
  "schemaVersion": "3.4.3",
  "updatedAt": "2021-09-03T07:18:32.783Z",
  "devdoc": {
    "kind": "dev",
    "methods": {
      "__callback(bytes32,string)": {
        "details": "The following `__callback` functions are just placeholders ideally      meant to be defined in child contract when proofs are used.      The function bodies simply silence compiler warnings."
      },
      "isApprovedForAll(address,address)": {
        "details": "Tells whether an operator is approved by a given owner",
        "params": {
          "operator": "operator address which you want to query the approval of",
          "owner": "owner address which you want to query the approval of"
        },
        "returns": {
          "_0": "bool whether the given operator is approved by the given owner"
        }
      },
      "setApprovalForAll(address,bool)": {
        "details": "Sets or unsets the approval of a given operator An operator is allowed to transfer all tokens of the sender on their behalf",
        "params": {
          "approved": "representing the status of the approval to be set",
          "to": "operator address to set the approval"
        }
      },
      "supportsInterface(bytes4)": {
        "details": "implement supportsInterface(bytes4) using a lookup table"
      },
      "tokenByIndex(uint256)": {
        "details": "Gets the token ID at a given index of all the tokens in this contract Reverts if the index is greater or equal to the total number of tokens",
        "params": {
          "index": "uint256 representing the index to be accessed of the tokens list"
        },
        "returns": {
          "_0": "uint256 token ID at the given index of the tokens list"
        }
      },
      "tokenOfOwnerByIndex(address,uint256)": {
        "details": "Gets the token ID at a given index of the tokens list of the requested owner",
        "params": {
          "index": "uint256 representing the index to be accessed of the requested tokens list",
          "owner": "address owning the tokens list to be accessed"
        },
        "returns": {
          "_0": "uint256 token ID at the given index of the tokens list owned by the requested address"
        }
      },
      "totalSupply()": {
        "details": "Gets the total amount of tokens stored by the contract",
        "returns": {
          "_0": "uint256 representing the total amount of tokens"
        }
      }
    },
    "version": 1
  },
  "userdoc": {
    "kind": "user",
    "methods": {},
    "version": 1
  }
}