{
  "contractName": "Verifier",
  "abi": [
    {
      "inputs": [
        {
          "components": [
            {
              "components": [
                {
                  "internalType": "uint256",
                  "name": "X",
                  "type": "uint256"
                },
                {
                  "internalType": "uint256",
                  "name": "Y",
                  "type": "uint256"
                }
              ],
              "internalType": "struct Pairing.G1Point",
              "name": "a",
              "type": "tuple"
            },
            {
              "components": [
                {
                  "internalType": "uint256[2]",
                  "name": "X",
                  "type": "uint256[2]"
                },
                {
                  "internalType": "uint256[2]",
                  "name": "Y",
                  "type": "uint256[2]"
                }
              ],
              "internalType": "struct Pairing.G2Point",
              "name": "b",
              "type": "tuple"
            },
            {
              "components": [
                {
                  "internalType": "uint256",
                  "name": "X",
                  "type": "uint256"
                },
                {
                  "internalType": "uint256",
                  "name": "Y",
                  "type": "uint256"
                }
              ],
              "internalType": "struct Pairing.G1Point",
              "name": "c",
              "type": "tuple"
            }
          ],
          "internalType": "struct Verifier.Proof",
          "name": "proof",
          "type": "tuple"
        },
        {
          "internalType": "uint256[2]",
          "name": "input",
          "type": "uint256[2]"
        }
      ],
      "name": "verifyTx",
      "outputs": [
        {
          "internalType": "bool",
          "name": "r",
          "type": "bool"
        }
      ],
      "stateMutability": "view",
      "type": "function"
    }
  ],
  "bytecode": "0x608060405234801561001057600080fd5b50611b40806100206000396000f3fe608060405234801561001057600080fd5b506004361061002b5760003560e01c806343cd76fc14610030575b600080fd5b61004a600480360381019061004591906117fd565b610060565b604051610057919061184a565b60405180910390f35b600080600267ffffffffffffffff8111156100a4577f4e487b7100000000000000000000000000000000000000000000000000000000600052604160045260246000fd5b6040519080825280602002602001820160405280156100d25781602001602082028036833780820191505090505b50905060005b60028110156101775783816002811061011a577f4e487b7100000000000000000000000000000000000000000000000000000000600052603260045260246000fd5b6020020151828281518110610158577f4e487b7100000000000000000000000000000000000000000000000000000000600052603260045260246000fd5b602002602001018181525050808061016f906119db565b9150506100d8565b50600061018482866101a0565b141561019457600191505061019a565b60009150505b92915050565b6000807f30644e72e131a029b85045b68181585d2833e84879b9709143e1f593f0000001905060006101d06103cf565b9050806080015151600186516101e691906118b0565b146101f057600080fd5b60006040518060400160405280600081526020016000815250905060005b865181101561031b5783878281518110610251577f4e487b7100000000000000000000000000000000000000000000000000000000600052603260045260246000fd5b60200260200101511061026357600080fd5b61030682610301856080015160018561027c91906118b0565b815181106102b3577f4e487b7100000000000000000000000000000000000000000000000000000000600052603260045260246000fd5b60200260200101518a85815181106102f4577f4e487b7100000000000000000000000000000000000000000000000000000000600052603260045260246000fd5b60200260200101516108e3565b6109fc565b91508080610313906119db565b91505061020e565b5061036b81836080015160008151811061035e577f4e487b7100000000000000000000000000000000000000000000000000000000600052603260045260246000fd5b60200260200101516109fc565b90506103b18560000151866020015161038384610b61565b85604001516103958a60400151610b61565b87606001516103a78960000151610b61565b8960200151610c06565b6103c157600193505050506103c9565b600093505050505b92915050565b6103d7611556565b60405180604001604052807f11d04051dfa24197c951db85811bdd2c379ff160d59c527900376803b5da6d1281526020017f2c3550f6a11179451f225b11c1b6ec36dd23ee190619bfdd0976b34989f43a528152508160000181905250604051806040016040528060405180604001604052807f1add679852e7cbe6cdaf83e2dc628a45fdcb3a9819d3914ef37dd17003dbfa0681526020017f08e0663edef3226cb287662a5b57e6f66519f68e6ce1ee5e0a7a2ca279c1d3d7815250815260200160405180604001604052807f13dbfd733214ef94afec2f3d608c9c93ac31cf2d8b4e10b6ae96089df973f2ce81526020017f21196295f0fb5aae2e67680f3f741822014f709f39f2205260faf0423a6060458152508152508160200181905250604051806040016040528060405180604001604052807f234a9d17c9dfc7606f7f4639f74e478e24adc9432402422bd0b4e6055f700b9481526020017f078d4fbb6c4ba83e248d6af6c57898189b1d42205d04aeb287283c52f341d6fd815250815260200160405180604001604052807f0cf8bc6df8078edf3be7861769600ffdd0f6cdbee70ed6de5b4c788f68600b8081526020017f20cee0a54011e67088ada2eb368a0c735232d061da4ee533faae69d2940ea5988152508152508160400181905250604051806040016040528060405180604001604052807f24889e8710fd954f3bf426dd31ae4da63b16f3366d51a7d5e6b9fbfabbd08e8b81526020017f0498faf797d188c9bd9e7e6c8f20a31d758867bd07bd1230829ba08d2b21e835815250815260200160405180604001604052807f0ec7f959e443951e634636a8d799ccb0b55a9f6d0d57cdc9f79298d8e345c69a81526020017f04c337b781b0d2d4920791f02f3950f1020ed57355024463d0737e42f5e7103d8152508152508160600181905250600367ffffffffffffffff8111156106c4577f4e487b7100000000000000000000000000000000000000000000000000000000600052604160045260246000fd5b6040519080825280602002602001820160405280156106fd57816020015b6106ea61159d565b8152602001906001900390816106e25790505b50816080018190525060405180604001604052807f26c050f4fdababfea0ca4ac42b61434e9aa3238121e4717f46779983dea95efd81526020017f153796ebc5c265b8d9f3e12a37c3347ad9d1782fb493f7336efaef309dd8f3028152508160800151600081518110610799577f4e487b7100000000000000000000000000000000000000000000000000000000600052603260045260246000fd5b602002602001018190525060405180604001604052807f1bcf0460dda7644589d32f728db1bcf71a6a8335f4f984fdbb2af42de8a631c481526020017f225c4e5a8a933d5e2934bee490358a947627b378631feb262e238b38a2bcce3c8152508160800151600181518110610837577f4e487b7100000000000000000000000000000000000000000000000000000000600052603260045260246000fd5b602002602001018190525060405180604001604052807f1fdf934e7abaa0e1d83559a60bdc1c75f721520859075a13afd4c3abc218b07581526020017f2f2147805e090d941e4915e648a8f30686e77173e7179c0661cf6ef7d5e868d481525081608001516002815181106108d5577f4e487b7100000000000000000000000000000000000000000000000000000000600052603260045260246000fd5b602002602001018190525090565b6108eb61159d565b6108f36115b7565b836000015181600060038110610932577f4e487b7100000000000000000000000000000000000000000000000000000000600052603260045260246000fd5b60200201818152505083602001518160016003811061097a577f4e487b7100000000000000000000000000000000000000000000000000000000600052603260045260246000fd5b60200201818152505082816002600381106109be577f4e487b7100000000000000000000000000000000000000000000000000000000600052603260045260246000fd5b602002018181525050600060608360808460076107d05a03fa905080600081146109e7576109e9565bfe5b50806109f457600080fd5b505092915050565b610a0461159d565b610a0c6115d9565b836000015181600060048110610a4b577f4e487b7100000000000000000000000000000000000000000000000000000000600052603260045260246000fd5b602002018181525050836020015181600160048110610a93577f4e487b7100000000000000000000000000000000000000000000000000000000600052603260045260246000fd5b602002018181525050826000015181600260048110610adb577f4e487b7100000000000000000000000000000000000000000000000000000000600052603260045260246000fd5b602002018181525050826020015181600360048110610b23577f4e487b7100000000000000000000000000000000000000000000000000000000600052603260045260246000fd5b602002018181525050600060608360c08460066107d05a03fa90508060008114610b4c57610b4e565bfe5b5080610b5957600080fd5b505092915050565b610b6961159d565b60007f30644e72e131a029b85045b68181585d97816a916871ca8d3c208c16d87cfd47905060008360000151148015610ba6575060008360200151145b15610bca576040518060400160405280600081526020016000815250915050610c01565b604051806040016040528084600001518152602001828560200151610bef9190611a24565b83610bfa9190611960565b8152509150505b919050565b600080600467ffffffffffffffff811115610c4a577f4e487b7100000000000000000000000000000000000000000000000000000000600052604160045260246000fd5b604051908082528060200260200182016040528015610c8357816020015b610c7061159d565b815260200190600190039081610c685790505b5090506000600467ffffffffffffffff811115610cc9577f4e487b7100000000000000000000000000000000000000000000000000000000600052604160045260246000fd5b604051908082528060200260200182016040528015610d0257816020015b610cef6115fb565b815260200190600190039081610ce75790505b5090508a82600081518110610d40577f4e487b7100000000000000000000000000000000000000000000000000000000600052603260045260246000fd5b60200260200101819052508882600181518110610d86577f4e487b7100000000000000000000000000000000000000000000000000000000600052603260045260246000fd5b60200260200101819052508682600281518110610dcc577f4e487b7100000000000000000000000000000000000000000000000000000000600052603260045260246000fd5b60200260200101819052508482600381518110610e12577f4e487b7100000000000000000000000000000000000000000000000000000000600052603260045260246000fd5b60200260200101819052508981600081518110610e58577f4e487b7100000000000000000000000000000000000000000000000000000000600052603260045260246000fd5b60200260200101819052508781600181518110610e9e577f4e487b7100000000000000000000000000000000000000000000000000000000600052603260045260246000fd5b60200260200101819052508581600281518110610ee4577f4e487b7100000000000000000000000000000000000000000000000000000000600052603260045260246000fd5b60200260200101819052508381600381518110610f2a577f4e487b7100000000000000000000000000000000000000000000000000000000600052603260045260246000fd5b6020026020010181905250610f3f8282610f4f565b9250505098975050505050505050565b60008151835114610f5f57600080fd5b6000835190506000600682610f749190611906565b905060008167ffffffffffffffff811115610fb8577f4e487b7100000000000000000000000000000000000000000000000000000000600052604160045260246000fd5b604051908082528060200260200182016040528015610fe65781602001602082028036833780820191505090505b50905060005b838110156114cb5786818151811061102d577f4e487b7100000000000000000000000000000000000000000000000000000000600052603260045260246000fd5b6020026020010151600001518260006006846110499190611906565b61105391906118b0565b8151811061108a577f4e487b7100000000000000000000000000000000000000000000000000000000600052603260045260246000fd5b6020026020010181815250508681815181106110cf577f4e487b7100000000000000000000000000000000000000000000000000000000600052603260045260246000fd5b6020026020010151602001518260016006846110eb9190611906565b6110f591906118b0565b8151811061112c577f4e487b7100000000000000000000000000000000000000000000000000000000600052603260045260246000fd5b602002602001018181525050858181518110611171577f4e487b7100000000000000000000000000000000000000000000000000000000600052603260045260246000fd5b6020026020010151600001516001600281106111b6577f4e487b7100000000000000000000000000000000000000000000000000000000600052603260045260246000fd5b60200201518260026006846111cb9190611906565b6111d591906118b0565b8151811061120c577f4e487b7100000000000000000000000000000000000000000000000000000000600052603260045260246000fd5b602002602001018181525050858181518110611251577f4e487b7100000000000000000000000000000000000000000000000000000000600052603260045260246000fd5b602002602001015160000151600060028110611296577f4e487b7100000000000000000000000000000000000000000000000000000000600052603260045260246000fd5b60200201518260036006846112ab9190611906565b6112b591906118b0565b815181106112ec577f4e487b7100000000000000000000000000000000000000000000000000000000600052603260045260246000fd5b602002602001018181525050858181518110611331577f4e487b7100000000000000000000000000000000000000000000000000000000600052603260045260246000fd5b602002602001015160200151600160028110611376577f4e487b7100000000000000000000000000000000000000000000000000000000600052603260045260246000fd5b602002015182600460068461138b9190611906565b61139591906118b0565b815181106113cc577f4e487b7100000000000000000000000000000000000000000000000000000000600052603260045260246000fd5b602002602001018181525050858181518110611411577f4e487b7100000000000000000000000000000000000000000000000000000000600052603260045260246000fd5b602002602001015160200151600060028110611456577f4e487b7100000000000000000000000000000000000000000000000000000000600052603260045260246000fd5b602002015182600560068461146b9190611906565b61147591906118b0565b815181106114ac577f4e487b7100000000000000000000000000000000000000000000000000000000600052603260045260246000fd5b60200260200101818152505080806114c3906119db565b915050610fec565b506114d4611621565b6000602082602086026020860160086107d05a03fa905080600081146114f9576114fb565bfe5b508061150657600080fd5b600082600060018110611542577f4e487b7100000000000000000000000000000000000000000000000000000000600052603260045260246000fd5b602002015114159550505050505092915050565b6040518060a0016040528061156961159d565b81526020016115766115fb565b81526020016115836115fb565b81526020016115906115fb565b8152602001606081525090565b604051806040016040528060008152602001600081525090565b6040518060600160405280600390602082028036833780820191505090505090565b6040518060800160405280600490602082028036833780820191505090505090565b604051806040016040528061160e611643565b815260200161161b611643565b81525090565b6040518060200160405280600190602082028036833780820191505090505090565b6040518060400160405280600290602082028036833780820191505090505090565b60006116786116738461188a565b611865565b9050808285602086028201111561168e57600080fd5b60005b858110156116be57816116a488826117e8565b845260208401935060208301925050600181019050611691565b5050509392505050565b600082601f8301126116d957600080fd5b60026116e6848285611665565b91505092915050565b60006040828403121561170157600080fd5b61170b6040611865565b9050600061171b848285016117e8565b600083015250602061172f848285016117e8565b60208301525092915050565b60006080828403121561174d57600080fd5b6117576040611865565b90506000611767848285016116c8565b600083015250604061177b848285016116c8565b60208301525092915050565b6000610100828403121561179a57600080fd5b6117a46060611865565b905060006117b4848285016116ef565b60008301525060406117c88482850161173b565b60208301525060c06117dc848285016116ef565b60408301525092915050565b6000813590506117f781611af3565b92915050565b600080610140838503121561181157600080fd5b600061181f85828601611787565b925050610100611831858286016116c8565b9150509250929050565b61184481611994565b82525050565b600060208201905061185f600083018461183b565b92915050565b600061186f611880565b905061187b82826119aa565b919050565b6000604051905090565b600067ffffffffffffffff8211156118a5576118a4611ab3565b5b602082029050919050565b60006118bb826119a0565b91506118c6836119a0565b9250827fffffffffffffffffffffffffffffffffffffffffffffffffffffffffffffffff038211156118fb576118fa611a55565b5b828201905092915050565b6000611911826119a0565b915061191c836119a0565b9250817fffffffffffffffffffffffffffffffffffffffffffffffffffffffffffffffff048311821515161561195557611954611a55565b5b828202905092915050565b600061196b826119a0565b9150611976836119a0565b92508282101561198957611988611a55565b5b828203905092915050565b60008115159050919050565b6000819050919050565b6119b382611ae2565b810181811067ffffffffffffffff821117156119d2576119d1611ab3565b5b80604052505050565b60006119e6826119a0565b91507fffffffffffffffffffffffffffffffffffffffffffffffffffffffffffffffff821415611a1957611a18611a55565b5b600182019050919050565b6000611a2f826119a0565b9150611a3a836119a0565b925082611a4a57611a49611a84565b5b828206905092915050565b7f4e487b7100000000000000000000000000000000000000000000000000000000600052601160045260246000fd5b7f4e487b7100000000000000000000000000000000000000000000000000000000600052601260045260246000fd5b7f4e487b7100000000000000000000000000000000000000000000000000000000600052604160045260246000fd5b6000601f19601f8301169050919050565b611afc816119a0565b8114611b0757600080fd5b5056fea2646970667358221220d251e966b6a30b154ade6e0f98934fc85ec5bad29f9bdfce0a82fcd582228cd964736f6c63430008010033",
  "immutableReferences": {},
  "source": "// SPDX-License-Identifier: LGPL-3.0-only\n// This file is LGPL3 Licensed\npragma solidity ^0.8.0;\n\n/**\n * @title Elliptic curve operations on twist points for alt_bn128\n * @author Mustafa Al-Bassam (mus@musalbas.com)\n * @dev Homepage: https://github.com/musalbas/solidity-BN256G2\n */\n\nlibrary BN256G2 {\n  uint256 internal constant FIELD_MODULUS =\n    0x30644e72e131a029b85045b68181585d97816a916871ca8d3c208c16d87cfd47;\n  uint256 internal constant TWISTBX =\n    0x2b149d40ceb8aaae81be18991be06ac3b5b4c5e559dbefa33267e6dc24a138e5;\n  uint256 internal constant TWISTBY =\n    0x9713b03af0fed4cd2cafadeed8fdf4a74fa084e52d1852e4a2bd0685c315d2;\n  uint256 internal constant PTXX = 0;\n  uint256 internal constant PTXY = 1;\n  uint256 internal constant PTYX = 2;\n  uint256 internal constant PTYY = 3;\n  uint256 internal constant PTZX = 4;\n  uint256 internal constant PTZY = 5;\n\n  /**\n   * @notice Add two twist points\n   * @param pt1xx Coefficient 1 of x on point 1\n   * @param pt1xy Coefficient 2 of x on point 1\n   * @param pt1yx Coefficient 1 of y on point 1\n   * @param pt1yy Coefficient 2 of y on point 1\n   * @param pt2xx Coefficient 1 of x on point 2\n   * @param pt2xy Coefficient 2 of x on point 2\n   * @param pt2yx Coefficient 1 of y on point 2\n   * @param pt2yy Coefficient 2 of y on point 2\n   * @return (pt3xx, pt3xy, pt3yx, pt3yy)\n   */\n  function ECTwistAdd(\n    uint256 pt1xx,\n    uint256 pt1xy,\n    uint256 pt1yx,\n    uint256 pt1yy,\n    uint256 pt2xx,\n    uint256 pt2xy,\n    uint256 pt2yx,\n    uint256 pt2yy\n  )\n    public\n    view\n    returns (\n      uint256,\n      uint256,\n      uint256,\n      uint256\n    )\n  {\n    if (pt1xx == 0 && pt1xy == 0 && pt1yx == 0 && pt1yy == 0) {\n      if (!(pt2xx == 0 && pt2xy == 0 && pt2yx == 0 && pt2yy == 0)) {\n        assert(_isOnCurve(pt2xx, pt2xy, pt2yx, pt2yy));\n      }\n      return (pt2xx, pt2xy, pt2yx, pt2yy);\n    } else if (pt2xx == 0 && pt2xy == 0 && pt2yx == 0 && pt2yy == 0) {\n      assert(_isOnCurve(pt1xx, pt1xy, pt1yx, pt1yy));\n      return (pt1xx, pt1xy, pt1yx, pt1yy);\n    }\n\n    assert(_isOnCurve(pt1xx, pt1xy, pt1yx, pt1yy));\n    assert(_isOnCurve(pt2xx, pt2xy, pt2yx, pt2yy));\n\n    uint256[6] memory pt3 = _ECTwistAddJacobian(\n      pt1xx,\n      pt1xy,\n      pt1yx,\n      pt1yy,\n      1,\n      0,\n      pt2xx,\n      pt2xy,\n      pt2yx,\n      pt2yy,\n      1,\n      0\n    );\n\n    return\n      _fromJacobian(\n        pt3[PTXX],\n        pt3[PTXY],\n        pt3[PTYX],\n        pt3[PTYY],\n        pt3[PTZX],\n        pt3[PTZY]\n      );\n  }\n\n  /**\n   * @notice Multiply a twist point by a scalar\n   * @param s     Scalar to multiply by\n   * @param pt1xx Coefficient 1 of x\n   * @param pt1xy Coefficient 2 of x\n   * @param pt1yx Coefficient 1 of y\n   * @param pt1yy Coefficient 2 of y\n   * @return (pt2xx, pt2xy, pt2yx, pt2yy)\n   */\n  function ECTwistMul(\n    uint256 s,\n    uint256 pt1xx,\n    uint256 pt1xy,\n    uint256 pt1yx,\n    uint256 pt1yy\n  )\n    public\n    view\n    returns (\n      uint256,\n      uint256,\n      uint256,\n      uint256\n    )\n  {\n    uint256 pt1zx = 1;\n    if (pt1xx == 0 && pt1xy == 0 && pt1yx == 0 && pt1yy == 0) {\n      pt1xx = 1;\n      pt1yx = 1;\n      pt1zx = 0;\n    } else {\n      assert(_isOnCurve(pt1xx, pt1xy, pt1yx, pt1yy));\n    }\n\n    uint256[6] memory pt2 = _ECTwistMulJacobian(\n      s,\n      pt1xx,\n      pt1xy,\n      pt1yx,\n      pt1yy,\n      pt1zx,\n      0\n    );\n\n    return\n      _fromJacobian(\n        pt2[PTXX],\n        pt2[PTXY],\n        pt2[PTYX],\n        pt2[PTYY],\n        pt2[PTZX],\n        pt2[PTZY]\n      );\n  }\n\n  /**\n   * @notice Get the field modulus\n   * @return The field modulus\n   */\n  function GetFieldModulus() public pure returns (uint256) {\n    return FIELD_MODULUS;\n  }\n\n  function submod(\n    uint256 a,\n    uint256 b,\n    uint256 n\n  ) internal pure returns (uint256) {\n    return addmod(a, n - b, n);\n  }\n\n  function _FQ2Mul(\n    uint256 xx,\n    uint256 xy,\n    uint256 yx,\n    uint256 yy\n  ) internal pure returns (uint256, uint256) {\n    return (\n      submod(\n        mulmod(xx, yx, FIELD_MODULUS),\n        mulmod(xy, yy, FIELD_MODULUS),\n        FIELD_MODULUS\n      ),\n      addmod(\n        mulmod(xx, yy, FIELD_MODULUS),\n        mulmod(xy, yx, FIELD_MODULUS),\n        FIELD_MODULUS\n      )\n    );\n  }\n\n  function _FQ2Muc(\n    uint256 xx,\n    uint256 xy,\n    uint256 c\n  ) internal pure returns (uint256, uint256) {\n    return (mulmod(xx, c, FIELD_MODULUS), mulmod(xy, c, FIELD_MODULUS));\n  }\n\n  function _FQ2Add(\n    uint256 xx,\n    uint256 xy,\n    uint256 yx,\n    uint256 yy\n  ) internal pure returns (uint256, uint256) {\n    return (addmod(xx, yx, FIELD_MODULUS), addmod(xy, yy, FIELD_MODULUS));\n  }\n\n  function _FQ2Sub(\n    uint256 xx,\n    uint256 xy,\n    uint256 yx,\n    uint256 yy\n  ) internal pure returns (uint256 rx, uint256 ry) {\n    return (submod(xx, yx, FIELD_MODULUS), submod(xy, yy, FIELD_MODULUS));\n  }\n\n  function _FQ2Div(\n    uint256 xx,\n    uint256 xy,\n    uint256 yx,\n    uint256 yy\n  ) internal view returns (uint256, uint256) {\n    (yx, yy) = _FQ2Inv(yx, yy);\n    return _FQ2Mul(xx, xy, yx, yy);\n  }\n\n  function _FQ2Inv(uint256 x, uint256 y)\n    internal\n    view\n    returns (uint256, uint256)\n  {\n    uint256 inv = _modInv(\n      addmod(\n        mulmod(y, y, FIELD_MODULUS),\n        mulmod(x, x, FIELD_MODULUS),\n        FIELD_MODULUS\n      ),\n      FIELD_MODULUS\n    );\n    return (\n      mulmod(x, inv, FIELD_MODULUS),\n      FIELD_MODULUS - mulmod(y, inv, FIELD_MODULUS)\n    );\n  }\n\n  function _isOnCurve(\n    uint256 xx,\n    uint256 xy,\n    uint256 yx,\n    uint256 yy\n  ) internal pure returns (bool) {\n    uint256 yyx;\n    uint256 yyy;\n    uint256 xxxx;\n    uint256 xxxy;\n    (yyx, yyy) = _FQ2Mul(yx, yy, yx, yy);\n    (xxxx, xxxy) = _FQ2Mul(xx, xy, xx, xy);\n    (xxxx, xxxy) = _FQ2Mul(xxxx, xxxy, xx, xy);\n    (yyx, yyy) = _FQ2Sub(yyx, yyy, xxxx, xxxy);\n    (yyx, yyy) = _FQ2Sub(yyx, yyy, TWISTBX, TWISTBY);\n    return yyx == 0 && yyy == 0;\n  }\n\n  function _modInv(uint256 a, uint256 n)\n    internal\n    view\n    returns (uint256 result)\n  {\n    bool success;\n    assembly {\n      let freemem := mload(0x40)\n      mstore(freemem, 0x20)\n      mstore(add(freemem, 0x20), 0x20)\n      mstore(add(freemem, 0x40), 0x20)\n      mstore(add(freemem, 0x60), a)\n      mstore(add(freemem, 0x80), sub(n, 2))\n      mstore(add(freemem, 0xA0), n)\n      success := staticcall(sub(gas(), 2000), 5, freemem, 0xC0, freemem, 0x20)\n      result := mload(freemem)\n    }\n    require(success);\n  }\n\n  function _fromJacobian(\n    uint256 pt1xx,\n    uint256 pt1xy,\n    uint256 pt1yx,\n    uint256 pt1yy,\n    uint256 pt1zx,\n    uint256 pt1zy\n  )\n    internal\n    view\n    returns (\n      uint256 pt2xx,\n      uint256 pt2xy,\n      uint256 pt2yx,\n      uint256 pt2yy\n    )\n  {\n    uint256 invzx;\n    uint256 invzy;\n    (invzx, invzy) = _FQ2Inv(pt1zx, pt1zy);\n    (pt2xx, pt2xy) = _FQ2Mul(pt1xx, pt1xy, invzx, invzy);\n    (pt2yx, pt2yy) = _FQ2Mul(pt1yx, pt1yy, invzx, invzy);\n  }\n\n  function _ECTwistAddJacobian(\n    uint256 pt1xx,\n    uint256 pt1xy,\n    uint256 pt1yx,\n    uint256 pt1yy,\n    uint256 pt1zx,\n    uint256 pt1zy,\n    uint256 pt2xx,\n    uint256 pt2xy,\n    uint256 pt2yx,\n    uint256 pt2yy,\n    uint256 pt2zx,\n    uint256 pt2zy\n  ) internal pure returns (uint256[6] memory pt3) {\n    if (pt1zx == 0 && pt1zy == 0) {\n      (pt3[PTXX], pt3[PTXY], pt3[PTYX], pt3[PTYY], pt3[PTZX], pt3[PTZY]) = (\n        pt2xx,\n        pt2xy,\n        pt2yx,\n        pt2yy,\n        pt2zx,\n        pt2zy\n      );\n      return pt3;\n    } else if (pt2zx == 0 && pt2zy == 0) {\n      (pt3[PTXX], pt3[PTXY], pt3[PTYX], pt3[PTYY], pt3[PTZX], pt3[PTZY]) = (\n        pt1xx,\n        pt1xy,\n        pt1yx,\n        pt1yy,\n        pt1zx,\n        pt1zy\n      );\n      return pt3;\n    }\n\n    (pt2yx, pt2yy) = _FQ2Mul(pt2yx, pt2yy, pt1zx, pt1zy); // U1 = y2 * z1\n    (pt3[PTYX], pt3[PTYY]) = _FQ2Mul(pt1yx, pt1yy, pt2zx, pt2zy); // U2 = y1 * z2\n    (pt2xx, pt2xy) = _FQ2Mul(pt2xx, pt2xy, pt1zx, pt1zy); // V1 = x2 * z1\n    (pt3[PTZX], pt3[PTZY]) = _FQ2Mul(pt1xx, pt1xy, pt2zx, pt2zy); // V2 = x1 * z2\n\n    if (pt2xx == pt3[PTZX] && pt2xy == pt3[PTZY]) {\n      if (pt2yx == pt3[PTYX] && pt2yy == pt3[PTYY]) {\n        (\n          pt3[PTXX],\n          pt3[PTXY],\n          pt3[PTYX],\n          pt3[PTYY],\n          pt3[PTZX],\n          pt3[PTZY]\n        ) = _ECTwistDoubleJacobian(pt1xx, pt1xy, pt1yx, pt1yy, pt1zx, pt1zy);\n        return pt3;\n      }\n      (pt3[PTXX], pt3[PTXY], pt3[PTYX], pt3[PTYY], pt3[PTZX], pt3[PTZY]) = (\n        1,\n        0,\n        1,\n        0,\n        0,\n        0\n      );\n      return pt3;\n    }\n\n    (pt2zx, pt2zy) = _FQ2Mul(pt1zx, pt1zy, pt2zx, pt2zy); // W = z1 * z2\n    (pt1xx, pt1xy) = _FQ2Sub(pt2yx, pt2yy, pt3[PTYX], pt3[PTYY]); // U = U1 - U2\n    (pt1yx, pt1yy) = _FQ2Sub(pt2xx, pt2xy, pt3[PTZX], pt3[PTZY]); // V = V1 - V2\n    (pt1zx, pt1zy) = _FQ2Mul(pt1yx, pt1yy, pt1yx, pt1yy); // V_squared = V * V\n    (pt2yx, pt2yy) = _FQ2Mul(pt1zx, pt1zy, pt3[PTZX], pt3[PTZY]); // V_squared_times_V2 = V_squared * V2\n    (pt1zx, pt1zy) = _FQ2Mul(pt1zx, pt1zy, pt1yx, pt1yy); // V_cubed = V * V_squared\n    (pt3[PTZX], pt3[PTZY]) = _FQ2Mul(pt1zx, pt1zy, pt2zx, pt2zy); // newz = V_cubed * W\n    (pt2xx, pt2xy) = _FQ2Mul(pt1xx, pt1xy, pt1xx, pt1xy); // U * U\n    (pt2xx, pt2xy) = _FQ2Mul(pt2xx, pt2xy, pt2zx, pt2zy); // U * U * W\n    (pt2xx, pt2xy) = _FQ2Sub(pt2xx, pt2xy, pt1zx, pt1zy); // U * U * W - V_cubed\n    (pt2zx, pt2zy) = _FQ2Muc(pt2yx, pt2yy, 2); // 2 * V_squared_times_V2\n    (pt2xx, pt2xy) = _FQ2Sub(pt2xx, pt2xy, pt2zx, pt2zy); // A = U * U * W - V_cubed - 2 * V_squared_times_V2\n    (pt3[PTXX], pt3[PTXY]) = _FQ2Mul(pt1yx, pt1yy, pt2xx, pt2xy); // newx = V * A\n    (pt1yx, pt1yy) = _FQ2Sub(pt2yx, pt2yy, pt2xx, pt2xy); // V_squared_times_V2 - A\n    (pt1yx, pt1yy) = _FQ2Mul(pt1xx, pt1xy, pt1yx, pt1yy); // U * (V_squared_times_V2 - A)\n    (pt1xx, pt1xy) = _FQ2Mul(pt1zx, pt1zy, pt3[PTYX], pt3[PTYY]); // V_cubed * U2\n    (pt3[PTYX], pt3[PTYY]) = _FQ2Sub(pt1yx, pt1yy, pt1xx, pt1xy); // newy = U * (V_squared_times_V2 - A) - V_cubed * U2\n  }\n\n  function _ECTwistDoubleJacobian(\n    uint256 pt1xx,\n    uint256 pt1xy,\n    uint256 pt1yx,\n    uint256 pt1yy,\n    uint256 pt1zx,\n    uint256 pt1zy\n  )\n    internal\n    pure\n    returns (\n      uint256 pt2xx,\n      uint256 pt2xy,\n      uint256 pt2yx,\n      uint256 pt2yy,\n      uint256 pt2zx,\n      uint256 pt2zy\n    )\n  {\n    (pt2xx, pt2xy) = _FQ2Muc(pt1xx, pt1xy, 3); // 3 * x\n    (pt2xx, pt2xy) = _FQ2Mul(pt2xx, pt2xy, pt1xx, pt1xy); // W = 3 * x * x\n    (pt1zx, pt1zy) = _FQ2Mul(pt1yx, pt1yy, pt1zx, pt1zy); // S = y * z\n    (pt2yx, pt2yy) = _FQ2Mul(pt1xx, pt1xy, pt1yx, pt1yy); // x * y\n    (pt2yx, pt2yy) = _FQ2Mul(pt2yx, pt2yy, pt1zx, pt1zy); // B = x * y * S\n    (pt1xx, pt1xy) = _FQ2Mul(pt2xx, pt2xy, pt2xx, pt2xy); // W * W\n    (pt2zx, pt2zy) = _FQ2Muc(pt2yx, pt2yy, 8); // 8 * B\n    (pt1xx, pt1xy) = _FQ2Sub(pt1xx, pt1xy, pt2zx, pt2zy); // H = W * W - 8 * B\n    (pt2zx, pt2zy) = _FQ2Mul(pt1zx, pt1zy, pt1zx, pt1zy); // S_squared = S * S\n    (pt2yx, pt2yy) = _FQ2Muc(pt2yx, pt2yy, 4); // 4 * B\n    (pt2yx, pt2yy) = _FQ2Sub(pt2yx, pt2yy, pt1xx, pt1xy); // 4 * B - H\n    (pt2yx, pt2yy) = _FQ2Mul(pt2yx, pt2yy, pt2xx, pt2xy); // W * (4 * B - H)\n    (pt2xx, pt2xy) = _FQ2Muc(pt1yx, pt1yy, 8); // 8 * y\n    (pt2xx, pt2xy) = _FQ2Mul(pt2xx, pt2xy, pt1yx, pt1yy); // 8 * y * y\n    (pt2xx, pt2xy) = _FQ2Mul(pt2xx, pt2xy, pt2zx, pt2zy); // 8 * y * y * S_squared\n    (pt2yx, pt2yy) = _FQ2Sub(pt2yx, pt2yy, pt2xx, pt2xy); // newy = W * (4 * B - H) - 8 * y * y * S_squared\n    (pt2xx, pt2xy) = _FQ2Muc(pt1xx, pt1xy, 2); // 2 * H\n    (pt2xx, pt2xy) = _FQ2Mul(pt2xx, pt2xy, pt1zx, pt1zy); // newx = 2 * H * S\n    (pt2zx, pt2zy) = _FQ2Mul(pt1zx, pt1zy, pt2zx, pt2zy); // S * S_squared\n    (pt2zx, pt2zy) = _FQ2Muc(pt2zx, pt2zy, 8); // newz = 8 * S * S_squared\n  }\n\n  function _ECTwistMulJacobian(\n    uint256 d,\n    uint256 pt1xx,\n    uint256 pt1xy,\n    uint256 pt1yx,\n    uint256 pt1yy,\n    uint256 pt1zx,\n    uint256 pt1zy\n  ) internal pure returns (uint256[6] memory pt2) {\n    while (d != 0) {\n      if ((d & 1) != 0) {\n        pt2 = _ECTwistAddJacobian(\n          pt2[PTXX],\n          pt2[PTXY],\n          pt2[PTYX],\n          pt2[PTYY],\n          pt2[PTZX],\n          pt2[PTZY],\n          pt1xx,\n          pt1xy,\n          pt1yx,\n          pt1yy,\n          pt1zx,\n          pt1zy\n        );\n      }\n      (pt1xx, pt1xy, pt1yx, pt1yy, pt1zx, pt1zy) = _ECTwistDoubleJacobian(\n        pt1xx,\n        pt1xy,\n        pt1yx,\n        pt1yy,\n        pt1zx,\n        pt1zy\n      );\n\n      d = d / 2;\n    }\n  }\n}\n// This file is MIT Licensed.\n//\n// Copyright 2017 Christian Reitwiessner\n// Permission is hereby granted, free of charge, to any person obtaining a copy of this software and associated documentation files (the \"Software\"), to deal in the Software without restriction, including without limitation the rights to use, copy, modify, merge, publish, distribute, sublicense, and/or sell copies of the Software, and to permit persons to whom the Software is furnished to do so, subject to the following conditions:\n// The above copyright notice and this permission notice shall be included in all copies or substantial portions of the Software.\n// THE SOFTWARE IS PROVIDED \"AS IS\", WITHOUT WARRANTY OF ANY KIND, EXPRESS OR IMPLIED, INCLUDING BUT NOT LIMITED TO THE WARRANTIES OF MERCHANTABILITY, FITNESS FOR A PARTICULAR PURPOSE AND NONINFRINGEMENT. IN NO EVENT SHALL THE AUTHORS OR COPYRIGHT HOLDERS BE LIABLE FOR ANY CLAIM, DAMAGES OR OTHER LIABILITY, WHETHER IN AN ACTION OF CONTRACT, TORT OR OTHERWISE, ARISING FROM, OUT OF OR IN CONNECTION WITH THE SOFTWARE OR THE USE OR OTHER DEALINGS IN THE SOFTWARE.\npragma solidity ^0.8.0;\n\n\nlibrary Pairing {\n  struct G1Point {\n    uint256 X;\n    uint256 Y;\n  }\n  // Encoding of field elements is: X[0] * z + X[1]\n  struct G2Point {\n    uint256[2] X;\n    uint256[2] Y;\n  }\n\n  /// @return the generator of G1\n  function P1() internal pure returns (G1Point memory) {\n    return G1Point(1, 2);\n  }\n\n  /// @return the generator of G2\n  function P2() internal pure returns (G2Point memory) {\n    return\n      G2Point(\n        [\n          10857046999023057135944570762232829481370756359578518086990519993285655852781,\n          11559732032986387107991004021392285783925812861821192530917403151452391805634\n        ],\n        [\n          8495653923123431417604973247489272438418190587263600148770280649306958101930,\n          4082367875863433681332203403145435568316851327593401208105741076214120093531\n        ]\n      );\n  }\n\n  /// @return the negation of p, i.e. p.addition(p.negate()) should be zero.\n  function negate(G1Point memory p) internal pure returns (G1Point memory) {\n    // The prime q in the base field F_q for G1\n    uint256 q = 21888242871839275222246405745257275088696311157297823662689037894645226208583;\n    if (p.X == 0 && p.Y == 0) return G1Point(0, 0);\n    return G1Point(p.X, q - (p.Y % q));\n  }\n\n  /// @return r the sum of two points of G1\n  function addition(G1Point memory p1, G1Point memory p2)\n    internal\n    view\n    returns (G1Point memory r)\n  {\n    uint256[4] memory input;\n    input[0] = p1.X;\n    input[1] = p1.Y;\n    input[2] = p2.X;\n    input[3] = p2.Y;\n    bool success;\n    assembly {\n      success := staticcall(sub(gas(), 2000), 6, input, 0xc0, r, 0x60)\n      // Use \"invalid\" to make gas estimation work\n      switch success\n      case 0 {\n        invalid()\n      }\n    }\n    require(success);\n  }\n\n  /// @return r the sum of two points of G2\n  function addition(G2Point memory p1, G2Point memory p2)\n    internal\n    view\n    returns (G2Point memory r)\n  {\n    (r.X[0], r.X[1], r.Y[0], r.Y[1]) = BN256G2.ECTwistAdd(\n      p1.X[0],\n      p1.X[1],\n      p1.Y[0],\n      p1.Y[1],\n      p2.X[0],\n      p2.X[1],\n      p2.Y[0],\n      p2.Y[1]\n    );\n  }\n\n  /// @return r the product of a point on G1 and a scalar, i.e.\n  /// p == p.scalar_mul(1) and p.addition(p) == p.scalar_mul(2) for all points p.\n  function scalar_mul(G1Point memory p, uint256 s)\n    internal\n    view\n    returns (G1Point memory r)\n  {\n    uint256[3] memory input;\n    input[0] = p.X;\n    input[1] = p.Y;\n    input[2] = s;\n    bool success;\n    assembly {\n      success := staticcall(sub(gas(), 2000), 7, input, 0x80, r, 0x60)\n      // Use \"invalid\" to make gas estimation work\n      switch success\n      case 0 {\n        invalid()\n      }\n    }\n    require(success);\n  }\n\n  /// @return the result of computing the pairing check\n  /// e(p1[0], p2[0]) *  .... * e(p1[n], p2[n]) == 1\n  /// For example pairing([P1(), P1().negate()], [P2(), P2()]) should\n  /// return true.\n  function pairing(G1Point[] memory p1, G2Point[] memory p2)\n    internal\n    view\n    returns (bool)\n  {\n    require(p1.length == p2.length);\n    uint256 elements = p1.length;\n    uint256 inputSize = elements * 6;\n    uint256[] memory input = new uint256[](inputSize);\n    for (uint256 i = 0; i < elements; i++) {\n      input[i * 6 + 0] = p1[i].X;\n      input[i * 6 + 1] = p1[i].Y;\n      input[i * 6 + 2] = p2[i].X[1];\n      input[i * 6 + 3] = p2[i].X[0];\n      input[i * 6 + 4] = p2[i].Y[1];\n      input[i * 6 + 5] = p2[i].Y[0];\n    }\n    uint256[1] memory out;\n    bool success;\n    assembly {\n      success := staticcall(\n        sub(gas(), 2000),\n        8,\n        add(input, 0x20),\n        mul(inputSize, 0x20),\n        out,\n        0x20\n      )\n      // Use \"invalid\" to make gas estimation work\n      switch success\n      case 0 {\n        invalid()\n      }\n    }\n    require(success);\n    return out[0] != 0;\n  }\n\n  /// Convenience method for a pairing check for two pairs.\n  function pairingProd2(\n    G1Point memory a1,\n    G2Point memory a2,\n    G1Point memory b1,\n    G2Point memory b2\n  ) internal view returns (bool) {\n    G1Point[] memory p1 = new G1Point[](2);\n    G2Point[] memory p2 = new G2Point[](2);\n    p1[0] = a1;\n    p1[1] = b1;\n    p2[0] = a2;\n    p2[1] = b2;\n    return pairing(p1, p2);\n  }\n\n  /// Convenience method for a pairing check for three pairs.\n  function pairingProd3(\n    G1Point memory a1,\n    G2Point memory a2,\n    G1Point memory b1,\n    G2Point memory b2,\n    G1Point memory c1,\n    G2Point memory c2\n  ) internal view returns (bool) {\n    G1Point[] memory p1 = new G1Point[](3);\n    G2Point[] memory p2 = new G2Point[](3);\n    p1[0] = a1;\n    p1[1] = b1;\n    p1[2] = c1;\n    p2[0] = a2;\n    p2[1] = b2;\n    p2[2] = c2;\n    return pairing(p1, p2);\n  }\n\n  /// Convenience method for a pairing check for four pairs.\n  function pairingProd4(\n    G1Point memory a1,\n    G2Point memory a2,\n    G1Point memory b1,\n    G2Point memory b2,\n    G1Point memory c1,\n    G2Point memory c2,\n    G1Point memory d1,\n    G2Point memory d2\n  ) internal view returns (bool) {\n    G1Point[] memory p1 = new G1Point[](4);\n    G2Point[] memory p2 = new G2Point[](4);\n    p1[0] = a1;\n    p1[1] = b1;\n    p1[2] = c1;\n    p1[3] = d1;\n    p2[0] = a2;\n    p2[1] = b2;\n    p2[2] = c2;\n    p2[3] = d2;\n    return pairing(p1, p2);\n  }\n}\n\ncontract Verifier {\n  using Pairing for *;\n  struct VerifyingKey {\n    Pairing.G1Point alpha;\n    Pairing.G2Point beta;\n    Pairing.G2Point gamma;\n    Pairing.G2Point delta;\n    Pairing.G1Point[] gamma_abc;\n  }\n  struct Proof {\n    Pairing.G1Point a;\n    Pairing.G2Point b;\n    Pairing.G1Point c;\n  }\n\n  function verifyingKey() internal pure returns (VerifyingKey memory vk) {\n    vk.alpha = Pairing.G1Point(\n      uint256(\n        0x11d04051dfa24197c951db85811bdd2c379ff160d59c527900376803b5da6d12\n      ),\n      uint256(\n        0x2c3550f6a11179451f225b11c1b6ec36dd23ee190619bfdd0976b34989f43a52\n      )\n    );\n    vk.beta = Pairing.G2Point(\n      [\n        uint256(\n          0x1add679852e7cbe6cdaf83e2dc628a45fdcb3a9819d3914ef37dd17003dbfa06\n        ),\n        uint256(\n          0x08e0663edef3226cb287662a5b57e6f66519f68e6ce1ee5e0a7a2ca279c1d3d7\n        )\n      ],\n      [\n        uint256(\n          0x13dbfd733214ef94afec2f3d608c9c93ac31cf2d8b4e10b6ae96089df973f2ce\n        ),\n        uint256(\n          0x21196295f0fb5aae2e67680f3f741822014f709f39f2205260faf0423a606045\n        )\n      ]\n    );\n    vk.gamma = Pairing.G2Point(\n      [\n        uint256(\n          0x234a9d17c9dfc7606f7f4639f74e478e24adc9432402422bd0b4e6055f700b94\n        ),\n        uint256(\n          0x078d4fbb6c4ba83e248d6af6c57898189b1d42205d04aeb287283c52f341d6fd\n        )\n      ],\n      [\n        uint256(\n          0x0cf8bc6df8078edf3be7861769600ffdd0f6cdbee70ed6de5b4c788f68600b80\n        ),\n        uint256(\n          0x20cee0a54011e67088ada2eb368a0c735232d061da4ee533faae69d2940ea598\n        )\n      ]\n    );\n    vk.delta = Pairing.G2Point(\n      [\n        uint256(\n          0x24889e8710fd954f3bf426dd31ae4da63b16f3366d51a7d5e6b9fbfabbd08e8b\n        ),\n        uint256(\n          0x0498faf797d188c9bd9e7e6c8f20a31d758867bd07bd1230829ba08d2b21e835\n        )\n      ],\n      [\n        uint256(\n          0x0ec7f959e443951e634636a8d799ccb0b55a9f6d0d57cdc9f79298d8e345c69a\n        ),\n        uint256(\n          0x04c337b781b0d2d4920791f02f3950f1020ed57355024463d0737e42f5e7103d\n        )\n      ]\n    );\n    vk.gamma_abc = new Pairing.G1Point[](3);\n    vk.gamma_abc[0] = Pairing.G1Point(\n      uint256(\n        0x26c050f4fdababfea0ca4ac42b61434e9aa3238121e4717f46779983dea95efd\n      ),\n      uint256(\n        0x153796ebc5c265b8d9f3e12a37c3347ad9d1782fb493f7336efaef309dd8f302\n      )\n    );\n    vk.gamma_abc[1] = Pairing.G1Point(\n      uint256(\n        0x1bcf0460dda7644589d32f728db1bcf71a6a8335f4f984fdbb2af42de8a631c4\n      ),\n      uint256(\n        0x225c4e5a8a933d5e2934bee490358a947627b378631feb262e238b38a2bcce3c\n      )\n    );\n    vk.gamma_abc[2] = Pairing.G1Point(\n      uint256(\n        0x1fdf934e7abaa0e1d83559a60bdc1c75f721520859075a13afd4c3abc218b075\n      ),\n      uint256(\n        0x2f2147805e090d941e4915e648a8f30686e77173e7179c0661cf6ef7d5e868d4\n      )\n    );\n  }\n\n  function verify(uint256[] memory input, Proof memory proof)\n    internal\n    view\n    returns (uint256)\n  {\n    uint256 snark_scalar_field = 21888242871839275222246405745257275088548364400416034343698204186575808495617;\n    VerifyingKey memory vk = verifyingKey();\n    require(input.length + 1 == vk.gamma_abc.length);\n    // Compute the linear combination vk_x\n    Pairing.G1Point memory vk_x = Pairing.G1Point(0, 0);\n    for (uint256 i = 0; i < input.length; i++) {\n      require(input[i] < snark_scalar_field);\n      vk_x = Pairing.addition(\n        vk_x,\n        Pairing.scalar_mul(vk.gamma_abc[i + 1], input[i])\n      );\n    }\n    vk_x = Pairing.addition(vk_x, vk.gamma_abc[0]);\n    if (\n      !Pairing.pairingProd4(\n        proof.a,\n        proof.b,\n        Pairing.negate(vk_x),\n        vk.gamma,\n        Pairing.negate(proof.c),\n        vk.delta,\n        Pairing.negate(vk.alpha),\n        vk.beta\n      )\n    ) return 1;\n    return 0;\n  }\n\n  function verifyTx(Proof memory proof, uint256[2] memory input)\n    public\n    view\n    returns (bool r)\n  {\n    uint256[] memory inputValues = new uint256[](2);\n\n    for (uint256 i = 0; i < input.length; i++) {\n      inputValues[i] = input[i];\n    }\n    if (verify(inputValues, proof) == 0) {\n      return true;\n    } else {\n      return false;\n    }\n  }\n}\n",
  "sourcePath": "/home/bzzzpy/Documents/Blockchain-Capstone/eth-contracts/contracts/verifier.sol",
  "compiler": {
    "name": "solc",
    "version": "0.8.1+commit.df193b15.Emscripten.clang"
  },
  "schemaVersion": "3.4.3",
  "updatedAt": "2021-09-03T07:18:32.849Z",
  "devdoc": {
    "kind": "dev",
    "methods": {},
    "version": 1
  },
  "userdoc": {
    "kind": "user",
    "methods": {},
    "version": 1
  }
}